{
  "_format": "hh-sol-artifact-1",
  "contractName": "DefaultReserveInterestRateStrategy",
  "sourceName": "contracts/protocol/pool/DefaultReserveInterestRateStrategy.sol",
  "abi": [
    {
      "inputs": [
        {
          "internalType": "contract IPoolAddressesProvider",
          "name": "provider",
          "type": "address"
        },
        {
          "internalType": "uint256",
          "name": "optimalUsageRatio",
          "type": "uint256"
        },
        {
          "internalType": "uint256",
          "name": "baseVariableBorrowRate",
          "type": "uint256"
        },
        {
          "internalType": "uint256",
          "name": "variableRateSlope1",
          "type": "uint256"
        },
        {
          "internalType": "uint256",
          "name": "variableRateSlope2",
          "type": "uint256"
        },
        {
          "internalType": "uint256",
          "name": "stableRateSlope1",
          "type": "uint256"
        },
        {
          "internalType": "uint256",
          "name": "stableRateSlope2",
          "type": "uint256"
        },
        {
          "internalType": "uint256",
          "name": "baseStableRateOffset",
          "type": "uint256"
        },
        {
          "internalType": "uint256",
          "name": "stableRateExcessOffset",
          "type": "uint256"
        },
        {
          "internalType": "uint256",
          "name": "optimalStableToTotalDebtRatio",
          "type": "uint256"
        }
      ],
      "stateMutability": "nonpayable",
      "type": "constructor"
    },
    {
      "inputs": [],
      "name": "ADDRESSES_PROVIDER",
      "outputs": [
        {
          "internalType": "contract IPoolAddressesProvider",
          "name": "",
          "type": "address"
        }
      ],
      "stateMutability": "view",
      "type": "function"
    },
    {
      "inputs": [],
      "name": "MAX_EXCESS_STABLE_TO_TOTAL_DEBT_RATIO",
      "outputs": [
        {
          "internalType": "uint256",
          "name": "",
          "type": "uint256"
        }
      ],
      "stateMutability": "view",
      "type": "function"
    },
    {
      "inputs": [],
      "name": "MAX_EXCESS_USAGE_RATIO",
      "outputs": [
        {
          "internalType": "uint256",
          "name": "",
          "type": "uint256"
        }
      ],
      "stateMutability": "view",
      "type": "function"
    },
    {
      "inputs": [],
      "name": "OPTIMAL_STABLE_TO_TOTAL_DEBT_RATIO",
      "outputs": [
        {
          "internalType": "uint256",
          "name": "",
          "type": "uint256"
        }
      ],
      "stateMutability": "view",
      "type": "function"
    },
    {
      "inputs": [],
      "name": "OPTIMAL_USAGE_RATIO",
      "outputs": [
        {
          "internalType": "uint256",
          "name": "",
          "type": "uint256"
        }
      ],
      "stateMutability": "view",
      "type": "function"
    },
    {
      "inputs": [
        {
          "components": [
            {
              "internalType": "uint256",
              "name": "unbacked",
              "type": "uint256"
            },
            {
              "internalType": "uint256",
              "name": "liquidityAdded",
              "type": "uint256"
            },
            {
              "internalType": "uint256",
              "name": "liquidityTaken",
              "type": "uint256"
            },
            {
              "internalType": "uint256",
              "name": "totalStableDebt",
              "type": "uint256"
            },
            {
              "internalType": "uint256",
              "name": "totalVariableDebt",
              "type": "uint256"
            },
            {
              "internalType": "uint256",
              "name": "averageStableBorrowRate",
              "type": "uint256"
            },
            {
              "internalType": "uint256",
              "name": "reserveFactor",
              "type": "uint256"
            },
            {
              "internalType": "address",
              "name": "reserve",
              "type": "address"
            },
            {
              "internalType": "address",
              "name": "mToken",
              "type": "address"
            }
          ],
          "internalType": "struct DataTypes.CalculateInterestRatesParams",
          "name": "params",
          "type": "tuple"
        }
      ],
      "name": "calculateInterestRates",
      "outputs": [
        {
          "internalType": "uint256",
          "name": "",
          "type": "uint256"
        },
        {
          "internalType": "uint256",
          "name": "",
          "type": "uint256"
        },
        {
          "internalType": "uint256",
          "name": "",
          "type": "uint256"
        }
      ],
      "stateMutability": "view",
      "type": "function"
    },
    {
      "inputs": [],
      "name": "getBaseStableBorrowRate",
      "outputs": [
        {
          "internalType": "uint256",
          "name": "",
          "type": "uint256"
        }
      ],
      "stateMutability": "view",
      "type": "function"
    },
    {
      "inputs": [],
      "name": "getBaseVariableBorrowRate",
      "outputs": [
        {
          "internalType": "uint256",
          "name": "",
          "type": "uint256"
        }
      ],
      "stateMutability": "view",
      "type": "function"
    },
    {
      "inputs": [],
      "name": "getMaxVariableBorrowRate",
      "outputs": [
        {
          "internalType": "uint256",
          "name": "",
          "type": "uint256"
        }
      ],
      "stateMutability": "view",
      "type": "function"
    },
    {
      "inputs": [],
      "name": "getStableRateExcessOffset",
      "outputs": [
        {
          "internalType": "uint256",
          "name": "",
          "type": "uint256"
        }
      ],
      "stateMutability": "view",
      "type": "function"
    },
    {
      "inputs": [],
      "name": "getStableRateSlope1",
      "outputs": [
        {
          "internalType": "uint256",
          "name": "",
          "type": "uint256"
        }
      ],
      "stateMutability": "view",
      "type": "function"
    },
    {
      "inputs": [],
      "name": "getStableRateSlope2",
      "outputs": [
        {
          "internalType": "uint256",
          "name": "",
          "type": "uint256"
        }
      ],
      "stateMutability": "view",
      "type": "function"
    },
    {
      "inputs": [],
      "name": "getVariableRateSlope1",
      "outputs": [
        {
          "internalType": "uint256",
          "name": "",
          "type": "uint256"
        }
      ],
      "stateMutability": "view",
      "type": "function"
    },
    {
      "inputs": [],
      "name": "getVariableRateSlope2",
      "outputs": [
        {
          "internalType": "uint256",
          "name": "",
          "type": "uint256"
        }
      ],
      "stateMutability": "view",
      "type": "function"
    }
  ],
  "bytecode": "0x61020060405234801561001157600080fd5b5060405162000f0f38038062000f0f83398101604081905261003291610146565b886b033b2e3c9fd0803ce8000000101560405180604001604052806002815260200161383360f01b815250906100845760405162461bcd60e51b815260040161007b91906101d1565b60405180910390fd5b50806b033b2e3c9fd0803ce80000001015604051806040016040528060028152602001610e0d60f21b815250906100ce5760405162461bcd60e51b815260040161007b91906101d1565b5060808990526100ea896b033b2e3c9fd0803ce8000000610226565b60c05260a0819052610108816b033b2e3c9fd0803ce8000000610226565b60e052506001600160a01b0390981661010052610120959095526101409390935261016091909152610180526101a0526101c052506101e05261024b565b6000806000806000806000806000806101408b8d03121561016657600080fd5b8a516001600160a01b038116811461017d57600080fd5b809a505060208b0151985060408b0151975060608b0151965060808b0151955060a08b0151945060c08b0151935060e08b015192506101008b015191506101208b015190509295989b9194979a5092959850565b600060208083528351808285015260005b818110156101fe578581018301518582016040015282016101e2565b81811115610210576000604083870101525b50601f01601f1916929092016040019392505050565b60008282101561024657634e487b7160e01b600052601160045260246000fd5b500390565b60805160a05160c05160e05161010051610120516101405161016051610180516101a0516101c0516101e051610ba76200036860003960008181610271015261086101526000610904015260008181610172015261062c01526000818161029701528181610657015261072c0152600081816102bd0152818161030c015261069401526000818161014201528181610330015281816106bf0152818161079e01526109250152600081816101980152818161035101526103f80152600060f40152600081816102e6015261080b01526000818161024501526105d00152600081816101e8015281816107da015261082c0152600081816101c10152818161059f015281816105f10152818161070301526107780152610ba76000f3fe608060405234801561001057600080fd5b50600436106100ea5760003560e01c8063a58987091161008c578063bc62690811610066578063bc6269081461026f578063d5cd739114610295578063f4202409146102bb578063fe5fd698146102e157600080fd5b8063a589870914610212578063a9c622f814610240578063acd786861461026757600080fd5b806334762ca5116100c857806334762ca51461019657806354c365c6146101bc5780636fb92589146101e357806380031e371461020a57600080fd5b80630542975c146100ef5780630b3429a21461014057806314e32da414610170575b600080fd5b6101167f000000000000000000000000000000000000000000000000000000000000000081565b60405173ffffffffffffffffffffffffffffffffffffffff90911681526020015b60405180910390f35b7f00000000000000000000000000000000000000000000000000000000000000005b604051908152602001610137565b7f0000000000000000000000000000000000000000000000000000000000000000610162565b7f0000000000000000000000000000000000000000000000000000000000000000610162565b6101627f000000000000000000000000000000000000000000000000000000000000000081565b6101627f000000000000000000000000000000000000000000000000000000000000000081565b610162610308565b610225610220366004610aa4565b610384565b60408051938452602084019290925290820152606001610137565b6101627f000000000000000000000000000000000000000000000000000000000000000081565b6101626108fd565b7f0000000000000000000000000000000000000000000000000000000000000000610162565b7f0000000000000000000000000000000000000000000000000000000000000000610162565b7f0000000000000000000000000000000000000000000000000000000000000000610162565b6101627f000000000000000000000000000000000000000000000000000000000000000081565b60007f00000000000000000000000000000000000000000000000000000000000000006103757f00000000000000000000000000000000000000000000000000000000000000007f0000000000000000000000000000000000000000000000000000000000000000610aec565b61037f9190610aec565b905090565b60008060006103d86040518061012001604052806000815260200160008152602001600081526020016000815260200160008152602001600081526020016000815260200160008152602001600081525090565b6103ea60808601356060870135610aec565b6020820152600060808201527f000000000000000000000000000000000000000000000000000000000000000060408201526104246108fd565b606082015260208101511561059d57602081015161044790606087013590610949565b8160e0018181525050846040013585602001358660e001602081019061046d9190610b04565b73ffffffffffffffffffffffffffffffffffffffff166370a0823161049a6101208a016101008b01610b04565b6040517fffffffff0000000000000000000000000000000000000000000000000000000060e084901b16815273ffffffffffffffffffffffffffffffffffffffff909116600482015260240160206040518083038186803b1580156104fe57600080fd5b505afa158015610512573d6000803e3d6000fd5b505050506040513d601f19601f820116820180604052508101906105369190610b41565b6105409190610aec565b61054a9190610b5a565b808252602082015161055b91610aec565b6101008201819052602082015161057191610949565b60a08201526101008101516105979061058c90873590610aec565b602083015190610949565b60c08201525b7f00000000000000000000000000000000000000000000000000000000000000008160a0015111156106fe5760006106257f00000000000000000000000000000000000000000000000000000000000000007f00000000000000000000000000000000000000000000000000000000000000008460a0015161061f9190610b5a565b90610949565b90506106517f000000000000000000000000000000000000000000000000000000000000000082610988565b61067b907f0000000000000000000000000000000000000000000000000000000000000000610aec565b8260600181815161068c9190610aec565b9052506106b97f000000000000000000000000000000000000000000000000000000000000000082610988565b6106e3907f0000000000000000000000000000000000000000000000000000000000000000610aec565b826040018181516106f49190610aec565b9052506107d89050565b6107597f000000000000000000000000000000000000000000000000000000000000000061061f8360a001517f000000000000000000000000000000000000000000000000000000000000000061098890919063ffffffff16565b8160600181815161076a9190610aec565b90525060a08101516107c3907f00000000000000000000000000000000000000000000000000000000000000009061061f907f000000000000000000000000000000000000000000000000000000000000000090610988565b816040018181516107d49190610aec565b9052505b7f00000000000000000000000000000000000000000000000000000000000000008160e00151111561089c57600061085a7f00000000000000000000000000000000000000000000000000000000000000007f00000000000000000000000000000000000000000000000000000000000000008460e0015161061f9190610b5a565b90506108867f000000000000000000000000000000000000000000000000000000000000000082610988565b826060018181516108979190610aec565b905250505b6108df6108af60c0870135612710610b5a565b6108d98360c001516108d389606001358a6080013587604001518c60a001356109df565b90610988565b90610a46565b60808201819052606082015160409092015190969195509350915050565b600061037f7f00000000000000000000000000000000000000000000000000000000000000007f0000000000000000000000000000000000000000000000000000000000000000610aec565b600081156b033b2e3c9fd0803ce80000006002840419048411171561096d57600080fd5b506b033b2e3c9fd0803ce80000009190910260028204010490565b600081157ffffffffffffffffffffffffffffffffffffffffffe6268e1b017bfe18bffffff839004841115176109bd57600080fd5b506b033b2e3c9fd0803ce800000091026b019d971e4fe8401e74000000010490565b6000806109ec8587610aec565b9050806109fd576000915050610a3e565b6000610a0c856108d388610a89565b90506000610a1d856108d38a610a89565b90506000610a37610a2d85610a89565b61061f8486610aec565b9450505050505b949350505050565b600081157fffffffffffffffffffffffffffffffffffffffffffffffffffffffffffffec7783900484111517610a7b57600080fd5b506127109102611388010490565b633b9aca008181029081048214610a9f57600080fd5b919050565b60006101208284031215610ab757600080fd5b50919050565b7f4e487b7100000000000000000000000000000000000000000000000000000000600052601160045260246000fd5b60008219821115610aff57610aff610abd565b500190565b600060208284031215610b1657600080fd5b813573ffffffffffffffffffffffffffffffffffffffff81168114610b3a57600080fd5b9392505050565b600060208284031215610b5357600080fd5b5051919050565b600082821015610b6c57610b6c610abd565b50039056fea2646970667358221220479c75ff3217dbb5047af6d31846413d02c3d63b4af9d79a64e56ee1dddc136464736f6c63430008090033",
  "linkReferences": {},
  "deployedLinkReferences": {}
}