{
  "_format": "hh-sol-artifact-1",
  "contractName": "Pool",
  "sourceName": "contracts/protocol/pool/Pool.sol",
  "abi": [
    {
      "inputs": [
        {
          "internalType": "contract IPoolAddressesProvider",
          "name": "provider",
          "type": "address"
        }
      ],
      "stateMutability": "nonpayable",
      "type": "constructor"
    },
    {
      "anonymous": false,
      "inputs": [
        {
          "indexed": true,
          "internalType": "address",
          "name": "reserve",
          "type": "address"
        },
        {
          "indexed": true,
          "internalType": "address",
          "name": "backer",
          "type": "address"
        },
        {
          "indexed": false,
          "internalType": "uint256",
          "name": "amount",
          "type": "uint256"
        },
        {
          "indexed": false,
          "internalType": "uint256",
          "name": "fee",
          "type": "uint256"
        }
      ],
      "name": "BackUnbacked",
      "type": "event"
    },
    {
      "anonymous": false,
      "inputs": [
        {
          "indexed": true,
          "internalType": "address",
          "name": "reserve",
          "type": "address"
        },
        {
          "indexed": false,
          "internalType": "address",
          "name": "user",
          "type": "address"
        },
        {
          "indexed": true,
          "internalType": "address",
          "name": "onBehalfOf",
          "type": "address"
        },
        {
          "indexed": false,
          "internalType": "uint256",
          "name": "amount",
          "type": "uint256"
        },
        {
          "indexed": false,
          "internalType": "enum DataTypes.InterestRateMode",
          "name": "interestRateMode",
          "type": "uint8"
        },
        {
          "indexed": false,
          "internalType": "uint256",
          "name": "borrowRate",
          "type": "uint256"
        },
        {
          "indexed": true,
          "internalType": "uint16",
          "name": "referralCode",
          "type": "uint16"
        }
      ],
      "name": "Borrow",
      "type": "event"
    },
    {
      "anonymous": false,
      "inputs": [
        {
          "indexed": true,
          "internalType": "address",
          "name": "target",
          "type": "address"
        },
        {
          "indexed": false,
          "internalType": "address",
          "name": "initiator",
          "type": "address"
        },
        {
          "indexed": true,
          "internalType": "address",
          "name": "asset",
          "type": "address"
        },
        {
          "indexed": false,
          "internalType": "uint256",
          "name": "amount",
          "type": "uint256"
        },
        {
          "indexed": false,
          "internalType": "enum DataTypes.InterestRateMode",
          "name": "interestRateMode",
          "type": "uint8"
        },
        {
          "indexed": false,
          "internalType": "uint256",
          "name": "premium",
          "type": "uint256"
        },
        {
          "indexed": true,
          "internalType": "uint16",
          "name": "referralCode",
          "type": "uint16"
        }
      ],
      "name": "FlashLoan",
      "type": "event"
    },
    {
      "anonymous": false,
      "inputs": [
        {
          "indexed": true,
          "internalType": "address",
          "name": "asset",
          "type": "address"
        },
        {
          "indexed": false,
          "internalType": "uint256",
          "name": "totalDebt",
          "type": "uint256"
        }
      ],
      "name": "IsolationModeTotalDebtUpdated",
      "type": "event"
    },
    {
      "anonymous": false,
      "inputs": [
        {
          "indexed": true,
          "internalType": "address",
          "name": "collateralAsset",
          "type": "address"
        },
        {
          "indexed": true,
          "internalType": "address",
          "name": "debtAsset",
          "type": "address"
        },
        {
          "indexed": true,
          "internalType": "address",
          "name": "user",
          "type": "address"
        },
        {
          "indexed": false,
          "internalType": "uint256",
          "name": "debtToCover",
          "type": "uint256"
        },
        {
          "indexed": false,
          "internalType": "uint256",
          "name": "liquidatedCollateralAmount",
          "type": "uint256"
        },
        {
          "indexed": false,
          "internalType": "address",
          "name": "liquidator",
          "type": "address"
        },
        {
          "indexed": false,
          "internalType": "bool",
          "name": "receiveMToken",
          "type": "bool"
        }
      ],
      "name": "LiquidationCall",
      "type": "event"
    },
    {
      "anonymous": false,
      "inputs": [
        {
          "indexed": true,
          "internalType": "address",
          "name": "reserve",
          "type": "address"
        },
        {
          "indexed": false,
          "internalType": "address",
          "name": "user",
          "type": "address"
        },
        {
          "indexed": true,
          "internalType": "address",
          "name": "onBehalfOf",
          "type": "address"
        },
        {
          "indexed": false,
          "internalType": "uint256",
          "name": "amount",
          "type": "uint256"
        },
        {
          "indexed": true,
          "internalType": "uint16",
          "name": "referralCode",
          "type": "uint16"
        }
      ],
      "name": "MintUnbacked",
      "type": "event"
    },
    {
      "anonymous": false,
      "inputs": [
        {
          "indexed": true,
          "internalType": "address",
          "name": "reserve",
          "type": "address"
        },
        {
          "indexed": false,
          "internalType": "uint256",
          "name": "amountMinted",
          "type": "uint256"
        }
      ],
      "name": "MintedToTreasury",
      "type": "event"
    },
    {
      "anonymous": false,
      "inputs": [
        {
          "indexed": true,
          "internalType": "address",
          "name": "reserve",
          "type": "address"
        },
        {
          "indexed": true,
          "internalType": "address",
          "name": "user",
          "type": "address"
        }
      ],
      "name": "RebalanceStableBorrowRate",
      "type": "event"
    },
    {
      "anonymous": false,
      "inputs": [
        {
          "indexed": true,
          "internalType": "address",
          "name": "reserve",
          "type": "address"
        },
        {
          "indexed": true,
          "internalType": "address",
          "name": "user",
          "type": "address"
        },
        {
          "indexed": true,
          "internalType": "address",
          "name": "repayer",
          "type": "address"
        },
        {
          "indexed": false,
          "internalType": "uint256",
          "name": "amount",
          "type": "uint256"
        },
        {
          "indexed": false,
          "internalType": "bool",
          "name": "useMTokens",
          "type": "bool"
        }
      ],
      "name": "Repay",
      "type": "event"
    },
    {
      "anonymous": false,
      "inputs": [
        {
          "indexed": true,
          "internalType": "address",
          "name": "reserve",
          "type": "address"
        },
        {
          "indexed": false,
          "internalType": "uint256",
          "name": "liquidityRate",
          "type": "uint256"
        },
        {
          "indexed": false,
          "internalType": "uint256",
          "name": "stableBorrowRate",
          "type": "uint256"
        },
        {
          "indexed": false,
          "internalType": "uint256",
          "name": "variableBorrowRate",
          "type": "uint256"
        },
        {
          "indexed": false,
          "internalType": "uint256",
          "name": "liquidityIndex",
          "type": "uint256"
        },
        {
          "indexed": false,
          "internalType": "uint256",
          "name": "variableBorrowIndex",
          "type": "uint256"
        }
      ],
      "name": "ReserveDataUpdated",
      "type": "event"
    },
    {
      "anonymous": false,
      "inputs": [
        {
          "indexed": true,
          "internalType": "address",
          "name": "reserve",
          "type": "address"
        },
        {
          "indexed": true,
          "internalType": "address",
          "name": "user",
          "type": "address"
        }
      ],
      "name": "ReserveUsedAsCollateralDisabled",
      "type": "event"
    },
    {
      "anonymous": false,
      "inputs": [
        {
          "indexed": true,
          "internalType": "address",
          "name": "reserve",
          "type": "address"
        },
        {
          "indexed": true,
          "internalType": "address",
          "name": "user",
          "type": "address"
        }
      ],
      "name": "ReserveUsedAsCollateralEnabled",
      "type": "event"
    },
    {
      "anonymous": false,
      "inputs": [
        {
          "indexed": true,
          "internalType": "address",
          "name": "reserve",
          "type": "address"
        },
        {
          "indexed": false,
          "internalType": "address",
          "name": "user",
          "type": "address"
        },
        {
          "indexed": true,
          "internalType": "address",
          "name": "onBehalfOf",
          "type": "address"
        },
        {
          "indexed": false,
          "internalType": "uint256",
          "name": "amount",
          "type": "uint256"
        },
        {
          "indexed": true,
          "internalType": "uint16",
          "name": "referralCode",
          "type": "uint16"
        }
      ],
      "name": "Supply",
      "type": "event"
    },
    {
      "anonymous": false,
      "inputs": [
        {
          "indexed": true,
          "internalType": "address",
          "name": "reserve",
          "type": "address"
        },
        {
          "indexed": true,
          "internalType": "address",
          "name": "user",
          "type": "address"
        },
        {
          "indexed": false,
          "internalType": "enum DataTypes.InterestRateMode",
          "name": "interestRateMode",
          "type": "uint8"
        }
      ],
      "name": "SwapBorrowRateMode",
      "type": "event"
    },
    {
      "anonymous": false,
      "inputs": [
        {
          "indexed": true,
          "internalType": "address",
          "name": "user",
          "type": "address"
        },
        {
          "indexed": false,
          "internalType": "uint8",
          "name": "categoryId",
          "type": "uint8"
        }
      ],
      "name": "UserEModeSet",
      "type": "event"
    },
    {
      "anonymous": false,
      "inputs": [
        {
          "indexed": true,
          "internalType": "address",
          "name": "reserve",
          "type": "address"
        },
        {
          "indexed": true,
          "internalType": "address",
          "name": "user",
          "type": "address"
        },
        {
          "indexed": true,
          "internalType": "address",
          "name": "to",
          "type": "address"
        },
        {
          "indexed": false,
          "internalType": "uint256",
          "name": "amount",
          "type": "uint256"
        }
      ],
      "name": "Withdraw",
      "type": "event"
    },
    {
      "inputs": [],
      "name": "ADDRESSES_PROVIDER",
      "outputs": [
        {
          "internalType": "contract IPoolAddressesProvider",
          "name": "",
          "type": "address"
        }
      ],
      "stateMutability": "view",
      "type": "function"
    },
    {
      "inputs": [],
      "name": "BRIDGE_PROTOCOL_FEE",
      "outputs": [
        {
          "internalType": "uint256",
          "name": "",
          "type": "uint256"
        }
      ],
      "stateMutability": "view",
      "type": "function"
    },
    {
      "inputs": [],
      "name": "FLASHLOAN_PREMIUM_TOTAL",
      "outputs": [
        {
          "internalType": "uint128",
          "name": "",
          "type": "uint128"
        }
      ],
      "stateMutability": "view",
      "type": "function"
    },
    {
      "inputs": [],
      "name": "FLASHLOAN_PREMIUM_TO_PROTOCOL",
      "outputs": [
        {
          "internalType": "uint128",
          "name": "",
          "type": "uint128"
        }
      ],
      "stateMutability": "view",
      "type": "function"
    },
    {
      "inputs": [],
      "name": "MAX_NUMBER_RESERVES",
      "outputs": [
        {
          "internalType": "uint16",
          "name": "",
          "type": "uint16"
        }
      ],
      "stateMutability": "view",
      "type": "function"
    },
    {
      "inputs": [],
      "name": "MAX_STABLE_RATE_BORROW_SIZE_PERCENT",
      "outputs": [
        {
          "internalType": "uint256",
          "name": "",
          "type": "uint256"
        }
      ],
      "stateMutability": "view",
      "type": "function"
    },
    {
      "inputs": [],
      "name": "POOL_REVISION",
      "outputs": [
        {
          "internalType": "uint256",
          "name": "",
          "type": "uint256"
        }
      ],
      "stateMutability": "view",
      "type": "function"
    },
    {
      "inputs": [
        {
          "internalType": "address",
          "name": "asset",
          "type": "address"
        },
        {
          "internalType": "uint256",
          "name": "amount",
          "type": "uint256"
        },
        {
          "internalType": "uint256",
          "name": "fee",
          "type": "uint256"
        }
      ],
      "name": "backUnbacked",
      "outputs": [],
      "stateMutability": "nonpayable",
      "type": "function"
    },
    {
      "inputs": [
        {
          "internalType": "address",
          "name": "asset",
          "type": "address"
        },
        {
          "internalType": "uint256",
          "name": "amount",
          "type": "uint256"
        },
        {
          "internalType": "uint256",
          "name": "interestRateMode",
          "type": "uint256"
        },
        {
          "internalType": "uint16",
          "name": "referralCode",
          "type": "uint16"
        },
        {
          "internalType": "address",
          "name": "onBehalfOf",
          "type": "address"
        }
      ],
      "name": "borrow",
      "outputs": [],
      "stateMutability": "nonpayable",
      "type": "function"
    },
    {
      "inputs": [
        {
          "internalType": "uint8",
          "name": "id",
          "type": "uint8"
        },
        {
          "components": [
            {
              "internalType": "uint16",
              "name": "ltv",
              "type": "uint16"
            },
            {
              "internalType": "uint16",
              "name": "liquidationThreshold",
              "type": "uint16"
            },
            {
              "internalType": "uint16",
              "name": "liquidationBonus",
              "type": "uint16"
            },
            {
              "internalType": "address",
              "name": "priceSource",
              "type": "address"
            },
            {
              "internalType": "string",
              "name": "label",
              "type": "string"
            }
          ],
          "internalType": "struct DataTypes.EModeCategory",
          "name": "category",
          "type": "tuple"
        }
      ],
      "name": "configureEModeCategory",
      "outputs": [],
      "stateMutability": "nonpayable",
      "type": "function"
    },
    {
      "inputs": [
        {
          "internalType": "address",
          "name": "asset",
          "type": "address"
        },
        {
          "internalType": "uint256",
          "name": "amount",
          "type": "uint256"
        },
        {
          "internalType": "address",
          "name": "onBehalfOf",
          "type": "address"
        },
        {
          "internalType": "uint16",
          "name": "referralCode",
          "type": "uint16"
        }
      ],
      "name": "deposit",
      "outputs": [],
      "stateMutability": "nonpayable",
      "type": "function"
    },
    {
      "inputs": [
        {
          "internalType": "address",
          "name": "asset",
          "type": "address"
        }
      ],
      "name": "dropReserve",
      "outputs": [],
      "stateMutability": "nonpayable",
      "type": "function"
    },
    {
      "inputs": [
        {
          "internalType": "address",
          "name": "asset",
          "type": "address"
        },
        {
          "internalType": "address",
          "name": "from",
          "type": "address"
        },
        {
          "internalType": "address",
          "name": "to",
          "type": "address"
        },
        {
          "internalType": "uint256",
          "name": "amount",
          "type": "uint256"
        },
        {
          "internalType": "uint256",
          "name": "balanceFromBefore",
          "type": "uint256"
        },
        {
          "internalType": "uint256",
          "name": "balanceToBefore",
          "type": "uint256"
        }
      ],
      "name": "finalizeTransfer",
      "outputs": [],
      "stateMutability": "nonpayable",
      "type": "function"
    },
    {
      "inputs": [
        {
          "internalType": "address",
          "name": "receiverAddress",
          "type": "address"
        },
        {
          "internalType": "address[]",
          "name": "assets",
          "type": "address[]"
        },
        {
          "internalType": "uint256[]",
          "name": "amounts",
          "type": "uint256[]"
        },
        {
          "internalType": "uint256[]",
          "name": "interestRateModes",
          "type": "uint256[]"
        },
        {
          "internalType": "address",
          "name": "onBehalfOf",
          "type": "address"
        },
        {
          "internalType": "bytes",
          "name": "params",
          "type": "bytes"
        },
        {
          "internalType": "uint16",
          "name": "referralCode",
          "type": "uint16"
        }
      ],
      "name": "flashLoan",
      "outputs": [],
      "stateMutability": "nonpayable",
      "type": "function"
    },
    {
      "inputs": [
        {
          "internalType": "address",
          "name": "receiverAddress",
          "type": "address"
        },
        {
          "internalType": "address",
          "name": "asset",
          "type": "address"
        },
        {
          "internalType": "uint256",
          "name": "amount",
          "type": "uint256"
        },
        {
          "internalType": "bytes",
          "name": "params",
          "type": "bytes"
        },
        {
          "internalType": "uint16",
          "name": "referralCode",
          "type": "uint16"
        }
      ],
      "name": "flashLoanSimple",
      "outputs": [],
      "stateMutability": "nonpayable",
      "type": "function"
    },
    {
      "inputs": [
        {
          "internalType": "address",
          "name": "asset",
          "type": "address"
        }
      ],
      "name": "getConfig",
      "outputs": [
        {
          "components": [
            {
              "internalType": "uint256",
              "name": "data",
              "type": "uint256"
            }
          ],
          "internalType": "struct DataTypes.ReserveConfigMap",
          "name": "",
          "type": "tuple"
        }
      ],
      "stateMutability": "view",
      "type": "function"
    },
    {
      "inputs": [
        {
          "internalType": "uint8",
          "name": "id",
          "type": "uint8"
        }
      ],
      "name": "getEModeCategoryData",
      "outputs": [
        {
          "components": [
            {
              "internalType": "uint16",
              "name": "ltv",
              "type": "uint16"
            },
            {
              "internalType": "uint16",
              "name": "liquidationThreshold",
              "type": "uint16"
            },
            {
              "internalType": "uint16",
              "name": "liquidationBonus",
              "type": "uint16"
            },
            {
              "internalType": "address",
              "name": "priceSource",
              "type": "address"
            },
            {
              "internalType": "string",
              "name": "label",
              "type": "string"
            }
          ],
          "internalType": "struct DataTypes.EModeCategory",
          "name": "",
          "type": "tuple"
        }
      ],
      "stateMutability": "view",
      "type": "function"
    },
    {
      "inputs": [
        {
          "internalType": "uint16",
          "name": "id",
          "type": "uint16"
        }
      ],
      "name": "getReserveAddressById",
      "outputs": [
        {
          "internalType": "address",
          "name": "",
          "type": "address"
        }
      ],
      "stateMutability": "view",
      "type": "function"
    },
    {
      "inputs": [
        {
          "internalType": "address",
          "name": "asset",
          "type": "address"
        }
      ],
      "name": "getReserveData",
      "outputs": [
        {
          "components": [
            {
              "components": [
                {
                  "internalType": "uint256",
                  "name": "data",
                  "type": "uint256"
                }
              ],
              "internalType": "struct DataTypes.ReserveConfigMap",
              "name": "config",
              "type": "tuple"
            },
            {
              "internalType": "uint128",
              "name": "liquidityIndex",
              "type": "uint128"
            },
            {
              "internalType": "uint128",
              "name": "currentLiquidityRate",
              "type": "uint128"
            },
            {
              "internalType": "uint128",
              "name": "variableBorrowIndex",
              "type": "uint128"
            },
            {
              "internalType": "uint128",
              "name": "currentVariableBorrowRate",
              "type": "uint128"
            },
            {
              "internalType": "uint128",
              "name": "currentStableBorrowRate",
              "type": "uint128"
            },
            {
              "internalType": "uint40",
              "name": "lastUpdateTimestamp",
              "type": "uint40"
            },
            {
              "internalType": "uint16",
              "name": "id",
              "type": "uint16"
            },
            {
              "internalType": "address",
              "name": "mTokenAddress",
              "type": "address"
            },
            {
              "internalType": "address",
              "name": "stableDebtTokenAddress",
              "type": "address"
            },
            {
              "internalType": "address",
              "name": "variableDebtTokenAddress",
              "type": "address"
            },
            {
              "internalType": "address",
              "name": "interestRateStrategyAddress",
              "type": "address"
            },
            {
              "internalType": "uint128",
              "name": "accruedToTreasury",
              "type": "uint128"
            },
            {
              "internalType": "uint128",
              "name": "unbacked",
              "type": "uint128"
            },
            {
              "internalType": "uint128",
              "name": "isolationModeTotalDebt",
              "type": "uint128"
            }
          ],
          "internalType": "struct DataTypes.ReserveData",
          "name": "",
          "type": "tuple"
        }
      ],
      "stateMutability": "view",
      "type": "function"
    },
    {
      "inputs": [
        {
          "internalType": "address",
          "name": "asset",
          "type": "address"
        }
      ],
      "name": "getReserveNormalizedIncome",
      "outputs": [
        {
          "internalType": "uint256",
          "name": "",
          "type": "uint256"
        }
      ],
      "stateMutability": "view",
      "type": "function"
    },
    {
      "inputs": [
        {
          "internalType": "address",
          "name": "asset",
          "type": "address"
        }
      ],
      "name": "getReserveNormalizedVariableDebt",
      "outputs": [
        {
          "internalType": "uint256",
          "name": "",
          "type": "uint256"
        }
      ],
      "stateMutability": "view",
      "type": "function"
    },
    {
      "inputs": [],
      "name": "getReservesList",
      "outputs": [
        {
          "internalType": "address[]",
          "name": "",
          "type": "address[]"
        }
      ],
      "stateMutability": "view",
      "type": "function"
    },
    {
      "inputs": [
        {
          "internalType": "address",
          "name": "user",
          "type": "address"
        }
      ],
      "name": "getUserAccountData",
      "outputs": [
        {
          "internalType": "uint256",
          "name": "totalCollateralBase",
          "type": "uint256"
        },
        {
          "internalType": "uint256",
          "name": "totalDebtBase",
          "type": "uint256"
        },
        {
          "internalType": "uint256",
          "name": "availableBorrowsBase",
          "type": "uint256"
        },
        {
          "internalType": "uint256",
          "name": "currentLiquidationThreshold",
          "type": "uint256"
        },
        {
          "internalType": "uint256",
          "name": "ltv",
          "type": "uint256"
        },
        {
          "internalType": "uint256",
          "name": "healthFactor",
          "type": "uint256"
        }
      ],
      "stateMutability": "view",
      "type": "function"
    },
    {
      "inputs": [
        {
          "internalType": "address",
          "name": "user",
          "type": "address"
        }
      ],
      "name": "getUserConfig",
      "outputs": [
        {
          "components": [
            {
              "internalType": "uint256",
              "name": "data",
              "type": "uint256"
            }
          ],
          "internalType": "struct DataTypes.UserConfigMap",
          "name": "",
          "type": "tuple"
        }
      ],
      "stateMutability": "view",
      "type": "function"
    },
    {
      "inputs": [
        {
          "internalType": "address",
          "name": "user",
          "type": "address"
        }
      ],
      "name": "getUserEMode",
      "outputs": [
        {
          "internalType": "uint256",
          "name": "",
          "type": "uint256"
        }
      ],
      "stateMutability": "view",
      "type": "function"
    },
    {
      "inputs": [
        {
          "internalType": "address",
          "name": "asset",
          "type": "address"
        },
        {
          "internalType": "address",
          "name": "mTokenAddress",
          "type": "address"
        },
        {
          "internalType": "address",
          "name": "stableDebtAddress",
          "type": "address"
        },
        {
          "internalType": "address",
          "name": "variableDebtAddress",
          "type": "address"
        },
        {
          "internalType": "address",
          "name": "interestRateStrategyAddress",
          "type": "address"
        }
      ],
      "name": "initReserve",
      "outputs": [],
      "stateMutability": "nonpayable",
      "type": "function"
    },
    {
      "inputs": [
        {
          "internalType": "contract IPoolAddressesProvider",
          "name": "provider",
          "type": "address"
        }
      ],
      "name": "initialize",
      "outputs": [],
      "stateMutability": "nonpayable",
      "type": "function"
    },
    {
      "inputs": [
        {
          "internalType": "address",
          "name": "collateralAsset",
          "type": "address"
        },
        {
          "internalType": "address",
          "name": "debtAsset",
          "type": "address"
        },
        {
          "internalType": "address",
          "name": "user",
          "type": "address"
        },
        {
          "internalType": "uint256",
          "name": "debtToCover",
          "type": "uint256"
        },
        {
          "internalType": "bool",
          "name": "receiveMToken",
          "type": "bool"
        }
      ],
      "name": "liquidationCall",
      "outputs": [],
      "stateMutability": "nonpayable",
      "type": "function"
    },
    {
      "inputs": [
        {
          "internalType": "address[]",
          "name": "assets",
          "type": "address[]"
        }
      ],
      "name": "mintToTreasury",
      "outputs": [],
      "stateMutability": "nonpayable",
      "type": "function"
    },
    {
      "inputs": [
        {
          "internalType": "address",
          "name": "asset",
          "type": "address"
        },
        {
          "internalType": "uint256",
          "name": "amount",
          "type": "uint256"
        },
        {
          "internalType": "address",
          "name": "onBehalfOf",
          "type": "address"
        },
        {
          "internalType": "uint16",
          "name": "referralCode",
          "type": "uint16"
        }
      ],
      "name": "mintUnbacked",
      "outputs": [],
      "stateMutability": "nonpayable",
      "type": "function"
    },
    {
      "inputs": [
        {
          "internalType": "address",
          "name": "asset",
          "type": "address"
        },
        {
          "internalType": "address",
          "name": "user",
          "type": "address"
        }
      ],
      "name": "rebalanceStableBorrowRate",
      "outputs": [],
      "stateMutability": "nonpayable",
      "type": "function"
    },
    {
      "inputs": [
        {
          "internalType": "address",
          "name": "asset",
          "type": "address"
        },
        {
          "internalType": "uint256",
          "name": "amount",
          "type": "uint256"
        },
        {
          "internalType": "uint256",
          "name": "interestRateMode",
          "type": "uint256"
        },
        {
          "internalType": "address",
          "name": "onBehalfOf",
          "type": "address"
        }
      ],
      "name": "repay",
      "outputs": [
        {
          "internalType": "uint256",
          "name": "",
          "type": "uint256"
        }
      ],
      "stateMutability": "nonpayable",
      "type": "function"
    },
    {
      "inputs": [
        {
          "internalType": "address",
          "name": "asset",
          "type": "address"
        },
        {
          "internalType": "uint256",
          "name": "amount",
          "type": "uint256"
        },
        {
          "internalType": "uint256",
          "name": "interestRateMode",
          "type": "uint256"
        }
      ],
      "name": "repayWithMTokens",
      "outputs": [
        {
          "internalType": "uint256",
          "name": "",
          "type": "uint256"
        }
      ],
      "stateMutability": "nonpayable",
      "type": "function"
    },
    {
      "inputs": [
        {
          "internalType": "address",
          "name": "asset",
          "type": "address"
        },
        {
          "internalType": "uint256",
          "name": "amount",
          "type": "uint256"
        },
        {
          "internalType": "uint256",
          "name": "interestRateMode",
          "type": "uint256"
        },
        {
          "internalType": "address",
          "name": "onBehalfOf",
          "type": "address"
        },
        {
          "internalType": "uint256",
          "name": "deadline",
          "type": "uint256"
        },
        {
          "internalType": "uint8",
          "name": "permitV",
          "type": "uint8"
        },
        {
          "internalType": "bytes32",
          "name": "permitR",
          "type": "bytes32"
        },
        {
          "internalType": "bytes32",
          "name": "permitS",
          "type": "bytes32"
        }
      ],
      "name": "repayWithPermit",
      "outputs": [
        {
          "internalType": "uint256",
          "name": "",
          "type": "uint256"
        }
      ],
      "stateMutability": "nonpayable",
      "type": "function"
    },
    {
      "inputs": [
        {
          "internalType": "address",
          "name": "token",
          "type": "address"
        },
        {
          "internalType": "address",
          "name": "to",
          "type": "address"
        },
        {
          "internalType": "uint256",
          "name": "amount",
          "type": "uint256"
        }
      ],
      "name": "rescueTokens",
      "outputs": [],
      "stateMutability": "nonpayable",
      "type": "function"
    },
    {
      "inputs": [
        {
          "internalType": "address",
          "name": "asset",
          "type": "address"
        }
      ],
      "name": "resetIsolationModeTotalDebt",
      "outputs": [],
      "stateMutability": "nonpayable",
      "type": "function"
    },
    {
      "inputs": [
        {
          "internalType": "address",
          "name": "asset",
          "type": "address"
        },
        {
          "components": [
            {
              "internalType": "uint256",
              "name": "data",
              "type": "uint256"
            }
          ],
          "internalType": "struct DataTypes.ReserveConfigMap",
          "name": "config",
          "type": "tuple"
        }
      ],
      "name": "setConfig",
      "outputs": [],
      "stateMutability": "nonpayable",
      "type": "function"
    },
    {
      "inputs": [
        {
          "internalType": "address",
          "name": "asset",
          "type": "address"
        },
        {
          "internalType": "address",
          "name": "rateStrategyAddress",
          "type": "address"
        }
      ],
      "name": "setReserveInterestRateStrategyAddress",
      "outputs": [],
      "stateMutability": "nonpayable",
      "type": "function"
    },
    {
      "inputs": [
        {
          "internalType": "uint8",
          "name": "categoryId",
          "type": "uint8"
        }
      ],
      "name": "setUserEMode",
      "outputs": [],
      "stateMutability": "nonpayable",
      "type": "function"
    },
    {
      "inputs": [
        {
          "internalType": "address",
          "name": "asset",
          "type": "address"
        },
        {
          "internalType": "bool",
          "name": "useAsCollateral",
          "type": "bool"
        }
      ],
      "name": "setUserUseReserveAsCollateral",
      "outputs": [],
      "stateMutability": "nonpayable",
      "type": "function"
    },
    {
      "inputs": [
        {
          "internalType": "address",
          "name": "asset",
          "type": "address"
        },
        {
          "internalType": "uint256",
          "name": "amount",
          "type": "uint256"
        },
        {
          "internalType": "address",
          "name": "onBehalfOf",
          "type": "address"
        },
        {
          "internalType": "uint16",
          "name": "referralCode",
          "type": "uint16"
        }
      ],
      "name": "supply",
      "outputs": [],
      "stateMutability": "nonpayable",
      "type": "function"
    },
    {
      "inputs": [
        {
          "internalType": "address",
          "name": "asset",
          "type": "address"
        },
        {
          "internalType": "uint256",
          "name": "amount",
          "type": "uint256"
        },
        {
          "internalType": "address",
          "name": "onBehalfOf",
          "type": "address"
        },
        {
          "internalType": "uint16",
          "name": "referralCode",
          "type": "uint16"
        },
        {
          "internalType": "uint256",
          "name": "deadline",
          "type": "uint256"
        },
        {
          "internalType": "uint8",
          "name": "permitV",
          "type": "uint8"
        },
        {
          "internalType": "bytes32",
          "name": "permitR",
          "type": "bytes32"
        },
        {
          "internalType": "bytes32",
          "name": "permitS",
          "type": "bytes32"
        }
      ],
      "name": "supplyWithPermit",
      "outputs": [],
      "stateMutability": "nonpayable",
      "type": "function"
    },
    {
      "inputs": [
        {
          "internalType": "address",
          "name": "asset",
          "type": "address"
        },
        {
          "internalType": "uint256",
          "name": "interestRateMode",
          "type": "uint256"
        }
      ],
      "name": "swapBorrowRateMode",
      "outputs": [],
      "stateMutability": "nonpayable",
      "type": "function"
    },
    {
      "inputs": [
        {
          "internalType": "uint256",
          "name": "protocolFee",
          "type": "uint256"
        }
      ],
      "name": "updateBridgeProtocolFee",
      "outputs": [],
      "stateMutability": "nonpayable",
      "type": "function"
    },
    {
      "inputs": [
        {
          "internalType": "uint128",
          "name": "flashLoanPremiumTotal",
          "type": "uint128"
        },
        {
          "internalType": "uint128",
          "name": "flashLoanPremiumToProtocol",
          "type": "uint128"
        }
      ],
      "name": "updateFlashloanPremiums",
      "outputs": [],
      "stateMutability": "nonpayable",
      "type": "function"
    },
    {
      "inputs": [
        {
          "internalType": "address",
          "name": "asset",
          "type": "address"
        },
        {
          "internalType": "uint256",
          "name": "amount",
          "type": "uint256"
        },
        {
          "internalType": "address",
          "name": "to",
          "type": "address"
        }
      ],
      "name": "withdraw",
      "outputs": [
        {
          "internalType": "uint256",
          "name": "",
          "type": "uint256"
        }
      ],
      "stateMutability": "nonpayable",
      "type": "function"
    }
  ],
  "bytecode": "0x60a0604052600080553480156200001557600080fd5b50604051620056de380380620056de83398101604081905262000038916200004a565b6001600160a01b03166080526200007c565b6000602082840312156200005d57600080fd5b81516001600160a01b03811681146200007557600080fd5b9392505050565b6080516155e4620000fa6000396000818161035601528181610a4e01528181610b4f015281816110610152818161171a01528181611acf015281816122540152818161233401528181612596015281816128af01528181612b2c015281816131a9015281816136ff015281816138b50152613a6001526155e46000f3fe608060405234801561001057600080fd5b50600436106103095760003560e01c80637a708e921161019c578063d1946dbc116100ee578063e48a5f7b11610097578063eddf1b7911610071578063eddf1b7914610947578063ee3e210b14610980578063f8119d511461099357600080fd5b8063e48a5f7b146108e6578063e82fec2f14610935578063e8eda9df146106da57600080fd5b8063d65dc7a1116100c8578063d65dc7a1146108ad578063dcd789ef146108c0578063e43e88a1146108d357600080fd5b8063d1946dbc14610872578063d579ea7d14610887578063d5ed39331461089a57600080fd5b8063bcb6e52211610150578063cd1123821161012a578063cd11238214610839578063cea9d26f1461084c578063d15e00531461085f57600080fd5b8063bcb6e522146107d3578063bf92857c146107e6578063c4d66de81461082657600080fd5b80639cd19996116101815780639cd199961461079a578063a415bcad146107ad578063ab9c4b5d146107c057600080fd5b80637a708e921461077457806394ba89a21461078757600080fd5b806335ea6a7511610260578063617ba0371161020957806369a933a5116101e357806369a933a5146107135780636a99c036146107265780636c6f6ae11461075457600080fd5b8063617ba037146106da57806363c9b860146106ed57806369328dec1461070057600080fd5b8063527517971161023a578063527517971461067a578063573ade81146106b45780635a3b74b9146106c757600080fd5b806335ea6a7514610486578063386497fd1461065457806342b0b77c1461066757600080fd5b806316626ab9116102c257806328530a471161029c57806328530a471461044d5780633036b439146104605780633109ef111461047357600080fd5b806316626ab9146103d45780631d2118f914610432578063272d90721461044557600080fd5b806302c205f0116102f357806302c205f01461033e5780630542975c14610351578063074b2e431461039d57600080fd5b8062a718a91461030e5780630148170e14610323575b600080fd5b61032161031c366004613f56565b6109a2565b005b61032b600181565b6040519081526020015b60405180910390f35b61032161034c366004613fe1565b610c3b565b6103787f000000000000000000000000000000000000000000000000000000000000000081565b60405173ffffffffffffffffffffffffffffffffffffffff9091168152602001610335565b603a546fffffffffffffffffffffffffffffffff165b6040516fffffffffffffffffffffffffffffffff9091168152602001610335565b6104236103e2366004614060565b604080516020808201835260009182905273ffffffffffffffffffffffffffffffffffffffff93909316815260358352819020815192830190915254815290565b60405190518152602001610335565b61032161044036600461407d565b610deb565b60395461032b565b61032161045b3660046140b6565b610fd9565b61032161046e3660046140d1565b6111c7565b6103216104813660046140ea565b6111d4565b610647610494366004614060565b604080516102008101825260006101e08201818152825260208201819052918101829052606081018290526080810182905260a0810182905260c0810182905260e08101829052610100810182905261012081018290526101408101829052610160810182905261018081018290526101a081018290526101c08101919091525073ffffffffffffffffffffffffffffffffffffffff90811660009081526034602090815260409182902082516102008101845281546101e08201908152815260018201546fffffffffffffffffffffffffffffffff80821694830194909452700100000000000000000000000000000000908190048416948201949094526002820154808416606083015284900483166080820152600382015480841660a083015284810464ffffffffff1660c08301527501000000000000000000000000000000000000000000900461ffff1660e0820152600482015485166101008201526005820154851661012082015260068201548516610140820152600782015490941661016085015260088101548083166101808601529290920481166101a0840152600990910154166101c082015290565b6040516103359190614149565b61032b610662366004614060565b611390565b61032161067536600461430f565b6113c4565b610378610688366004614391565b61ffff1660009081526036602052604090205473ffffffffffffffffffffffffffffffffffffffff1690565b61032b6106c23660046143ac565b61153e565b6103216106d53660046143f6565b6116a6565b6103216106e8366004614424565b61188a565b6103216106fb366004614060565b61198d565b61032b61070e366004614475565b611a09565b610321610721366004614424565b611c8d565b603a5470010000000000000000000000000000000090046fffffffffffffffffffffffffffffffff166103b3565b6107676107623660046140b6565b611d3a565b6040516103359190614522565b610321610782366004614585565b611e74565b6103216107953660046145e8565b61200f565b6103216107a8366004614659565b612090565b6103216107bb36600461469b565b6120e5565b6103216107ce3660046146da565b6123e9565b6103216107e13660046147f4565b6127c0565b6107f96107f4366004614060565b6127f7565b604080519687526020870195909552938501929092526060840152608083015260a082015260c001610335565b610321610834366004614060565b612a44565b61032161084736600461407d565b612c4d565b61032161085a366004614827565b612cd6565b61032b61086d366004614060565b612d84565b61087a612db2565b6040516103359190614868565b610321610895366004614969565b612eee565b6103216108a8366004614aa1565b61305a565b6103216108bb366004614b06565b6132f0565b61032b6108ce366004614b06565b61338e565b6103216108e1366004614060565b613487565b6104236108f4366004614060565b604080516020808201835260009182905273ffffffffffffffffffffffffffffffffffffffff93909316815260348352819020815192830190915254815290565b603b5467ffffffffffffffff1661032b565b61032b610955366004614060565b73ffffffffffffffffffffffffffffffffffffffff1660009081526038602052604090205460ff1690565b61032b61098e366004614b3b565b6134fc565b60405160808152602001610335565b73__$7fde1443b283842bc18604369ceb53db3f$__634addca2c6034603660356037604051806101200160405280603b60089054906101000a900461ffff1661ffff1681526020018981526020018c73ffffffffffffffffffffffffffffffffffffffff1681526020018b73ffffffffffffffffffffffffffffffffffffffff1681526020018a73ffffffffffffffffffffffffffffffffffffffff16815260200188151581526020017f000000000000000000000000000000000000000000000000000000000000000073ffffffffffffffffffffffffffffffffffffffff1663fca513a86040518163ffffffff1660e01b815260040160206040518083038186803b158015610ab257600080fd5b505afa158015610ac6573d6000803e3d6000fd5b505050506040513d601f19601f82011682018060405250810190610aea9190614b81565b73ffffffffffffffffffffffffffffffffffffffff90811682528b81166000908152603860209081526040918290205460ff168185015281517f5eb88d3d000000000000000000000000000000000000000000000000000000008152825192909401937f000000000000000000000000000000000000000000000000000000000000000090931692635eb88d3d9260048083019392829003018186803b158015610b9357600080fd5b505afa158015610ba7573d6000803e3d6000fd5b505050506040513d601f19601f82011682018060405250810190610bcb9190614b81565b73ffffffffffffffffffffffffffffffffffffffff168152506040518663ffffffff1660e01b8152600401610c04959493929190614b9e565b60006040518083038186803b158015610c1c57600080fd5b505af4158015610c30573d6000803e3d6000fd5b505050505050505050565b6040517fd505accf000000000000000000000000000000000000000000000000000000008152336004820152306024820152604481018890526064810185905260ff8416608482015260a4810183905260c4810182905273ffffffffffffffffffffffffffffffffffffffff89169063d505accf9060e401600060405180830381600087803b158015610ccd57600080fd5b505af1158015610ce1573d6000803e3d6000fd5b5050505073ffffffffffffffffffffffffffffffffffffffff86811660008181526035602090815260409182902082516080810184528d861681529182018c815282840194855261ffff8b81166060850190815294517f8390d06400000000000000000000000000000000000000000000000000000000815260346004820152603660248201526044810193909352925186166064830152516084820152925190931660a48301525190911660c482015273__$75e37c6e9a3489198ff8ecd47d4f08a1ec$__90638390d0649060e40160006040518083038186803b158015610dc957600080fd5b505af4158015610ddd573d6000803e3d6000fd5b505050505050505050505050565b610df36136e6565b60408051808201909152600281527f3737000000000000000000000000000000000000000000000000000000000000602082015273ffffffffffffffffffffffffffffffffffffffff8316610e7e576040517f08c379a0000000000000000000000000000000000000000000000000000000008152600401610e759190614c7f565b60405180910390fd5b5073ffffffffffffffffffffffffffffffffffffffff82166000908152603460205260409020600301547501000000000000000000000000000000000000000000900461ffff16151580610f1457506000805260366020527f4cb2b152c1b54ce671907a93c300fd5aa72383a9d4ec19a81e3333632ae92e005473ffffffffffffffffffffffffffffffffffffffff8381169116145b6040518060400160405280600281526020017f383200000000000000000000000000000000000000000000000000000000000081525090610f82576040517f08c379a0000000000000000000000000000000000000000000000000000000008152600401610e759190614c7f565b5073ffffffffffffffffffffffffffffffffffffffff918216600090815260346020526040902060070180547fffffffffffffffffffffffff00000000000000000000000000000000000000001691909216179055565b73__$66ad45f36ed5eaa66dd5528791076d84b4$__631ee9b8d56034603660376038603560003373ffffffffffffffffffffffffffffffffffffffff1673ffffffffffffffffffffffffffffffffffffffff1681526020019081526020016000206040518060600160405280603b60089054906101000a900461ffff1661ffff1681526020017f000000000000000000000000000000000000000000000000000000000000000073ffffffffffffffffffffffffffffffffffffffff1663fca513a86040518163ffffffff1660e01b815260040160206040518083038186803b1580156110c557600080fd5b505afa1580156110d9573d6000803e3d6000fd5b505050506040513d601f19601f820116820180604052508101906110fd9190614b81565b73ffffffffffffffffffffffffffffffffffffffff1681526020018960ff168152506040518763ffffffff1660e01b81526004016111949695949392919095865260208087019590955260408087019490945260608601929092526080850152805160a08501529182015173ffffffffffffffffffffffffffffffffffffffff1660c0840152015160ff1660e08201526101000190565b60006040518083038186803b1580156111ac57600080fd5b505af41580156111c0573d6000803e3d6000fd5b5050505050565b6111cf6136e6565b603955565b6111dc6136e6565b60408051808201909152600281527f3737000000000000000000000000000000000000000000000000000000000000602082015273ffffffffffffffffffffffffffffffffffffffff831661125e576040517f08c379a0000000000000000000000000000000000000000000000000000000008152600401610e759190614c7f565b5073ffffffffffffffffffffffffffffffffffffffff82166000908152603460205260409020600301547501000000000000000000000000000000000000000000900461ffff161515806112f457506000805260366020527f4cb2b152c1b54ce671907a93c300fd5aa72383a9d4ec19a81e3333632ae92e005473ffffffffffffffffffffffffffffffffffffffff8381169116145b6040518060400160405280600281526020017f383200000000000000000000000000000000000000000000000000000000000081525090611362576040517f08c379a0000000000000000000000000000000000000000000000000000000008152600401610e759190614c7f565b5073ffffffffffffffffffffffffffffffffffffffff91909116600090815260346020526040902090359055565b73ffffffffffffffffffffffffffffffffffffffff811660009081526034602052604081206113be90613823565b92915050565b60006040518060e001604052808873ffffffffffffffffffffffffffffffffffffffff1681526020018773ffffffffffffffffffffffffffffffffffffffff16815260200186815260200185858080601f016020809104026020016040519081016040528093929190818152602001838380828437600092018290525093855250505061ffff8516602080840191909152603a546fffffffffffffffffffffffffffffffff70010000000000000000000000000000000082048116604080870191909152911660609094019390935273ffffffffffffffffffffffffffffffffffffffff8a1682526034905281902090517fa1fe0e8d00000000000000000000000000000000000000000000000000000000815291925073__$2eef9bea748b87530e1c6636369784991d$__9163a1fe0e8d91611505918590600401614c92565b60006040518083038186803b15801561151d57600080fd5b505af4158015611531573d6000803e3d6000fd5b5050505050505050505050565b600073__$8ba59350e81ff9c26b87a1ef1ff463a6d5$__638c121d5f60346036603560008773ffffffffffffffffffffffffffffffffffffffff1673ffffffffffffffffffffffffffffffffffffffff1681526020019081526020016000206040518060a001604052808b73ffffffffffffffffffffffffffffffffffffffff1681526020018a81526020018960028111156115dc576115dc614d1d565b60028111156115ed576115ed614d1d565b815273ffffffffffffffffffffffffffffffffffffffff891660208201526000604091820152517fffffffff0000000000000000000000000000000000000000000000000000000060e087901b16815261164d9493929190600401614d87565b60206040518083038186803b15801561166557600080fd5b505af4158015611679573d6000803e3d6000fd5b505050506040513d601f19601f8201168201806040525081019061169d9190614dfa565b95945050505050565b73__$75e37c6e9a3489198ff8ecd47d4f08a1ec$__635b5a09f9603460366037603560003373ffffffffffffffffffffffffffffffffffffffff1673ffffffffffffffffffffffffffffffffffffffff1681526020019081526020016000208787603b60089054906101000a900461ffff167f000000000000000000000000000000000000000000000000000000000000000073ffffffffffffffffffffffffffffffffffffffff1663fca513a86040518163ffffffff1660e01b815260040160206040518083038186803b15801561177e57600080fd5b505afa158015611792573d6000803e3d6000fd5b505050506040513d601f19601f820116820180604052508101906117b69190614b81565b336000908152603860205260409081902054905160e08b901b7fffffffff00000000000000000000000000000000000000000000000000000000168152600481019990995260248901979097526044880195909552606487019390935273ffffffffffffffffffffffffffffffffffffffff9182166084870152151560a486015261ffff90911660c48501521660e483015260ff16610104820152610124015b60006040518083038186803b15801561186e57600080fd5b505af4158015611882573d6000803e3d6000fd5b505050505050565b73ffffffffffffffffffffffffffffffffffffffff8281166000818152603560209081526040918290208251608081018452898616815291820188815282840194855261ffff8781166060850190815294517f8390d06400000000000000000000000000000000000000000000000000000000815260346004820152603660248201526044810193909352925186166064830152516084820152925190931660a48301525190911660c482015273__$75e37c6e9a3489198ff8ecd47d4f08a1ec$__90638390d0649060e4015b60006040518083038186803b15801561196f57600080fd5b505af4158015611983573d6000803e3d6000fd5b5050505050505050565b6119956136e6565b6040517f9cf57023000000000000000000000000000000000000000000000000000000008152603460048201526036602482015273ffffffffffffffffffffffffffffffffffffffff8216604482015273__$10795bc931ed5f2408f2d927e510a5ac4c$__90639cf5702390606401611194565b600073__$75e37c6e9a3489198ff8ecd47d4f08a1ec$__63ce9fbb3a603460366037603560003373ffffffffffffffffffffffffffffffffffffffff1673ffffffffffffffffffffffffffffffffffffffff1681526020019081526020016000206040518060c001604052808b73ffffffffffffffffffffffffffffffffffffffff1681526020018a81526020018973ffffffffffffffffffffffffffffffffffffffff168152602001603b60089054906101000a900461ffff1661ffff1681526020017f000000000000000000000000000000000000000000000000000000000000000073ffffffffffffffffffffffffffffffffffffffff1663fca513a86040518163ffffffff1660e01b815260040160206040518083038186803b158015611b3357600080fd5b505afa158015611b47573d6000803e3d6000fd5b505050506040513d601f19601f82011682018060405250810190611b6b9190614b81565b73ffffffffffffffffffffffffffffffffffffffff9081168252336000908152603860209081526040918290205460ff90811694820194909452815160e08b901b7fffffffff0000000000000000000000000000000000000000000000000000000016815260048101999099526024890197909752604488019590955260648701939093528151831660848701529381015160a486015291820151811660c4850152606082015160e485015260808201511661010484015260a0015116610124820152610144015b60206040518083038186803b158015611c4b57600080fd5b505af4158015611c5f573d6000803e3d6000fd5b505050506040513d601f19601f82011682018060405250810190611c839190614dfa565b90505b9392505050565b611c956138b3565b73ffffffffffffffffffffffffffffffffffffffff8281166000818152603560205260409081902090517fe1d3f2740000000000000000000000000000000000000000000000000000000081526034600482015260366024820152604481019190915291861660648301526084820185905260a482015261ffff821660c482015273__$6ba0b0a1c960fb953afba58db43f937d61$__9063e1d3f2749060e401611957565b6040805160a081018252600080825260208201819052918101829052606080820192909252608081019190915260ff8216600090815260376020908152604091829020825160a081018452815461ffff8082168352620100008204811694830194909452640100000000810490931693810193909352660100000000000090910473ffffffffffffffffffffffffffffffffffffffff166060830152600181018054608084019190611deb90614e13565b80601f0160208091040260200160405190810160405280929190818152602001828054611e1790614e13565b8015611e645780601f10611e3957610100808354040283529160200191611e64565b820191906000526020600020905b815481529060010190602001808311611e4757829003601f168201915b5050505050815250509050919050565b611e7c6136e6565b73__$10795bc931ed5f2408f2d927e510a5ac4c$__6369fc1bdf603460366040518060e001604052808a73ffffffffffffffffffffffffffffffffffffffff1681526020018973ffffffffffffffffffffffffffffffffffffffff1681526020018873ffffffffffffffffffffffffffffffffffffffff1681526020018773ffffffffffffffffffffffffffffffffffffffff1681526020018673ffffffffffffffffffffffffffffffffffffffff168152602001603b60089054906101000a900461ffff1661ffff168152602001611f53608090565b61ffff168152506040518463ffffffff1660e01b8152600401611f7893929190614e61565b60206040518083038186803b158015611f9057600080fd5b505af4158015611fa4573d6000803e3d6000fd5b505050506040513d601f19601f82011682018060405250810190611fc89190614ef1565b156111c057603b805468010000000000000000900461ffff16906008611fed83614f3d565b91906101000a81548161ffff021916908361ffff160217905550505050505050565b73ffffffffffffffffffffffffffffffffffffffff82166000908152603460209081526040808320338452603590925290912073__$8ba59350e81ff9c26b87a1ef1ff463a6d5$__9163e59e89bf918585600281111561207157612071614d1d565b6040518563ffffffff1660e01b81526004016118569493929190614f5f565b6040517f48c2ca8c00000000000000000000000000000000000000000000000000000000815273__$10795bc931ed5f2408f2d927e510a5ac4c$__906348c2ca8c906118569060349086908690600401614f96565b73__$8ba59350e81ff9c26b87a1ef1ff463a6d5$__63a5107185603460366037603560008773ffffffffffffffffffffffffffffffffffffffff1673ffffffffffffffffffffffffffffffffffffffff1681526020019081526020016000206040518061018001604052808c73ffffffffffffffffffffffffffffffffffffffff1681526020013373ffffffffffffffffffffffffffffffffffffffff1681526020018873ffffffffffffffffffffffffffffffffffffffff1681526020018b81526020018a60028111156121bc576121bc614d1d565b60028111156121cd576121cd614d1d565b815261ffff808b166020808401919091526001604080850191909152603b5467ffffffffffffffff81166060860152680100000000000000009004909216608084015281517ffca513a8000000000000000000000000000000000000000000000000000000008152915160a09093019273ffffffffffffffffffffffffffffffffffffffff7f0000000000000000000000000000000000000000000000000000000000000000169263fca513a8926004808301939192829003018186803b15801561229757600080fd5b505afa1580156122ab573d6000803e3d6000fd5b505050506040513d601f19601f820116820180604052508101906122cf9190614b81565b73ffffffffffffffffffffffffffffffffffffffff90811682528981166000908152603860209081526040918290205460ff168185015281517f5eb88d3d000000000000000000000000000000000000000000000000000000008152825192909401937f000000000000000000000000000000000000000000000000000000000000000090931692635eb88d3d9260048083019392829003018186803b15801561237857600080fd5b505afa15801561238c573d6000803e3d6000fd5b505050506040513d601f19601f820116820180604052508101906123b09190614b81565b73ffffffffffffffffffffffffffffffffffffffff168152506040518663ffffffff1660e01b8152600401610c04959493929190614ffb565b6000604051806101c001604052808d73ffffffffffffffffffffffffffffffffffffffff1681526020018c8c808060200260200160405190810160405280939291908181526020018383602002808284376000920191909152505050908252506040805160208c810282810182019093528c82529283019290918d918d9182918501908490808284376000920191909152505050908252506040805160208a810282810182019093528a82529283019290918b918b91829185019084908082843760009201919091525050509082525073ffffffffffffffffffffffffffffffffffffffff871660208083019190915260408051601f88018390048302810183018252878152920191908790879081908401838280828437600092018290525093855250505061ffff808616602080850191909152603a546fffffffffffffffffffffffffffffffff7001000000000000000000000000000000008204811660408088019190915291166060860152603b5467ffffffffffffffff8116608087015268010000000000000000900490921660a085015273ffffffffffffffffffffffffffffffffffffffff7f0000000000000000000000000000000000000000000000000000000000000000811660c08601819052908b16845260388252928290205460ff1660e085015281517f707cd71600000000000000000000000000000000000000000000000000000000815291516101009094019363707cd716926004808201939291829003018186803b15801561262457600080fd5b505afa158015612638573d6000803e3d6000fd5b505050506040513d601f19601f8201168201806040525081019061265c9190614b81565b6040517ffa50f29700000000000000000000000000000000000000000000000000000000815233600482015273ffffffffffffffffffffffffffffffffffffffff919091169063fa50f2979060240160206040518083038186803b1580156126c357600080fd5b505afa1580156126d7573d6000803e3d6000fd5b505050506040513d601f19601f820116820180604052508101906126fb9190614ef1565b1515905273ffffffffffffffffffffffffffffffffffffffff86166000908152603560205260409081902090517f5dcaefd600000000000000000000000000000000000000000000000000000000815291925073__$2eef9bea748b87530e1c6636369784991d$__91635dcaefd691612782916034916036916037919088906004016151a4565b60006040518083038186803b15801561279a57600080fd5b505af41580156127ae573d6000803e3d6000fd5b50505050505050505050505050505050565b6127c86136e6565b6fffffffffffffffffffffffffffffffff90811670010000000000000000000000000000000002911617603a55565b6040805173ffffffffffffffffffffffffffffffffffffffff83811660008181526035602090815285822060c0860187525460a086019081528552603b5468010000000000000000900461ffff16818601528486019290925284517ffca513a8000000000000000000000000000000000000000000000000000000008152945190948594859485948594859473__$10795bc931ed5f2408f2d927e510a5ac4c$__946326ec273f9460349460369460379460608501937f0000000000000000000000000000000000000000000000000000000000000000169263fca513a892600480840193829003018186803b1580156128f057600080fd5b505afa158015612904573d6000803e3d6000fd5b505050506040513d601f19601f820116820180604052508101906129289190614b81565b73ffffffffffffffffffffffffffffffffffffffff90811682528e81166000908152603860209081526040918290205460ff90811694820194909452815160e08a901b7fffffffff00000000000000000000000000000000000000000000000000000000168152600481019890985260248801969096526044870194909452825151606487015293820151608486015291810151831660a4850152606081015190921660c48401526080909101511660e48201526101040160c06040518083038186803b1580156129f857600080fd5b505af4158015612a0c573d6000803e3d6000fd5b505050506040513d601f19601f82011682018060405250810190612a30919061534a565b949c939b5091995097509550909350915050565b6001805460ff1680612a555750303b155b80612a61575060005481115b612aed576040517f08c379a000000000000000000000000000000000000000000000000000000000815260206004820152602e60248201527f436f6e747261637420696e7374616e63652068617320616c726561647920626560448201527f656e20696e697469616c697a65640000000000000000000000000000000000006064820152608401610e75565b60015460ff16158015612b2a57600180547fffffffffffffffffffffffffffffffffffffffffffffffffffffffffffffff00168117905560008290555b7f000000000000000000000000000000000000000000000000000000000000000073ffffffffffffffffffffffffffffffffffffffff168373ffffffffffffffffffffffffffffffffffffffff16146040518060400160405280600281526020017f313200000000000000000000000000000000000000000000000000000000000081525090612be7576040517f08c379a0000000000000000000000000000000000000000000000000000000008152600401610e759190614c7f565b50603b80547fffffffffffffffffffffffffffffffffffffffffffffffff0000000000000000166109c41790556009603a558015612c4857600180547fffffffffffffffffffffffffffffffffffffffffffffffffffffffffffffff001690555b505050565b73ffffffffffffffffffffffffffffffffffffffff8281166000818152603460205260409081902090517f6973f74400000000000000000000000000000000000000000000000000000000815260048101919091526024810191909152908216604482015273__$8ba59350e81ff9c26b87a1ef1ff463a6d5$__90636973f74490606401611856565b612cde613a5e565b6040517f87b322b200000000000000000000000000000000000000000000000000000000815273ffffffffffffffffffffffffffffffffffffffff8085166004830152831660248201526044810182905273__$10795bc931ed5f2408f2d927e510a5ac4c$__906387b322b2906064015b60006040518083038186803b158015612d6757600080fd5b505af4158015612d7b573d6000803e3d6000fd5b50505050505050565b73ffffffffffffffffffffffffffffffffffffffff811660009081526034602052604081206113be90613c09565b603b5460609068010000000000000000900461ffff166000808267ffffffffffffffff811115612de457612de46148c2565b604051908082528060200260200182016040528015612e0d578160200160208202803683370190505b50905060005b83811015612ee45760008181526036602052604090205473ffffffffffffffffffffffffffffffffffffffff1615612ec45760008181526036602052604090205473ffffffffffffffffffffffffffffffffffffffff1682612e758584615394565b81518110612e8557612e856153ab565b602002602001019073ffffffffffffffffffffffffffffffffffffffff16908173ffffffffffffffffffffffffffffffffffffffff1681525050612ed2565b82612ece816153da565b9350505b80612edc816153da565b915050612e13565b5091038152919050565b612ef66136e6565b60408051808201909152600281527f3136000000000000000000000000000000000000000000000000000000000000602082015260ff8316612f65576040517f08c379a0000000000000000000000000000000000000000000000000000000008152600401610e759190614c7f565b5060ff8216600090815260376020908152604091829020835181548386015194860151606087015173ffffffffffffffffffffffffffffffffffffffff166601000000000000027fffffffffffff0000000000000000000000000000000000000000ffffffffffff61ffff92831664010000000002167fffffffffffff00000000000000000000000000000000000000000000ffffffff97831662010000027fffffffffffffffffffffffffffffffffffffffffffffffffffffffff000000009094169290941691909117919091179490941617929092178255608083015180518493926111c0926001850192910190613e7d565b73ffffffffffffffffffffffffffffffffffffffff868116600090815260346020908152604091829020600401548251808401909352600283527f31310000000000000000000000000000000000000000000000000000000000009183019190915290911633146130f8576040517f08c379a0000000000000000000000000000000000000000000000000000000008152600401610e759190614c7f565b5073__$75e37c6e9a3489198ff8ecd47d4f08a1ec$__6311d3dd8d60346036603760356040518061012001604052808d73ffffffffffffffffffffffffffffffffffffffff1681526020018c73ffffffffffffffffffffffffffffffffffffffff1681526020018b73ffffffffffffffffffffffffffffffffffffffff1681526020018a8152602001898152602001888152602001603b60089054906101000a900461ffff1661ffff1681526020017f000000000000000000000000000000000000000000000000000000000000000073ffffffffffffffffffffffffffffffffffffffff1663fca513a86040518163ffffffff1660e01b815260040160206040518083038186803b15801561320d57600080fd5b505afa158015613221573d6000803e3d6000fd5b505050506040513d601f19601f820116820180604052508101906132459190614b81565b73ffffffffffffffffffffffffffffffffffffffff90811682528d166000908152603860209081526040918290205460ff16920191909152517fffffffff0000000000000000000000000000000000000000000000000000000060e088901b1681526132b8959493929190600401615413565b60006040518083038186803b1580156132d057600080fd5b505af41580156132e4573d6000803e3d6000fd5b50505050505050505050565b6132f86138b3565b73ffffffffffffffffffffffffffffffffffffffff83166000818152603460205260409081902060395491517f8e743248000000000000000000000000000000000000000000000000000000008152600481019190915260248101929092526044820184905260648201839052608482015273__$6ba0b0a1c960fb953afba58db43f937d61$__90638e7432489060a401612d4f565b600073__$8ba59350e81ff9c26b87a1ef1ff463a6d5$__638c121d5f60346036603560003373ffffffffffffffffffffffffffffffffffffffff1673ffffffffffffffffffffffffffffffffffffffff1681526020019081526020016000206040518060a001604052808a73ffffffffffffffffffffffffffffffffffffffff16815260200189815260200188600281111561342c5761342c614d1d565b600281111561343d5761343d614d1d565b81523360208201526001604091820152517fffffffff0000000000000000000000000000000000000000000000000000000060e087901b168152611c339493929190600401614d87565b61348f6136e6565b6040517f1e3b41450000000000000000000000000000000000000000000000000000000081526034600482015273ffffffffffffffffffffffffffffffffffffffff8216602482015273__$10795bc931ed5f2408f2d927e510a5ac4c$__90631e3b414590604401611194565b6040517fd505accf000000000000000000000000000000000000000000000000000000008152336004820152306024820152604481018890526064810185905260ff8416608482015260a4810183905260c4810182905260009073ffffffffffffffffffffffffffffffffffffffff8a169063d505accf9060e401600060405180830381600087803b15801561359157600080fd5b505af11580156135a5573d6000803e3d6000fd5b5050505060006040518060a001604052808b73ffffffffffffffffffffffffffffffffffffffff1681526020018a81526020018960028111156135ea576135ea614d1d565b60028111156135fb576135fb614d1d565b815273ffffffffffffffffffffffffffffffffffffffff89166020808301829052600060409384018190529182526035905281902090517f8c121d5f00000000000000000000000000000000000000000000000000000000815291925073__$8ba59350e81ff9c26b87a1ef1ff463a6d5$__91638c121d5f91613688916034916036918790600401614d87565b60206040518083038186803b1580156136a057600080fd5b505af41580156136b4573d6000803e3d6000fd5b505050506040513d601f19601f820116820180604052508101906136d89190614dfa565b9a9950505050505050505050565b3373ffffffffffffffffffffffffffffffffffffffff167f000000000000000000000000000000000000000000000000000000000000000073ffffffffffffffffffffffffffffffffffffffff1663631adfca6040518163ffffffff1660e01b815260040160206040518083038186803b15801561376357600080fd5b505afa158015613777573d6000803e3d6000fd5b505050506040513d601f19601f8201168201806040525081019061379b9190614b81565b73ffffffffffffffffffffffffffffffffffffffff16146040518060400160405280600281526020017f313000000000000000000000000000000000000000000000000000000000000081525090613820576040517f08c379a0000000000000000000000000000000000000000000000000000000008152600401610e759190614c7f565b50565b6003810154600090700100000000000000000000000000000000900464ffffffffff1642811415613869575050600201546fffffffffffffffffffffffffffffffff1690565b6002830154611c86906fffffffffffffffffffffffffffffffff808216916138a7917001000000000000000000000000000000009091041684613c8d565b90613c9a565b50919050565b7f000000000000000000000000000000000000000000000000000000000000000073ffffffffffffffffffffffffffffffffffffffff1663707cd7166040518163ffffffff1660e01b815260040160206040518083038186803b15801561391957600080fd5b505afa15801561392d573d6000803e3d6000fd5b505050506040513d601f19601f820116820180604052508101906139519190614b81565b6040517f726600ce00000000000000000000000000000000000000000000000000000000815233600482015273ffffffffffffffffffffffffffffffffffffffff919091169063726600ce9060240160206040518083038186803b1580156139b857600080fd5b505afa1580156139cc573d6000803e3d6000fd5b505050506040513d601f19601f820116820180604052508101906139f09190614ef1565b6040518060400160405280600181526020017f360000000000000000000000000000000000000000000000000000000000000081525090613820576040517f08c379a0000000000000000000000000000000000000000000000000000000008152600401610e759190614c7f565b7f000000000000000000000000000000000000000000000000000000000000000073ffffffffffffffffffffffffffffffffffffffff1663707cd7166040518163ffffffff1660e01b815260040160206040518083038186803b158015613ac457600080fd5b505afa158015613ad8573d6000803e3d6000fd5b505050506040513d601f19601f82011682018060405250810190613afc9190614b81565b6040517f7be53ca100000000000000000000000000000000000000000000000000000000815233600482015273ffffffffffffffffffffffffffffffffffffffff9190911690637be53ca19060240160206040518083038186803b158015613b6357600080fd5b505afa158015613b77573d6000803e3d6000fd5b505050506040513d601f19601f82011682018060405250810190613b9b9190614ef1565b6040518060400160405280600181526020017f310000000000000000000000000000000000000000000000000000000000000081525090613820576040517f08c379a0000000000000000000000000000000000000000000000000000000008152600401610e759190614c7f565b6003810154600090700100000000000000000000000000000000900464ffffffffff1642811415613c4f575050600101546fffffffffffffffffffffffffffffffff1690565b6001830154611c86906fffffffffffffffffffffffffffffffff808216916138a7917001000000000000000000000000000000009091041684613cf1565b6000611c86838342613d36565b600081157ffffffffffffffffffffffffffffffffffffffffffe6268e1b017bfe18bffffff83900484111517613ccf57600080fd5b506b033b2e3c9fd0803ce800000091026b019d971e4fe8401e74000000010490565b600080613d0564ffffffffff841642615394565b613d0f90856154ef565b6301e1338090049050613d2e816b033b2e3c9fd0803ce800000061555b565b949350505050565b600080613d4a64ffffffffff851684615394565b905080613d66576b033b2e3c9fd0803ce8000000915050611c86565b7fffffffffffffffffffffffffffffffffffffffffffffffffffffffffffffffff81016000808060028511613d9c576000613da1565b600285035b925066038882915c4000613db58a80613c9a565b81613dc257613dc261552c565b0491506301e13380613dd4838b613c9a565b81613de157613de161552c565b049050600082613df186886154ef565b613dfb91906154ef565b60029004905060008285613e0f888a6154ef565b613e1991906154ef565b613e2391906154ef565b60069004905080826301e13380613e3a8a8f6154ef565b613e449190615573565b613e5a906b033b2e3c9fd0803ce800000061555b565b613e64919061555b565b613e6e919061555b565b9b9a5050505050505050505050565b828054613e8990614e13565b90600052602060002090601f016020900481019282613eab5760008555613ef1565b82601f10613ec457805160ff1916838001178555613ef1565b82800160010185558215613ef1579182015b82811115613ef1578251825591602001919060010190613ed6565b50613efd929150613f01565b5090565b5b80821115613efd5760008155600101613f02565b73ffffffffffffffffffffffffffffffffffffffff8116811461382057600080fd5b8035613f4381613f16565b919050565b801515811461382057600080fd5b600080600080600060a08688031215613f6e57600080fd5b8535613f7981613f16565b94506020860135613f8981613f16565b93506040860135613f9981613f16565b9250606086013591506080860135613fb081613f48565b809150509295509295909350565b803561ffff81168114613f4357600080fd5b803560ff81168114613f4357600080fd5b600080600080600080600080610100898b031215613ffe57600080fd5b883561400981613f16565b975060208901359650604089013561402081613f16565b955061402e60608a01613fbe565b94506080890135935061404360a08a01613fd0565b925060c0890135915060e089013590509295985092959890939650565b60006020828403121561407257600080fd5b8135611c8681613f16565b6000806040838503121561409057600080fd5b823561409b81613f16565b915060208301356140ab81613f16565b809150509250929050565b6000602082840312156140c857600080fd5b611c8682613fd0565b6000602082840312156140e357600080fd5b5035919050565b60008082840360408112156140fe57600080fd5b833561410981613f16565b925060207fffffffffffffffffffffffffffffffffffffffffffffffffffffffffffffffe08201121561413b57600080fd5b506020830190509250929050565b81515181526101e08101602083015161417660208401826fffffffffffffffffffffffffffffffff169052565b50604083015161419a60408401826fffffffffffffffffffffffffffffffff169052565b5060608301516141be60608401826fffffffffffffffffffffffffffffffff169052565b5060808301516141e260808401826fffffffffffffffffffffffffffffffff169052565b5060a083015161420660a08401826fffffffffffffffffffffffffffffffff169052565b5060c083015161421f60c084018264ffffffffff169052565b5060e083015161423560e084018261ffff169052565b506101008381015173ffffffffffffffffffffffffffffffffffffffff9081169184019190915261012080850151821690840152610140808501518216908401526101608085015190911690830152610180808401516fffffffffffffffffffffffffffffffff908116918401919091526101a0808501518216908401526101c09384015116929091019190915290565b60008083601f8401126142d857600080fd5b50813567ffffffffffffffff8111156142f057600080fd5b60208301915083602082850101111561430857600080fd5b9250929050565b60008060008060008060a0878903121561432857600080fd5b863561433381613f16565b9550602087013561434381613f16565b945060408701359350606087013567ffffffffffffffff81111561436657600080fd5b61437289828a016142c6565b9094509250614385905060808801613fbe565b90509295509295509295565b6000602082840312156143a357600080fd5b611c8682613fbe565b600080600080608085870312156143c257600080fd5b84356143cd81613f16565b9350602085013592506040850135915060608501356143eb81613f16565b939692955090935050565b6000806040838503121561440957600080fd5b823561441481613f16565b915060208301356140ab81613f48565b6000806000806080858703121561443a57600080fd5b843561444581613f16565b935060208501359250604085013561445c81613f16565b915061446a60608601613fbe565b905092959194509250565b60008060006060848603121561448a57600080fd5b833561449581613f16565b92506020840135915060408401356144ac81613f16565b809150509250925092565b6000815180845260005b818110156144dd576020818501810151868301820152016144c1565b818111156144ef576000602083870101525b50601f017fffffffffffffffffffffffffffffffffffffffffffffffffffffffffffffffe0169290920160200192915050565b60208152600061ffff8084511660208401528060208501511660408401528060408501511660608401525073ffffffffffffffffffffffffffffffffffffffff6060840151166080830152608083015160a080840152613d2e60c08401826144b7565b600080600080600060a0868803121561459d57600080fd5b85356145a881613f16565b945060208601356145b881613f16565b935060408601356145c881613f16565b925060608601356145d881613f16565b91506080860135613fb081613f16565b600080604083850312156145fb57600080fd5b823561460681613f16565b946020939093013593505050565b60008083601f84011261462657600080fd5b50813567ffffffffffffffff81111561463e57600080fd5b6020830191508360208260051b850101111561430857600080fd5b6000806020838503121561466c57600080fd5b823567ffffffffffffffff81111561468357600080fd5b61468f85828601614614565b90969095509350505050565b600080600080600060a086880312156146b357600080fd5b85356146be81613f16565b945060208601359350604086013592506145d860608701613fbe565b600080600080600080600080600080600060e08c8e0312156146fb57600080fd5b6147048c613f38565b9a5067ffffffffffffffff8060208e0135111561472057600080fd5b6147308e60208f01358f01614614565b909b50995060408d013581101561474657600080fd5b6147568e60408f01358f01614614565b909950975060608d013581101561476c57600080fd5b61477c8e60608f01358f01614614565b909750955061478d60808e01613f38565b94508060a08e013511156147a057600080fd5b506147b18d60a08e01358e016142c6565b90935091506147c260c08d01613fbe565b90509295989b509295989b9093969950565b80356fffffffffffffffffffffffffffffffff81168114613f4357600080fd5b6000806040838503121561480757600080fd5b614810836147d4565b915061481e602084016147d4565b90509250929050565b60008060006060848603121561483c57600080fd5b833561484781613f16565b9250602084013561485781613f16565b929592945050506040919091013590565b6020808252825182820181905260009190848201906040850190845b818110156148b657835173ffffffffffffffffffffffffffffffffffffffff1683529284019291840191600101614884565b50909695505050505050565b7f4e487b7100000000000000000000000000000000000000000000000000000000600052604160045260246000fd5b60405160a0810167ffffffffffffffff81118282101715614914576149146148c2565b60405290565b604051601f82017fffffffffffffffffffffffffffffffffffffffffffffffffffffffffffffffe016810167ffffffffffffffff81118282101715614961576149616148c2565b604052919050565b6000806040838503121561497c57600080fd5b61498583613fd0565b915060208084013567ffffffffffffffff808211156149a357600080fd5b9085019060a082880312156149b757600080fd5b6149bf6148f1565b6149c883613fbe565b81526149d5848401613fbe565b848201526149e560408401613fbe565b604082015260608301356149f881613f16565b6060820152608083013582811115614a0f57600080fd5b80840193505087601f840112614a2457600080fd5b823582811115614a3657614a366148c2565b614a66857fffffffffffffffffffffffffffffffffffffffffffffffffffffffffffffffe0601f8401160161491a565b92508083528885828601011115614a7c57600080fd5b8085850186850137600085828501015250816080820152809450505050509250929050565b60008060008060008060c08789031215614aba57600080fd5b8635614ac581613f16565b95506020870135614ad581613f16565b94506040870135614ae581613f16565b959894975094956060810135955060808101359460a0909101359350915050565b600080600060608486031215614b1b57600080fd5b8335614b2681613f16565b95602085013595506040909401359392505050565b600080600080600080600080610100898b031215614b5857600080fd5b8835614b6381613f16565b97506020890135965060408901359550606089013561402e81613f16565b600060208284031215614b9357600080fd5b8151611c8681613f16565b60006101a08201905086825285602083015284604083015283606083015282516080830152602083015160a0830152604083015173ffffffffffffffffffffffffffffffffffffffff80821660c08501528060608601511660e085015250506080830151610100614c268185018373ffffffffffffffffffffffffffffffffffffffff169052565b60a0850151151561012085015260c085015173ffffffffffffffffffffffffffffffffffffffff90811661014086015260e086015160ff166101608601529085015190811661018085015290505b509695505050505050565b602081526000611c8660208301846144b7565b82815260406020820152600073ffffffffffffffffffffffffffffffffffffffff8084511660408401528060208501511660608401525060408301516080830152606083015160e060a0840152614ced6101208401826144b7565b905061ffff60808501511660c084015260a084015160e084015260c0840151610100840152809150509392505050565b7f4e487b7100000000000000000000000000000000000000000000000000000000600052602160045260246000fd5b60038110614d83577f4e487b7100000000000000000000000000000000000000000000000000000000600052602160045260246000fd5b9052565b60006101008201905085825284602083015283604083015273ffffffffffffffffffffffffffffffffffffffff808451166060840152602084015160808401526040840151614dd960a0850182614d4c565b5060608401511660c0830152608090920151151560e0909101529392505050565b600060208284031215614e0c57600080fd5b5051919050565b600181811c90821680614e2757607f821691505b602082108114156138ad577f4e487b7100000000000000000000000000000000000000000000000000000000600052602260045260246000fd5b60006101208201905084825283602083015273ffffffffffffffffffffffffffffffffffffffff8084511660408401528060208501511660608401528060408501511660808401528060608501511660a08401528060808501511660c08401525060a0830151614ed760e084018261ffff169052565b5060c083015161ffff811661010084015250949350505050565b600060208284031215614f0357600080fd5b8151611c8681613f48565b7f4e487b7100000000000000000000000000000000000000000000000000000000600052601160045260246000fd5b600061ffff80831681811415614f5557614f55614f0e565b6001019392505050565b8481526020810184905273ffffffffffffffffffffffffffffffffffffffff831660408201526080810161169d6060830184614d4c565b83815260406020808301829052908201839052600090849060608401835b86811015614fef578335614fc781613f16565b73ffffffffffffffffffffffffffffffffffffffff1682529282019290820190600101614fb4565b50979650505050505050565b858152602081018590526040810184905260608101839052815173ffffffffffffffffffffffffffffffffffffffff1660808201526102008101602083015173ffffffffffffffffffffffffffffffffffffffff811660a084015250604083015173ffffffffffffffffffffffffffffffffffffffff811660c084015250606083015160e0830152608083015161010061509781850183614d4c565b60a085015191506101206150b08186018461ffff169052565b60c086015192506101406150c78187018515159052565b60e087015161016087810191909152928701516101808701529086015173ffffffffffffffffffffffffffffffffffffffff9081166101a08701529086015160ff166101c0860152908501519081166101e08501529050614c74565b600081518084526020808501945080840160005b8381101561516957815173ffffffffffffffffffffffffffffffffffffffff1687529582019590820190600101615137565b509495945050505050565b600081518084526020808501945080840160005b8381101561516957815187529582019590820190600101615188565b85815284602082015283604082015282606082015260a060808201526151e360a08201835173ffffffffffffffffffffffffffffffffffffffff169052565b600060208301516101c08060c0850152615201610260850183615123565b915060408501517fffffffffffffffffffffffffffffffffffffffffffffffffffffffffffffff60808685030160e087015261523d8483615174565b93506060870151915061010081878603018188015261525c8584615174565b9450608088015192506101206152898189018573ffffffffffffffffffffffffffffffffffffffff169052565b60a089015193506101408389880301818a01526152a687866144b7565b965060c08a0151945061016093506152c3848a018661ffff169052565b60e08a0151945061018085818b0152838b015195506101a0935085848b0152828b0151878b0152818b01516101e08b0152848b0151965061531d6102008b018873ffffffffffffffffffffffffffffffffffffffff169052565b8a015160ff81166102208b01529550615334915050565b8701518015156102408801529250614fef915050565b60008060008060008060c0878903121561536357600080fd5b865195506020870151945060408701519350606087015192506080870151915060a087015190509295509295509295565b6000828210156153a6576153a6614f0e565b500390565b7f4e487b7100000000000000000000000000000000000000000000000000000000600052603260045260246000fd5b60007fffffffffffffffffffffffffffffffffffffffffffffffffffffffffffffffff82141561540c5761540c614f0e565b5060010190565b60006101a08201905086825285602083015284604083015283606083015273ffffffffffffffffffffffffffffffffffffffff8084511660808401528060208501511660a084015250604083015161548360c084018273ffffffffffffffffffffffffffffffffffffffff169052565b50606083015160e08301526080830151610100818185015260a085015161012085015260c085015161014085015260e085015191506154db61016085018373ffffffffffffffffffffffffffffffffffffffff169052565b84015160ff81166101808501529050614c74565b6000817fffffffffffffffffffffffffffffffffffffffffffffffffffffffffffffffff048311821515161561552757615527614f0e565b500290565b7f4e487b7100000000000000000000000000000000000000000000000000000000600052601260045260246000fd5b6000821982111561556e5761556e614f0e565b500190565b6000826155a9577f4e487b7100000000000000000000000000000000000000000000000000000000600052601260045260246000fd5b50049056fea2646970667358221220e29f74c1c23406446e392ea235c7589b848c421b72b3a98746e34f94cdd10e5364736f6c63430008090033",
  "linkReferences": {
    "contracts/protocol/libs/logic/BorrowLogic.sol": {
      "BorrowLogic": [
        {
          "length": 20,
          "start": 5692
        },
        {
          "length": 20,
          "start": 8510
        },
        {
          "length": 20,
          "start": 8673
        },
        {
          "length": 20,
          "start": 11694
        },
        {
          "length": 20,
          "start": 13452
        },
        {
          "length": 20,
          "start": 14164
        }
      ]
    },
    "contracts/protocol/libs/logic/BridgeLogic.sol": {
      "BridgeLogic": [
        {
          "length": 20,
          "start": 7698
        },
        {
          "length": 20,
          "start": 13414
        }
      ]
    },
    "contracts/protocol/libs/logic/EModeLogic.sol": {
      "EModeLogic": [
        {
          "length": 20,
          "start": 4309
        }
      ]
    },
    "contracts/protocol/libs/logic/FlashLoanLogic.sol": {
      "FlashLoanLogic": [
        {
          "length": 20,
          "start": 5591
        },
        {
          "length": 20,
          "start": 10314
        }
      ]
    },
    "contracts/protocol/libs/logic/LiquidationLogic.sol": {
      "LiquidationLogic": [
        {
          "length": 20,
          "start": 2718
        }
      ]
    },
    "contracts/protocol/libs/logic/PoolLogic.sol": {
      "PoolLogic": [
        {
          "length": 20,
          "start": 6881
        },
        {
          "length": 20,
          "start": 8056
        },
        {
          "length": 20,
          "start": 8626
        },
        {
          "length": 20,
          "start": 10623
        },
        {
          "length": 20,
          "start": 11819
        },
        {
          "length": 20,
          "start": 13780
        }
      ]
    },
    "contracts/protocol/libs/logic/SupplyLogic.sol": {
      "SupplyLogic": [
        {
          "length": 20,
          "start": 3726
        },
        {
          "length": 20,
          "start": 6050
        },
        {
          "length": 20,
          "start": 6707
        },
        {
          "length": 20,
          "start": 6919
        },
        {
          "length": 20,
          "start": 12789
        }
      ]
    }
  },
  "deployedLinkReferences": {
    "contracts/protocol/libs/logic/BorrowLogic.sol": {
      "BorrowLogic": [
        {
          "length": 20,
          "start": 5442
        },
        {
          "length": 20,
          "start": 8260
        },
        {
          "length": 20,
          "start": 8423
        },
        {
          "length": 20,
          "start": 11444
        },
        {
          "length": 20,
          "start": 13202
        },
        {
          "length": 20,
          "start": 13914
        }
      ]
    },
    "contracts/protocol/libs/logic/BridgeLogic.sol": {
      "BridgeLogic": [
        {
          "length": 20,
          "start": 7448
        },
        {
          "length": 20,
          "start": 13164
        }
      ]
    },
    "contracts/protocol/libs/logic/EModeLogic.sol": {
      "EModeLogic": [
        {
          "length": 20,
          "start": 4059
        }
      ]
    },
    "contracts/protocol/libs/logic/FlashLoanLogic.sol": {
      "FlashLoanLogic": [
        {
          "length": 20,
          "start": 5341
        },
        {
          "length": 20,
          "start": 10064
        }
      ]
    },
    "contracts/protocol/libs/logic/LiquidationLogic.sol": {
      "LiquidationLogic": [
        {
          "length": 20,
          "start": 2468
        }
      ]
    },
    "contracts/protocol/libs/logic/PoolLogic.sol": {
      "PoolLogic": [
        {
          "length": 20,
          "start": 6631
        },
        {
          "length": 20,
          "start": 7806
        },
        {
          "length": 20,
          "start": 8376
        },
        {
          "length": 20,
          "start": 10373
        },
        {
          "length": 20,
          "start": 11569
        },
        {
          "length": 20,
          "start": 13530
        }
      ]
    },
    "contracts/protocol/libs/logic/SupplyLogic.sol": {
      "SupplyLogic": [
        {
          "length": 20,
          "start": 3476
        },
        {
          "length": 20,
          "start": 5800
        },
        {
          "length": 20,
          "start": 6457
        },
        {
          "length": 20,
          "start": 6669
        },
        {
          "length": 20,
          "start": 12539
        }
      ]
    }
  }
}