{
  "_format": "hh-sol-artifact-1",
  "contractName": "PoolAddressesProviderRegistry",
  "sourceName": "contracts/protocol/config/PoolAddressesProviderRegistry.sol",
  "abi": [
    {
      "inputs": [
        {
          "internalType": "address",
          "name": "owner",
          "type": "address"
        }
      ],
      "stateMutability": "nonpayable",
      "type": "constructor"
    },
    {
      "anonymous": false,
      "inputs": [
        {
          "indexed": true,
          "internalType": "address",
          "name": "addressesProvider",
          "type": "address"
        },
        {
          "indexed": true,
          "internalType": "uint256",
          "name": "id",
          "type": "uint256"
        }
      ],
      "name": "AddressesProviderRegistered",
      "type": "event"
    },
    {
      "anonymous": false,
      "inputs": [
        {
          "indexed": true,
          "internalType": "address",
          "name": "addressesProvider",
          "type": "address"
        },
        {
          "indexed": true,
          "internalType": "uint256",
          "name": "id",
          "type": "uint256"
        }
      ],
      "name": "AddressesProviderUnregistered",
      "type": "event"
    },
    {
      "anonymous": false,
      "inputs": [
        {
          "indexed": true,
          "internalType": "address",
          "name": "previousOwner",
          "type": "address"
        },
        {
          "indexed": true,
          "internalType": "address",
          "name": "newOwner",
          "type": "address"
        }
      ],
      "name": "OwnershipTransferred",
      "type": "event"
    },
    {
      "inputs": [
        {
          "internalType": "uint256",
          "name": "id",
          "type": "uint256"
        }
      ],
      "name": "getAddressesProviderAddressById",
      "outputs": [
        {
          "internalType": "address",
          "name": "",
          "type": "address"
        }
      ],
      "stateMutability": "view",
      "type": "function"
    },
    {
      "inputs": [
        {
          "internalType": "address",
          "name": "addressesProvider",
          "type": "address"
        }
      ],
      "name": "getAddressesProviderIdByAddress",
      "outputs": [
        {
          "internalType": "uint256",
          "name": "",
          "type": "uint256"
        }
      ],
      "stateMutability": "view",
      "type": "function"
    },
    {
      "inputs": [],
      "name": "getAddressesProvidersList",
      "outputs": [
        {
          "internalType": "address[]",
          "name": "",
          "type": "address[]"
        }
      ],
      "stateMutability": "view",
      "type": "function"
    },
    {
      "inputs": [],
      "name": "owner",
      "outputs": [
        {
          "internalType": "address",
          "name": "",
          "type": "address"
        }
      ],
      "stateMutability": "view",
      "type": "function"
    },
    {
      "inputs": [
        {
          "internalType": "address",
          "name": "provider",
          "type": "address"
        },
        {
          "internalType": "uint256",
          "name": "id",
          "type": "uint256"
        }
      ],
      "name": "registerAddressesProvider",
      "outputs": [],
      "stateMutability": "nonpayable",
      "type": "function"
    },
    {
      "inputs": [],
      "name": "renounceOwnership",
      "outputs": [],
      "stateMutability": "nonpayable",
      "type": "function"
    },
    {
      "inputs": [
        {
          "internalType": "address",
          "name": "newOwner",
          "type": "address"
        }
      ],
      "name": "transferOwnership",
      "outputs": [],
      "stateMutability": "nonpayable",
      "type": "function"
    },
    {
      "inputs": [
        {
          "internalType": "address",
          "name": "provider",
          "type": "address"
        }
      ],
      "name": "unregisterAddressesProvider",
      "outputs": [],
      "stateMutability": "nonpayable",
      "type": "function"
    }
  ],
  "bytecode": "0x608060405234801561001057600080fd5b50604051610e3d380380610e3d83398101604081905261002f91610167565b61003833610047565b61004181610097565b50610197565b600080546001600160a01b038381166001600160a01b0319831681178455604051919092169283917f8be0079c531659141344cd1fd0a4f28419497f9722a3daafe3b4186f6b6457e09190a35050565b6000546001600160a01b031633146100f65760405162461bcd60e51b815260206004820181905260248201527f4f776e61626c653a2063616c6c6572206973206e6f7420746865206f776e657260448201526064015b60405180910390fd5b6001600160a01b03811661015b5760405162461bcd60e51b815260206004820152602660248201527f4f776e61626c653a206e6577206f776e657220697320746865207a65726f206160448201526564647265737360d01b60648201526084016100ed565b61016481610047565b50565b60006020828403121561017957600080fd5b81516001600160a01b038116811461019057600080fd5b9392505050565b610c97806101a66000396000f3fe608060405234801561001057600080fd5b50600436106100885760003560e01c80638da5cb5b1161005b5780638da5cb5b14610123578063d0267be714610141578063d258191e14610185578063f2fde38b1461019857600080fd5b80630de267071461008d578063365ccbbf146100a257806357dc0566146100c0578063715018a61461011b575b600080fd5b6100a061009b366004610a93565b6101ab565b005b6100aa610375565b6040516100b79190610ab5565b60405180910390f35b6100f66100ce366004610b0f565b60009081526002602052604090205473ffffffffffffffffffffffffffffffffffffffff1690565b60405173ffffffffffffffffffffffffffffffffffffffff90911681526020016100b7565b6100a06103e4565b60005473ffffffffffffffffffffffffffffffffffffffff166100f6565b61017761014f366004610a93565b73ffffffffffffffffffffffffffffffffffffffff1660009081526001602052604090205490565b6040519081526020016100b7565b6100a0610193366004610b28565b610471565b6100a06101a6366004610a93565b61075f565b60005473ffffffffffffffffffffffffffffffffffffffff163314610231576040517f08c379a000000000000000000000000000000000000000000000000000000000815260206004820181905260248201527f4f776e61626c653a2063616c6c6572206973206e6f7420746865206f776e657260448201526064015b60405180910390fd5b73ffffffffffffffffffffffffffffffffffffffff81166000908152600160208181526040928390205483518085019094529183527f3700000000000000000000000000000000000000000000000000000000000000908301526102c2576040517f08c379a00000000000000000000000000000000000000000000000000000000081526004016102289190610b52565b5073ffffffffffffffffffffffffffffffffffffffff8116600081815260016020818152604080842080548086526002845291852080547fffffffffffffffffffffffff0000000000000000000000000000000000000000169055948452919052915561032e8261088f565b604051819073ffffffffffffffffffffffffffffffffffffffff8416907f254723080701bde71d562cad0e967cef23d86bb27ee842c190a2596820f3b24190600090a35050565b606060038054806020026020016040519081016040528092919081815260200182805480156103da57602002820191906000526020600020905b815473ffffffffffffffffffffffffffffffffffffffff1681526001909101906020018083116103af575b5050505050905090565b60005473ffffffffffffffffffffffffffffffffffffffff163314610465576040517f08c379a000000000000000000000000000000000000000000000000000000000815260206004820181905260248201527f4f776e61626c653a2063616c6c6572206973206e6f7420746865206f776e65726044820152606401610228565b61046f60006109f5565b565b60005473ffffffffffffffffffffffffffffffffffffffff1633146104f2576040517f08c379a000000000000000000000000000000000000000000000000000000000815260206004820181905260248201527f4f776e61626c653a2063616c6c6572206973206e6f7420746865206f776e65726044820152606401610228565b60408051808201909152600181527f380000000000000000000000000000000000000000000000000000000000000060208201528161055e576040517f08c379a00000000000000000000000000000000000000000000000000000000081526004016102289190610b52565b50600081815260026020908152604091829020548251808401909352600183527f38000000000000000000000000000000000000000000000000000000000000009183019190915273ffffffffffffffffffffffffffffffffffffffff16156105f4576040517f08c379a00000000000000000000000000000000000000000000000000000000081526004016102289190610b52565b5073ffffffffffffffffffffffffffffffffffffffff8216600090815260016020908152604091829020548251808401909352600283527f3836000000000000000000000000000000000000000000000000000000000000918301919091521561068b576040517f08c379a00000000000000000000000000000000000000000000000000000000081526004016102289190610b52565b5073ffffffffffffffffffffffffffffffffffffffff821660008181526001602081815260408084208690558584526002825280842080547fffffffffffffffffffffffff0000000000000000000000000000000000000000908116871790915560038054878752600490945282862084905593830184559284527fc2575a0e9e593c00f959f8c92f12db2869c3395a3b0502d05e2516446f71f85b90910180549092168417909155518392917fc2e7cc813550ef0e7126cc0571281850ce5df2e9c400acf3589c38e4627f85f191a35050565b60005473ffffffffffffffffffffffffffffffffffffffff1633146107e0576040517f08c379a000000000000000000000000000000000000000000000000000000000815260206004820181905260248201527f4f776e61626c653a2063616c6c6572206973206e6f7420746865206f776e65726044820152606401610228565b73ffffffffffffffffffffffffffffffffffffffff8116610883576040517f08c379a000000000000000000000000000000000000000000000000000000000815260206004820152602660248201527f4f776e61626c653a206e6577206f776e657220697320746865207a65726f206160448201527f64647265737300000000000000000000000000000000000000000000000000006064820152608401610228565b61088c816109f5565b50565b73ffffffffffffffffffffffffffffffffffffffff811660009081526004602052604081208054908290556003549091906108cc90600190610bc5565b905080821015610987576000600382815481106108eb576108eb610c03565b6000918252602090912001546003805473ffffffffffffffffffffffffffffffffffffffff909216925082918590811061092757610927610c03565b600091825260208083209190910180547fffffffffffffffffffffffff00000000000000000000000000000000000000001673ffffffffffffffffffffffffffffffffffffffff9485161790559290911681526004909152604090208290555b600380548061099857610998610c32565b60008281526020902081017fffffffffffffffffffffffffffffffffffffffffffffffffffffffffffffffff90810180547fffffffffffffffffffffffff0000000000000000000000000000000000000000169055019055505050565b6000805473ffffffffffffffffffffffffffffffffffffffff8381167fffffffffffffffffffffffff0000000000000000000000000000000000000000831681178455604051919092169283917f8be0079c531659141344cd1fd0a4f28419497f9722a3daafe3b4186f6b6457e09190a35050565b803573ffffffffffffffffffffffffffffffffffffffff81168114610a8e57600080fd5b919050565b600060208284031215610aa557600080fd5b610aae82610a6a565b9392505050565b6020808252825182820181905260009190848201906040850190845b81811015610b0357835173ffffffffffffffffffffffffffffffffffffffff1683529284019291840191600101610ad1565b50909695505050505050565b600060208284031215610b2157600080fd5b5035919050565b60008060408385031215610b3b57600080fd5b610b4483610a6a565b946020939093013593505050565b600060208083528351808285015260005b81811015610b7f57858101830151858201604001528201610b63565b81811115610b91576000604083870101525b50601f017fffffffffffffffffffffffffffffffffffffffffffffffffffffffffffffffe016929092016040019392505050565b600082821015610bfe577f4e487b7100000000000000000000000000000000000000000000000000000000600052601160045260246000fd5b500390565b7f4e487b7100000000000000000000000000000000000000000000000000000000600052603260045260246000fd5b7f4e487b7100000000000000000000000000000000000000000000000000000000600052603160045260246000fdfea26469706673582212203afa44541e73fe4808eab5d3b06261ceb03d6cc4975767bb7d66b278c98df89c64736f6c63430008090033",
  "linkReferences": {},
  "deployedLinkReferences": {}
}