{
  "_format": "hh-sol-artifact-1",
  "contractName": "PoolConfigurator",
  "sourceName": "contracts/protocol/pool/PoolConfigurator.sol",
  "abi": [
    {
      "anonymous": false,
      "inputs": [
        {
          "indexed": true,
          "internalType": "address",
          "name": "asset",
          "type": "address"
        },
        {
          "indexed": false,
          "internalType": "uint256",
          "name": "oldBorrowCap",
          "type": "uint256"
        },
        {
          "indexed": false,
          "internalType": "uint256",
          "name": "newBorrowCap",
          "type": "uint256"
        }
      ],
      "name": "BorrowCapChanged",
      "type": "event"
    },
    {
      "anonymous": false,
      "inputs": [
        {
          "indexed": false,
          "internalType": "address",
          "name": "asset",
          "type": "address"
        },
        {
          "indexed": false,
          "internalType": "bool",
          "name": "borrowable",
          "type": "bool"
        }
      ],
      "name": "BorrowableInIsolationChanged",
      "type": "event"
    },
    {
      "anonymous": false,
      "inputs": [
        {
          "indexed": false,
          "internalType": "uint256",
          "name": "oldBridgeProtocolFee",
          "type": "uint256"
        },
        {
          "indexed": false,
          "internalType": "uint256",
          "name": "newBridgeProtocolFee",
          "type": "uint256"
        }
      ],
      "name": "BridgeProtocolFeeUpdated",
      "type": "event"
    },
    {
      "anonymous": false,
      "inputs": [
        {
          "indexed": true,
          "internalType": "address",
          "name": "asset",
          "type": "address"
        },
        {
          "indexed": false,
          "internalType": "uint256",
          "name": "ltv",
          "type": "uint256"
        },
        {
          "indexed": false,
          "internalType": "uint256",
          "name": "liquidationThreshold",
          "type": "uint256"
        },
        {
          "indexed": false,
          "internalType": "uint256",
          "name": "liquidationBonus",
          "type": "uint256"
        }
      ],
      "name": "CollateralConfigChanged",
      "type": "event"
    },
    {
      "anonymous": false,
      "inputs": [
        {
          "indexed": true,
          "internalType": "address",
          "name": "asset",
          "type": "address"
        },
        {
          "indexed": false,
          "internalType": "uint256",
          "name": "oldDebtCeiling",
          "type": "uint256"
        },
        {
          "indexed": false,
          "internalType": "uint256",
          "name": "newDebtCeiling",
          "type": "uint256"
        }
      ],
      "name": "DebtCeilingChanged",
      "type": "event"
    },
    {
      "anonymous": false,
      "inputs": [
        {
          "indexed": true,
          "internalType": "address",
          "name": "asset",
          "type": "address"
        },
        {
          "indexed": false,
          "internalType": "uint8",
          "name": "oldCategoryId",
          "type": "uint8"
        },
        {
          "indexed": false,
          "internalType": "uint8",
          "name": "newCategoryId",
          "type": "uint8"
        }
      ],
      "name": "EModeAssetCategoryChanged",
      "type": "event"
    },
    {
      "anonymous": false,
      "inputs": [
        {
          "indexed": true,
          "internalType": "uint8",
          "name": "categoryId",
          "type": "uint8"
        },
        {
          "indexed": false,
          "internalType": "uint256",
          "name": "ltv",
          "type": "uint256"
        },
        {
          "indexed": false,
          "internalType": "uint256",
          "name": "liquidationThreshold",
          "type": "uint256"
        },
        {
          "indexed": false,
          "internalType": "uint256",
          "name": "liquidationBonus",
          "type": "uint256"
        },
        {
          "indexed": false,
          "internalType": "address",
          "name": "oracle",
          "type": "address"
        },
        {
          "indexed": false,
          "internalType": "string",
          "name": "label",
          "type": "string"
        }
      ],
      "name": "EModeCategoryAdded",
      "type": "event"
    },
    {
      "anonymous": false,
      "inputs": [
        {
          "indexed": false,
          "internalType": "uint128",
          "name": "oldFlashloanPremiumToProtocol",
          "type": "uint128"
        },
        {
          "indexed": false,
          "internalType": "uint128",
          "name": "newFlashloanPremiumToProtocol",
          "type": "uint128"
        }
      ],
      "name": "FlashloanPremiumToProtocolUpdated",
      "type": "event"
    },
    {
      "anonymous": false,
      "inputs": [
        {
          "indexed": false,
          "internalType": "uint128",
          "name": "oldFlashloanPremiumTotal",
          "type": "uint128"
        },
        {
          "indexed": false,
          "internalType": "uint128",
          "name": "newFlashloanPremiumTotal",
          "type": "uint128"
        }
      ],
      "name": "FlashloanPremiumTotalUpdated",
      "type": "event"
    },
    {
      "anonymous": false,
      "inputs": [
        {
          "indexed": true,
          "internalType": "address",
          "name": "asset",
          "type": "address"
        },
        {
          "indexed": false,
          "internalType": "uint256",
          "name": "oldFee",
          "type": "uint256"
        },
        {
          "indexed": false,
          "internalType": "uint256",
          "name": "newFee",
          "type": "uint256"
        }
      ],
      "name": "LiquidationProtocolFeeChanged",
      "type": "event"
    },
    {
      "anonymous": false,
      "inputs": [
        {
          "indexed": true,
          "internalType": "address",
          "name": "asset",
          "type": "address"
        },
        {
          "indexed": true,
          "internalType": "address",
          "name": "proxy",
          "type": "address"
        },
        {
          "indexed": true,
          "internalType": "address",
          "name": "implementation",
          "type": "address"
        }
      ],
      "name": "MTokenUpgraded",
      "type": "event"
    },
    {
      "anonymous": false,
      "inputs": [
        {
          "indexed": true,
          "internalType": "address",
          "name": "asset",
          "type": "address"
        },
        {
          "indexed": false,
          "internalType": "bool",
          "name": "active",
          "type": "bool"
        }
      ],
      "name": "ReserveActive",
      "type": "event"
    },
    {
      "anonymous": false,
      "inputs": [
        {
          "indexed": true,
          "internalType": "address",
          "name": "asset",
          "type": "address"
        },
        {
          "indexed": false,
          "internalType": "bool",
          "name": "enabled",
          "type": "bool"
        }
      ],
      "name": "ReserveBorrowing",
      "type": "event"
    },
    {
      "anonymous": false,
      "inputs": [
        {
          "indexed": true,
          "internalType": "address",
          "name": "asset",
          "type": "address"
        }
      ],
      "name": "ReserveDropped",
      "type": "event"
    },
    {
      "anonymous": false,
      "inputs": [
        {
          "indexed": true,
          "internalType": "address",
          "name": "asset",
          "type": "address"
        },
        {
          "indexed": false,
          "internalType": "uint256",
          "name": "oldReserveFactor",
          "type": "uint256"
        },
        {
          "indexed": false,
          "internalType": "uint256",
          "name": "newReserveFactor",
          "type": "uint256"
        }
      ],
      "name": "ReserveFactorChanged",
      "type": "event"
    },
    {
      "anonymous": false,
      "inputs": [
        {
          "indexed": true,
          "internalType": "address",
          "name": "asset",
          "type": "address"
        },
        {
          "indexed": false,
          "internalType": "bool",
          "name": "frozen",
          "type": "bool"
        }
      ],
      "name": "ReserveFrozen",
      "type": "event"
    },
    {
      "anonymous": false,
      "inputs": [
        {
          "indexed": true,
          "internalType": "address",
          "name": "asset",
          "type": "address"
        },
        {
          "indexed": true,
          "internalType": "address",
          "name": "mToken",
          "type": "address"
        },
        {
          "indexed": false,
          "internalType": "address",
          "name": "stableDebtToken",
          "type": "address"
        },
        {
          "indexed": false,
          "internalType": "address",
          "name": "variableDebtToken",
          "type": "address"
        },
        {
          "indexed": false,
          "internalType": "address",
          "name": "interestRateStrategyAddress",
          "type": "address"
        }
      ],
      "name": "ReserveInitialized",
      "type": "event"
    },
    {
      "anonymous": false,
      "inputs": [
        {
          "indexed": true,
          "internalType": "address",
          "name": "asset",
          "type": "address"
        },
        {
          "indexed": false,
          "internalType": "address",
          "name": "oldStrategy",
          "type": "address"
        },
        {
          "indexed": false,
          "internalType": "address",
          "name": "newStrategy",
          "type": "address"
        }
      ],
      "name": "ReserveInterestRateStrategyChanged",
      "type": "event"
    },
    {
      "anonymous": false,
      "inputs": [
        {
          "indexed": true,
          "internalType": "address",
          "name": "asset",
          "type": "address"
        },
        {
          "indexed": false,
          "internalType": "bool",
          "name": "paused",
          "type": "bool"
        }
      ],
      "name": "ReservePaused",
      "type": "event"
    },
    {
      "anonymous": false,
      "inputs": [
        {
          "indexed": true,
          "internalType": "address",
          "name": "asset",
          "type": "address"
        },
        {
          "indexed": false,
          "internalType": "bool",
          "name": "enabled",
          "type": "bool"
        }
      ],
      "name": "ReserveStableRateBorrowing",
      "type": "event"
    },
    {
      "anonymous": false,
      "inputs": [
        {
          "indexed": true,
          "internalType": "address",
          "name": "asset",
          "type": "address"
        },
        {
          "indexed": false,
          "internalType": "bool",
          "name": "oldState",
          "type": "bool"
        },
        {
          "indexed": false,
          "internalType": "bool",
          "name": "newState",
          "type": "bool"
        }
      ],
      "name": "SiloedBorrowingChanged",
      "type": "event"
    },
    {
      "anonymous": false,
      "inputs": [
        {
          "indexed": true,
          "internalType": "address",
          "name": "asset",
          "type": "address"
        },
        {
          "indexed": true,
          "internalType": "address",
          "name": "proxy",
          "type": "address"
        },
        {
          "indexed": true,
          "internalType": "address",
          "name": "implementation",
          "type": "address"
        }
      ],
      "name": "StableDebtTokenUpgraded",
      "type": "event"
    },
    {
      "anonymous": false,
      "inputs": [
        {
          "indexed": true,
          "internalType": "address",
          "name": "asset",
          "type": "address"
        },
        {
          "indexed": false,
          "internalType": "uint256",
          "name": "oldSupplyCap",
          "type": "uint256"
        },
        {
          "indexed": false,
          "internalType": "uint256",
          "name": "newSupplyCap",
          "type": "uint256"
        }
      ],
      "name": "SupplyCapChanged",
      "type": "event"
    },
    {
      "anonymous": false,
      "inputs": [
        {
          "indexed": true,
          "internalType": "address",
          "name": "asset",
          "type": "address"
        },
        {
          "indexed": false,
          "internalType": "uint256",
          "name": "oldUnbackedMintCap",
          "type": "uint256"
        },
        {
          "indexed": false,
          "internalType": "uint256",
          "name": "newUnbackedMintCap",
          "type": "uint256"
        }
      ],
      "name": "UnbackedMintCapChanged",
      "type": "event"
    },
    {
      "anonymous": false,
      "inputs": [
        {
          "indexed": true,
          "internalType": "address",
          "name": "asset",
          "type": "address"
        },
        {
          "indexed": true,
          "internalType": "address",
          "name": "proxy",
          "type": "address"
        },
        {
          "indexed": true,
          "internalType": "address",
          "name": "implementation",
          "type": "address"
        }
      ],
      "name": "VariableDebtTokenUpgraded",
      "type": "event"
    },
    {
      "inputs": [],
      "name": "CONFIGURATOR_REVISION",
      "outputs": [
        {
          "internalType": "uint256",
          "name": "",
          "type": "uint256"
        }
      ],
      "stateMutability": "view",
      "type": "function"
    },
    {
      "inputs": [
        {
          "internalType": "address",
          "name": "asset",
          "type": "address"
        },
        {
          "internalType": "uint256",
          "name": "ltv",
          "type": "uint256"
        },
        {
          "internalType": "uint256",
          "name": "liquidationThreshold",
          "type": "uint256"
        },
        {
          "internalType": "uint256",
          "name": "liquidationBonus",
          "type": "uint256"
        }
      ],
      "name": "configureReserveAsCollateral",
      "outputs": [],
      "stateMutability": "nonpayable",
      "type": "function"
    },
    {
      "inputs": [
        {
          "internalType": "address",
          "name": "asset",
          "type": "address"
        }
      ],
      "name": "dropReserve",
      "outputs": [],
      "stateMutability": "nonpayable",
      "type": "function"
    },
    {
      "inputs": [
        {
          "components": [
            {
              "internalType": "address",
              "name": "mTokenImpl",
              "type": "address"
            },
            {
              "internalType": "address",
              "name": "stableDebtTokenImpl",
              "type": "address"
            },
            {
              "internalType": "address",
              "name": "variableDebtTokenImpl",
              "type": "address"
            },
            {
              "internalType": "uint8",
              "name": "underlyingAssetDecimals",
              "type": "uint8"
            },
            {
              "internalType": "address",
              "name": "interestRateStrategyAddress",
              "type": "address"
            },
            {
              "internalType": "address",
              "name": "underlyingAsset",
              "type": "address"
            },
            {
              "internalType": "address",
              "name": "treasury",
              "type": "address"
            },
            {
              "internalType": "address",
              "name": "incentivesController",
              "type": "address"
            },
            {
              "internalType": "string",
              "name": "mTokenName",
              "type": "string"
            },
            {
              "internalType": "string",
              "name": "mTokenSymbol",
              "type": "string"
            },
            {
              "internalType": "string",
              "name": "variableDebtTokenName",
              "type": "string"
            },
            {
              "internalType": "string",
              "name": "variableDebtTokenSymbol",
              "type": "string"
            },
            {
              "internalType": "string",
              "name": "stableDebtTokenName",
              "type": "string"
            },
            {
              "internalType": "string",
              "name": "stableDebtTokenSymbol",
              "type": "string"
            },
            {
              "internalType": "bytes",
              "name": "params",
              "type": "bytes"
            }
          ],
          "internalType": "struct ConfiguratorInputTypes.InitReserveInput[]",
          "name": "input",
          "type": "tuple[]"
        }
      ],
      "name": "initReserves",
      "outputs": [],
      "stateMutability": "nonpayable",
      "type": "function"
    },
    {
      "inputs": [
        {
          "internalType": "contract IPoolAddressesProvider",
          "name": "provider",
          "type": "address"
        }
      ],
      "name": "initialize",
      "outputs": [],
      "stateMutability": "nonpayable",
      "type": "function"
    },
    {
      "inputs": [
        {
          "internalType": "address",
          "name": "asset",
          "type": "address"
        },
        {
          "internalType": "uint8",
          "name": "newCategoryId",
          "type": "uint8"
        }
      ],
      "name": "setAssetEModeCategory",
      "outputs": [],
      "stateMutability": "nonpayable",
      "type": "function"
    },
    {
      "inputs": [
        {
          "internalType": "address",
          "name": "asset",
          "type": "address"
        },
        {
          "internalType": "uint256",
          "name": "newBorrowCap",
          "type": "uint256"
        }
      ],
      "name": "setBorrowCap",
      "outputs": [],
      "stateMutability": "nonpayable",
      "type": "function"
    },
    {
      "inputs": [
        {
          "internalType": "address",
          "name": "asset",
          "type": "address"
        },
        {
          "internalType": "bool",
          "name": "borrowable",
          "type": "bool"
        }
      ],
      "name": "setBorrowableInIsolation",
      "outputs": [],
      "stateMutability": "nonpayable",
      "type": "function"
    },
    {
      "inputs": [
        {
          "internalType": "address",
          "name": "asset",
          "type": "address"
        },
        {
          "internalType": "uint256",
          "name": "newDebtCeiling",
          "type": "uint256"
        }
      ],
      "name": "setDebtCeiling",
      "outputs": [],
      "stateMutability": "nonpayable",
      "type": "function"
    },
    {
      "inputs": [
        {
          "internalType": "uint8",
          "name": "categoryId",
          "type": "uint8"
        },
        {
          "internalType": "uint16",
          "name": "ltv",
          "type": "uint16"
        },
        {
          "internalType": "uint16",
          "name": "liquidationThreshold",
          "type": "uint16"
        },
        {
          "internalType": "uint16",
          "name": "liquidationBonus",
          "type": "uint16"
        },
        {
          "internalType": "address",
          "name": "oracle",
          "type": "address"
        },
        {
          "internalType": "string",
          "name": "label",
          "type": "string"
        }
      ],
      "name": "setEModeCategory",
      "outputs": [],
      "stateMutability": "nonpayable",
      "type": "function"
    },
    {
      "inputs": [
        {
          "internalType": "address",
          "name": "asset",
          "type": "address"
        },
        {
          "internalType": "uint256",
          "name": "newFee",
          "type": "uint256"
        }
      ],
      "name": "setLiquidationProtocolFee",
      "outputs": [],
      "stateMutability": "nonpayable",
      "type": "function"
    },
    {
      "inputs": [
        {
          "internalType": "bool",
          "name": "paused",
          "type": "bool"
        }
      ],
      "name": "setPoolPause",
      "outputs": [],
      "stateMutability": "nonpayable",
      "type": "function"
    },
    {
      "inputs": [
        {
          "internalType": "address",
          "name": "asset",
          "type": "address"
        },
        {
          "internalType": "bool",
          "name": "active",
          "type": "bool"
        }
      ],
      "name": "setReserveActive",
      "outputs": [],
      "stateMutability": "nonpayable",
      "type": "function"
    },
    {
      "inputs": [
        {
          "internalType": "address",
          "name": "asset",
          "type": "address"
        },
        {
          "internalType": "bool",
          "name": "enabled",
          "type": "bool"
        }
      ],
      "name": "setReserveBorrowing",
      "outputs": [],
      "stateMutability": "nonpayable",
      "type": "function"
    },
    {
      "inputs": [
        {
          "internalType": "address",
          "name": "asset",
          "type": "address"
        },
        {
          "internalType": "uint256",
          "name": "newReserveFactor",
          "type": "uint256"
        }
      ],
      "name": "setReserveFactor",
      "outputs": [],
      "stateMutability": "nonpayable",
      "type": "function"
    },
    {
      "inputs": [
        {
          "internalType": "address",
          "name": "asset",
          "type": "address"
        },
        {
          "internalType": "bool",
          "name": "freeze",
          "type": "bool"
        }
      ],
      "name": "setReserveFreeze",
      "outputs": [],
      "stateMutability": "nonpayable",
      "type": "function"
    },
    {
      "inputs": [
        {
          "internalType": "address",
          "name": "asset",
          "type": "address"
        },
        {
          "internalType": "address",
          "name": "newRateStrategyAddress",
          "type": "address"
        }
      ],
      "name": "setReserveInterestRateStrategyAddress",
      "outputs": [],
      "stateMutability": "nonpayable",
      "type": "function"
    },
    {
      "inputs": [
        {
          "internalType": "address",
          "name": "asset",
          "type": "address"
        },
        {
          "internalType": "bool",
          "name": "paused",
          "type": "bool"
        }
      ],
      "name": "setReservePause",
      "outputs": [],
      "stateMutability": "nonpayable",
      "type": "function"
    },
    {
      "inputs": [
        {
          "internalType": "address",
          "name": "asset",
          "type": "address"
        },
        {
          "internalType": "bool",
          "name": "enabled",
          "type": "bool"
        }
      ],
      "name": "setReserveStableRateBorrowing",
      "outputs": [],
      "stateMutability": "nonpayable",
      "type": "function"
    },
    {
      "inputs": [
        {
          "internalType": "address",
          "name": "asset",
          "type": "address"
        },
        {
          "internalType": "bool",
          "name": "newSiloed",
          "type": "bool"
        }
      ],
      "name": "setSiloedBorrowing",
      "outputs": [],
      "stateMutability": "nonpayable",
      "type": "function"
    },
    {
      "inputs": [
        {
          "internalType": "address",
          "name": "asset",
          "type": "address"
        },
        {
          "internalType": "uint256",
          "name": "newSupplyCap",
          "type": "uint256"
        }
      ],
      "name": "setSupplyCap",
      "outputs": [],
      "stateMutability": "nonpayable",
      "type": "function"
    },
    {
      "inputs": [
        {
          "internalType": "address",
          "name": "asset",
          "type": "address"
        },
        {
          "internalType": "uint256",
          "name": "newUnbackedMintCap",
          "type": "uint256"
        }
      ],
      "name": "setUnbackedMintCap",
      "outputs": [],
      "stateMutability": "nonpayable",
      "type": "function"
    },
    {
      "inputs": [
        {
          "internalType": "uint256",
          "name": "newBridgeProtocolFee",
          "type": "uint256"
        }
      ],
      "name": "updateBridgeProtocolFee",
      "outputs": [],
      "stateMutability": "nonpayable",
      "type": "function"
    },
    {
      "inputs": [
        {
          "internalType": "uint128",
          "name": "newFlashloanPremiumToProtocol",
          "type": "uint128"
        }
      ],
      "name": "updateFlashloanPremiumToProtocol",
      "outputs": [],
      "stateMutability": "nonpayable",
      "type": "function"
    },
    {
      "inputs": [
        {
          "internalType": "uint128",
          "name": "newFlashloanPremiumTotal",
          "type": "uint128"
        }
      ],
      "name": "updateFlashloanPremiumTotal",
      "outputs": [],
      "stateMutability": "nonpayable",
      "type": "function"
    },
    {
      "inputs": [
        {
          "components": [
            {
              "internalType": "address",
              "name": "asset",
              "type": "address"
            },
            {
              "internalType": "address",
              "name": "treasury",
              "type": "address"
            },
            {
              "internalType": "address",
              "name": "incentivesController",
              "type": "address"
            },
            {
              "internalType": "string",
              "name": "name",
              "type": "string"
            },
            {
              "internalType": "string",
              "name": "symbol",
              "type": "string"
            },
            {
              "internalType": "address",
              "name": "implementation",
              "type": "address"
            },
            {
              "internalType": "bytes",
              "name": "params",
              "type": "bytes"
            }
          ],
          "internalType": "struct ConfiguratorInputTypes.UpdateMTokenInput",
          "name": "input",
          "type": "tuple"
        }
      ],
      "name": "updateMToken",
      "outputs": [],
      "stateMutability": "nonpayable",
      "type": "function"
    },
    {
      "inputs": [
        {
          "components": [
            {
              "internalType": "address",
              "name": "asset",
              "type": "address"
            },
            {
              "internalType": "address",
              "name": "incentivesController",
              "type": "address"
            },
            {
              "internalType": "string",
              "name": "name",
              "type": "string"
            },
            {
              "internalType": "string",
              "name": "symbol",
              "type": "string"
            },
            {
              "internalType": "address",
              "name": "implementation",
              "type": "address"
            },
            {
              "internalType": "bytes",
              "name": "params",
              "type": "bytes"
            }
          ],
          "internalType": "struct ConfiguratorInputTypes.UpdateDebtTokenInput",
          "name": "input",
          "type": "tuple"
        }
      ],
      "name": "updateStableDebtToken",
      "outputs": [],
      "stateMutability": "nonpayable",
      "type": "function"
    },
    {
      "inputs": [
        {
          "components": [
            {
              "internalType": "address",
              "name": "asset",
              "type": "address"
            },
            {
              "internalType": "address",
              "name": "incentivesController",
              "type": "address"
            },
            {
              "internalType": "string",
              "name": "name",
              "type": "string"
            },
            {
              "internalType": "string",
              "name": "symbol",
              "type": "string"
            },
            {
              "internalType": "address",
              "name": "implementation",
              "type": "address"
            },
            {
              "internalType": "bytes",
              "name": "params",
              "type": "bytes"
            }
          ],
          "internalType": "struct ConfiguratorInputTypes.UpdateDebtTokenInput",
          "name": "input",
          "type": "tuple"
        }
      ],
      "name": "updateVariableDebtToken",
      "outputs": [],
      "stateMutability": "nonpayable",
      "type": "function"
    }
  ],
  "bytecode": "0x60806040526000805534801561001457600080fd5b50615ec480620000256000396000f3fe608060405234801561001057600080fd5b50600436106101c45760003560e01c80637af635a6116100f9578063aeb4fcc111610097578063c4d66de811610071578063c4d66de81461039a578063cd147304146103ad578063d14a0983146103c0578063d4fe3f99146103d357600080fd5b8063aeb4fcc114610361578063b736aaeb14610374578063c19d61e41461038757600080fd5b80638a751a60116100d35780638a751a601461031557806396e957c414610328578063a7fa83b71461033b578063ad4e64321461034e57600080fd5b80637af635a6146102d55780637c4e560b146102ef5780638a4936761461030257600080fd5b806348d9fba91161016657806363c9b8601161014057806363c9b86014610289578063682cf2641461029c5780637626cde3146102af5780637641f3d9146102c257600080fd5b806348d9fba9146102505780634b4e675314610263578063571f03e51461027657600080fd5b80631df970bd116101a25780631df970bd1461020457806326d2cec2146102175780633036b4391461022a57806338ae0cc31461023d57600080fd5b806302fb45e6146101c9578063145f5892146101de5780631d2118f9146101f1575b600080fd5b6101dc6101d7366004614e4b565b6103e6565b005b6101dc6101ec366004614ef5565b6104b7565b6101dc6101ff366004614f21565b610660565b6101dc610212366004614f78565b6107f4565b6101dc610225366004614ef5565b610aae565b6101dc610238366004614f9c565b610cbc565b6101dc61024b366004614fc3565b610e95565b6101dc61025e366004614fc3565b61102f565b6101dc610271366004614ef5565b6111ca565b6101dc610284366004614ef5565b6113d8565b6101dc610297366004614ff1565b611577565b6101dc6102aa366004614fc3565b611648565b6101dc6102bd36600461500e565b611856565b6101dc6102d0366004615049565b6118fb565b6102dd600181565b60405190815260200160405180910390f35b6101dc6102fd366004615066565b611a5c565b6101dc610310366004614f78565b611df5565b6101dc610323366004614fc3565b61209e565b6101dc610336366004614fc3565b6122b0565b6101dc610349366004614fc3565b61243e565b6101dc61035c36600461500e565b6125fa565b6101dc61036f366004614ef5565b61266c565b6101dc610382366004614fc3565b6128a8565b6101dc6103953660046150c2565b612a44565b6101dc6103a8366004614ff1565b6130d6565b6101dc6103bb366004615190565b6132fe565b6101dc6103ce366004614ef5565b613370565b6101dc6103e13660046151cb565b61350f565b6103ee61380c565b60355473ffffffffffffffffffffffffffffffffffffffff1660005b828110156104b15773__$b954922fce4c3673b573b0299e0ca67510$__63df59b8b28386868581811061043f5761043f615200565b9050602002810190610451919061522f565b6040518363ffffffff1660e01b815260040161046e929190615321565b60006040518083038186803b15801561048657600080fd5b505af415801561049a573d6000803e3d6000fd5b5050505080806104a9906155d0565b91505061040a565b50505050565b6104bf613a64565b6035546040517fe48a5f7b00000000000000000000000000000000000000000000000000000000815273ffffffffffffffffffffffffffffffffffffffff8481166004830152600092169063e48a5f7b9060240160206040518083038186803b15801561052b57600080fd5b505afa15801561053f573d6000803e3d6000fd5b505050506040513d601f19601f82011682018060405250810190610563919061573d565b805190915060b01c640fffffffff1661057c8284613cb8565b6035546040517f3109ef1100000000000000000000000000000000000000000000000000000000815273ffffffffffffffffffffffffffffffffffffffff86811660048301528451602483015290911690633109ef1190604401600060405180830381600087803b1580156105f057600080fd5b505af1158015610604573d6000803e3d6000fd5b5050604080518481526020810187905273ffffffffffffffffffffffffffffffffffffffff881693507f09808b1fc5abde94edf02fdde393bea0d2e4795999ba31695472848638b5c29f9250015b60405180910390a250505050565b610668613a64565b6035546040517f35ea6a7500000000000000000000000000000000000000000000000000000000815273ffffffffffffffffffffffffffffffffffffffff848116600483015260009216906335ea6a75906024016101e06040518083038186803b1580156106d557600080fd5b505afa1580156106e9573d6000803e3d6000fd5b505050506040513d601f19601f8201168201806040525081019061070d919061578f565b6101608101516035546040517f1d2118f900000000000000000000000000000000000000000000000000000000815273ffffffffffffffffffffffffffffffffffffffff8781166004830152868116602483015293945091921690631d2118f990604401600060405180830381600087803b15801561078b57600080fd5b505af115801561079f573d6000803e3d6000fd5b50506040805173ffffffffffffffffffffffffffffffffffffffff85811682528781166020830152881693507fdb8dada53709ce4988154324196790c2e4a60c377e1256790946f83b87db3c33925001610652565b6107fc613d5c565b60408051808201909152600281527f313900000000000000000000000000000000000000000000000000000000000060208201526127106fffffffffffffffffffffffffffffffff83161115610888576040517f08c379a000000000000000000000000000000000000000000000000000000000815260040161087f9190615928565b60405180910390fd5b50603554604080517f6a99c036000000000000000000000000000000000000000000000000000000008152905160009273ffffffffffffffffffffffffffffffffffffffff1691636a99c036916004808301926020929190829003018186803b1580156108f457600080fd5b505afa158015610908573d6000803e3d6000fd5b505050506040513d601f19601f8201168201806040525081019061092c919061593b565b603554604080517f074b2e43000000000000000000000000000000000000000000000000000000008152905192935073ffffffffffffffffffffffffffffffffffffffff9091169163bcb6e52291839163074b2e4391600480820192602092909190829003018186803b1580156109a257600080fd5b505afa1580156109b6573d6000803e3d6000fd5b505050506040513d601f19601f820116820180604052508101906109da919061593b565b6040517fffffffff0000000000000000000000000000000000000000000000000000000060e084901b1681526fffffffffffffffffffffffffffffffff91821660048201529085166024820152604401600060405180830381600087803b158015610a4457600080fd5b505af1158015610a58573d6000803e3d6000fd5b5050604080516fffffffffffffffffffffffffffffffff8086168252861660208201527fe7e0c75e1fc2d0bd83dc85d59f085b3e763107c392fb368e85572b292f1f557693500190505b60405180910390a15050565b610ab6613a64565b60408051808201909152600281527f37300000000000000000000000000000000000000000000000000000000000006020820152612710821115610b27576040517f08c379a000000000000000000000000000000000000000000000000000000000815260040161087f9190615928565b506035546040517fe48a5f7b00000000000000000000000000000000000000000000000000000000815273ffffffffffffffffffffffffffffffffffffffff8481166004830152600092169063e48a5f7b9060240160206040518083038186803b158015610b9457600080fd5b505afa158015610ba8573d6000803e3d6000fd5b505050506040513d601f19601f82011682018060405250810190610bcc919061573d565b805190915060981c61ffff16610be28284613f0d565b6035546040517f3109ef1100000000000000000000000000000000000000000000000000000000815273ffffffffffffffffffffffffffffffffffffffff86811660048301528451602483015290911690633109ef1190604401600060405180830381600087803b158015610c5657600080fd5b505af1158015610c6a573d6000803e3d6000fd5b5050604080518481526020810187905273ffffffffffffffffffffffffffffffffffffffff881693507fb5b0a963825337808b6e3154de8e98027595a5cad4219bb3a9bc55b192f4b391925001610652565b610cc4613d5c565b60408051808201909152600281527f32320000000000000000000000000000000000000000000000000000000000006020820152612710821115610d35576040517f08c379a000000000000000000000000000000000000000000000000000000000815260040161087f9190615928565b50603554604080517f272d9072000000000000000000000000000000000000000000000000000000008152905160009273ffffffffffffffffffffffffffffffffffffffff169163272d9072916004808301926020929190829003018186803b158015610da157600080fd5b505afa158015610db5573d6000803e3d6000fd5b505050506040513d601f19601f82011682018060405250810190610dd99190615958565b6035546040517f3036b4390000000000000000000000000000000000000000000000000000000081526004810185905291925073ffffffffffffffffffffffffffffffffffffffff1690633036b43990602401600060405180830381600087803b158015610e4657600080fd5b505af1158015610e5a573d6000803e3d6000fd5b505060408051848152602081018690527f30b17cb587a89089d003457c432f73e22aeee93de425e92224ba01080260ecd99350019050610aa2565b610e9d613a64565b6035546040517fe48a5f7b00000000000000000000000000000000000000000000000000000000815273ffffffffffffffffffffffffffffffffffffffff8481166004830152600092169063e48a5f7b9060240160206040518083038186803b158015610f0957600080fd5b505afa158015610f1d573d6000803e3d6000fd5b505050506040513d601f19601f82011682018060405250810190610f41919061573d565b9050610f4d8183613fae565b6035546040517f3109ef1100000000000000000000000000000000000000000000000000000000815273ffffffffffffffffffffffffffffffffffffffff85811660048301528351602483015290911690633109ef1190604401600060405180830381600087803b158015610fc157600080fd5b505af1158015610fd5573d6000803e3d6000fd5b50506040805173ffffffffffffffffffffffffffffffffffffffff8716815285151560208201527f74adf6aaf58c08bc4f993640385e136522375ea3d1589a10d02adbb906c67d1c935001905060405180910390a1505050565b611037613ff3565b6035546040517fe48a5f7b00000000000000000000000000000000000000000000000000000000815273ffffffffffffffffffffffffffffffffffffffff8481166004830152600092169063e48a5f7b9060240160206040518083038186803b1580156110a357600080fd5b505afa1580156110b7573d6000803e3d6000fd5b505050506040513d601f19601f820116820180604052508101906110db919061573d565b90506110e78183614247565b6035546040517f3109ef1100000000000000000000000000000000000000000000000000000000815273ffffffffffffffffffffffffffffffffffffffff85811660048301528351602483015290911690633109ef1190604401600060405180830381600087803b15801561115b57600080fd5b505af115801561116f573d6000803e3d6000fd5b505050508273ffffffffffffffffffffffffffffffffffffffff167fe188d542a5f11925d3a3af33703cdd30a43cb3e8066a3cf68b1b57f61a5a94b5836040516111bd911515815260200190565b60405180910390a2505050565b6111d2613a64565b60408051808201909152600281527f36370000000000000000000000000000000000000000000000000000000000006020820152612710821115611243576040517f08c379a000000000000000000000000000000000000000000000000000000000815260040161087f9190615928565b506035546040517fe48a5f7b00000000000000000000000000000000000000000000000000000000815273ffffffffffffffffffffffffffffffffffffffff8481166004830152600092169063e48a5f7b9060240160206040518083038186803b1580156112b057600080fd5b505afa1580156112c4573d6000803e3d6000fd5b505050506040513d601f19601f820116820180604052508101906112e8919061573d565b805190915060401c61ffff166112fe828461428c565b6035546040517f3109ef1100000000000000000000000000000000000000000000000000000000815273ffffffffffffffffffffffffffffffffffffffff86811660048301528451602483015290911690633109ef1190604401600060405180830381600087803b15801561137257600080fd5b505af1158015611386573d6000803e3d6000fd5b5050604080518481526020810187905273ffffffffffffffffffffffffffffffffffffffff881693507fb46e2b82b0c2cf3d7d9dece53635e165c53e0eaa7a44f904d61a2b7174826aef925001610652565b6113e0613a64565b6035546040517fe48a5f7b00000000000000000000000000000000000000000000000000000000815273ffffffffffffffffffffffffffffffffffffffff8481166004830152600092169063e48a5f7b9060240160206040518083038186803b15801561144c57600080fd5b505afa158015611460573d6000803e3d6000fd5b505050506040513d601f19601f82011682018060405250810190611484919061573d565b805190915060741c640fffffffff1661149d828461432d565b6035546040517f3109ef1100000000000000000000000000000000000000000000000000000000815273ffffffffffffffffffffffffffffffffffffffff86811660048301528451602483015290911690633109ef1190604401600060405180830381600087803b15801561151157600080fd5b505af1158015611525573d6000803e3d6000fd5b5050604080518481526020810187905273ffffffffffffffffffffffffffffffffffffffff881693507f0263602682188540a2d633561c0b4453b7d8566285e99f9f6018b8ef2facef49925001610652565b61157f613d5c565b6035546040517f63c9b86000000000000000000000000000000000000000000000000000000000815273ffffffffffffffffffffffffffffffffffffffff8381166004830152909116906363c9b86090602401600060405180830381600087803b1580156115ec57600080fd5b505af1158015611600573d6000803e3d6000fd5b505060405173ffffffffffffffffffffffffffffffffffffffff841692507feeec4c06f7adad215cbdb4d2960896c83c26aedce02dde76d36fa28588d62da49150600090a250565b611650613a64565b6035546040517fe48a5f7b00000000000000000000000000000000000000000000000000000000815273ffffffffffffffffffffffffffffffffffffffff8481166004830152600092169063e48a5f7b9060240160206040518083038186803b1580156116bc57600080fd5b505afa1580156116d0573d6000803e3d6000fd5b505050506040513d601f19601f820116820180604052508101906116f4919061573d565b90508161177657805160408051808201909152600281527f38380000000000000000000000000000000000000000000000000000000000006020820152906708000000000000001615611774576040517f08c379a000000000000000000000000000000000000000000000000000000000815260040161087f9190615928565b505b61178081836143d1565b6035546040517f3109ef1100000000000000000000000000000000000000000000000000000000815273ffffffffffffffffffffffffffffffffffffffff85811660048301528351602483015290911690633109ef1190604401600060405180830381600087803b1580156117f457600080fd5b505af1158015611808573d6000803e3d6000fd5b505050508273ffffffffffffffffffffffffffffffffffffffff167f2443ba28e8d1d88d531a3d90b981816a4f3b3c7f1fd4085c6029e81d1b7a570d836040516111bd911515815260200190565b61185e613d5c565b6035546040517ff5b50e7000000000000000000000000000000000000000000000000000000000815273__$b954922fce4c3673b573b0299e0ca67510$__9163f5b50e70916118c89173ffffffffffffffffffffffffffffffffffffffff16908590600401615971565b60006040518083038186803b1580156118e057600080fd5b505af41580156118f4573d6000803e3d6000fd5b5050505050565b611903614416565b603554604080517fd1946dbc000000000000000000000000000000000000000000000000000000008152905160009273ffffffffffffffffffffffffffffffffffffffff169163d1946dbc9160048083019286929190829003018186803b15801561196d57600080fd5b505afa158015611981573d6000803e3d6000fd5b505050506040513d6000823e601f3d9081017fffffffffffffffffffffffffffffffffffffffffffffffffffffffffffffffe01682016040526119c79190810190615a76565b905060005b8151811015611a5757600073ffffffffffffffffffffffffffffffffffffffff168282815181106119ff576119ff615200565b602002602001015173ffffffffffffffffffffffffffffffffffffffff1614611a4557611a45828281518110611a3757611a37615200565b60200260200101518461102f565b80611a4f816155d0565b9150506119cc565b505050565b611a64613a64565b60408051808201909152600281527f3230000000000000000000000000000000000000000000000000000000000000602082015282841115611ad3576040517f08c379a000000000000000000000000000000000000000000000000000000000815260040161087f9190615928565b506035546040517fe48a5f7b00000000000000000000000000000000000000000000000000000000815273ffffffffffffffffffffffffffffffffffffffff8681166004830152600092169063e48a5f7b9060240160206040518083038186803b158015611b4057600080fd5b505afa158015611b54573d6000803e3d6000fd5b505050506040513d601f19601f82011682018060405250810190611b78919061573d565b90508215611c745760408051808201909152600281527f323000000000000000000000000000000000000000000000000000000000000060208201526127108311611bf0576040517f08c379a000000000000000000000000000000000000000000000000000000000815260040161087f9190615928565b50612710611bfe84846145c7565b11156040518060400160405280600281526020017f323000000000000000000000000000000000000000000000000000000000000081525090611c6e576040517f08c379a000000000000000000000000000000000000000000000000000000000815260040161087f9190615928565b50611ceb565b60408051808201909152600281527f323000000000000000000000000000000000000000000000000000000000000060208201528215611ce1576040517f08c379a000000000000000000000000000000000000000000000000000000000815260040161087f9190615928565b50611ceb8561460a565b611cf581856147be565b611cff8184614859565b611d0981836148fa565b6035546040517f3109ef1100000000000000000000000000000000000000000000000000000000815273ffffffffffffffffffffffffffffffffffffffff87811660048301528351602483015290911690633109ef1190604401600060405180830381600087803b158015611d7d57600080fd5b505af1158015611d91573d6000803e3d6000fd5b5050604080518781526020810187905290810185905273ffffffffffffffffffffffffffffffffffffffff881692507f8cfd98eac4000328beedfe0f7594febf172ce134c3e7ca7a7d7a4bb63604329a915060600160405180910390a25050505050565b611dfd613d5c565b60408051808201909152600281527f313900000000000000000000000000000000000000000000000000000000000060208201526127106fffffffffffffffffffffffffffffffff83161115611e80576040517f08c379a000000000000000000000000000000000000000000000000000000000815260040161087f9190615928565b50603554604080517f074b2e43000000000000000000000000000000000000000000000000000000008152905160009273ffffffffffffffffffffffffffffffffffffffff169163074b2e43916004808301926020929190829003018186803b158015611eec57600080fd5b505afa158015611f00573d6000803e3d6000fd5b505050506040513d601f19601f82011682018060405250810190611f24919061593b565b603554604080517f6a99c036000000000000000000000000000000000000000000000000000000008152905192935073ffffffffffffffffffffffffffffffffffffffff9091169163bcb6e5229185918491636a99c036916004808301926020929190829003018186803b158015611f9b57600080fd5b505afa158015611faf573d6000803e3d6000fd5b505050506040513d601f19601f82011682018060405250810190611fd3919061593b565b6040517fffffffff0000000000000000000000000000000000000000000000000000000060e085901b1681526fffffffffffffffffffffffffffffffff928316600482015291166024820152604401600060405180830381600087803b15801561203c57600080fd5b505af1158015612050573d6000803e3d6000fd5b5050604080516fffffffffffffffffffffffffffffffff8086168252861660208201527f71aba182c9d0529b516de7a78bed74d49c207ef7e152f52f7ea5d8730138f6439350019050610aa2565b6120a6613a64565b6035546040517fe48a5f7b00000000000000000000000000000000000000000000000000000000815273ffffffffffffffffffffffffffffffffffffffff8481166004830152600092169063e48a5f7b9060240160206040518083038186803b15801561211257600080fd5b505afa158015612126573d6000803e3d6000fd5b505050506040513d601f19601f8201168201806040525081019061214a919061573d565b905081156121d05780516704000000000000001615156040518060400160405280600281526020017f3330000000000000000000000000000000000000000000000000000000000000815250906121ce576040517f08c379a000000000000000000000000000000000000000000000000000000000815260040161087f9190615928565b505b6121da818361499b565b6035546040517f3109ef1100000000000000000000000000000000000000000000000000000000815273ffffffffffffffffffffffffffffffffffffffff85811660048301528351602483015290911690633109ef1190604401600060405180830381600087803b15801561224e57600080fd5b505af1158015612262573d6000803e3d6000fd5b505050508273ffffffffffffffffffffffffffffffffffffffff167f0b64d0941719acd363f1a6be3d8525d8ec9d71738f7445aabcd88d7939b472e7836040516111bd911515815260200190565b6122b8613a64565b6035546040517fe48a5f7b00000000000000000000000000000000000000000000000000000000815273ffffffffffffffffffffffffffffffffffffffff8481166004830152600092169063e48a5f7b9060240160206040518083038186803b15801561232457600080fd5b505afa158015612338573d6000803e3d6000fd5b505050506040513d601f19601f8201168201806040525081019061235c919061573d565b905061236881836149e0565b6035546040517f3109ef1100000000000000000000000000000000000000000000000000000000815273ffffffffffffffffffffffffffffffffffffffff85811660048301528351602483015290911690633109ef1190604401600060405180830381600087803b1580156123dc57600080fd5b505af11580156123f0573d6000803e3d6000fd5b505050508273ffffffffffffffffffffffffffffffffffffffff167f0c4443d258a350d27dc50c378b2ebf165e6469725f786d21b30cab16823f5587836040516111bd911515815260200190565b612446613a64565b80156124555761245582614a25565b6035546040517fe48a5f7b00000000000000000000000000000000000000000000000000000000815273ffffffffffffffffffffffffffffffffffffffff8481166004830152600092169063e48a5f7b9060240160206040518083038186803b1580156124c157600080fd5b505afa1580156124d5573d6000803e3d6000fd5b505050506040513d601f19601f820116820180604052508101906124f9919061573d565b90506000612511825167400000000000000016151590565b905061251d8284614bd9565b6035546040517f3109ef1100000000000000000000000000000000000000000000000000000000815273ffffffffffffffffffffffffffffffffffffffff86811660048301528451602483015290911690633109ef1190604401600060405180830381600087803b15801561259157600080fd5b505af11580156125a5573d6000803e3d6000fd5b5050604080518415158152861515602082015273ffffffffffffffffffffffffffffffffffffffff881693507f842a280b07e8e502a9101f32a3b768ebaba3655556dd674f0831900861fc674b925001610652565b612602613d5c565b6035546040517fb0f0935500000000000000000000000000000000000000000000000000000000815273__$b954922fce4c3673b573b0299e0ca67510$__9163b0f09355916118c89173ffffffffffffffffffffffffffffffffffffffff16908590600401615971565b612674613a64565b6035546040517fe48a5f7b00000000000000000000000000000000000000000000000000000000815273ffffffffffffffffffffffffffffffffffffffff8481166004830152600092169063e48a5f7b9060240160206040518083038186803b1580156126e057600080fd5b505afa1580156126f4573d6000803e3d6000fd5b505050506040513d601f19601f82011682018060405250810190612718919061573d565b805190915060d41c64ffffffffff1680612735576127358461460a565b61273f8284614c1e565b6035546040517f3109ef1100000000000000000000000000000000000000000000000000000000815273ffffffffffffffffffffffffffffffffffffffff86811660048301528451602483015290911690633109ef1190604401600060405180830381600087803b1580156127b357600080fd5b505af11580156127c7573d6000803e3d6000fd5b50505050826000141561285a576035546040517fe43e88a100000000000000000000000000000000000000000000000000000000815273ffffffffffffffffffffffffffffffffffffffff86811660048301529091169063e43e88a190602401600060405180830381600087803b15801561284157600080fd5b505af1158015612855573d6000803e3d6000fd5b505050505b604080518281526020810185905273ffffffffffffffffffffffffffffffffffffffff8616917f6824a6c7fbc10d2979b1f1ccf2dd4ed0436541679a661dedb5c10bd4be8306829101610652565b6128b0613d5c565b806128be576128be8261460a565b6035546040517fe48a5f7b00000000000000000000000000000000000000000000000000000000815273ffffffffffffffffffffffffffffffffffffffff8481166004830152600092169063e48a5f7b9060240160206040518083038186803b15801561292a57600080fd5b505afa15801561293e573d6000803e3d6000fd5b505050506040513d601f19601f82011682018060405250810190612962919061573d565b905061296e8183614cc2565b6035546040517f3109ef1100000000000000000000000000000000000000000000000000000000815273ffffffffffffffffffffffffffffffffffffffff85811660048301528351602483015290911690633109ef1190604401600060405180830381600087803b1580156129e257600080fd5b505af11580156129f6573d6000803e3d6000fd5b505050508273ffffffffffffffffffffffffffffffffffffffff167fc36c7d11ba01a5869d52aa4a3781939dab851cbc9ee6e7fdcedc7d58898a3f1e836040516111bd911515815260200190565b612a4c613a64565b60408051808201909152600281527f3231000000000000000000000000000000000000000000000000000000000000602082015261ffff8716612abc576040517f08c379a000000000000000000000000000000000000000000000000000000000815260040161087f9190615928565b5060408051808201909152600281527f3231000000000000000000000000000000000000000000000000000000000000602082015261ffff8616612b2d576040517f08c379a000000000000000000000000000000000000000000000000000000000815260040161087f9190615928565b508461ffff168661ffff1611156040518060400160405280600281526020017f323100000000000000000000000000000000000000000000000000000000000081525090612ba8576040517f08c379a000000000000000000000000000000000000000000000000000000000815260040161087f9190615928565b5060408051808201909152600281527f3231000000000000000000000000000000000000000000000000000000000000602082015261271061ffff861611612c1d576040517f08c379a000000000000000000000000000000000000000000000000000000000815260040161087f9190615928565b50612710612c3261ffff8781169087166145c7565b11156040518060400160405280600281526020017f323100000000000000000000000000000000000000000000000000000000000081525090612ca2576040517f08c379a000000000000000000000000000000000000000000000000000000000815260040161087f9190615928565b50603554604080517fd1946dbc000000000000000000000000000000000000000000000000000000008152905160009273ffffffffffffffffffffffffffffffffffffffff169163d1946dbc9160048083019286929190829003018186803b158015612d0d57600080fd5b505afa158015612d21573d6000803e3d6000fd5b505050506040513d6000823e601f3d9081017fffffffffffffffffffffffffffffffffffffffffffffffffffffffffffffffe0168201604052612d679190810190615a76565b905060005b8151811015612f5e57603554825160009173ffffffffffffffffffffffffffffffffffffffff169063e48a5f7b90859085908110612dac57612dac615200565b60200260200101516040518263ffffffff1660e01b8152600401612dec919073ffffffffffffffffffffffffffffffffffffffff91909116815260200190565b60206040518083038186803b158015612e0457600080fd5b505afa158015612e18573d6000803e3d6000fd5b505050506040513d601f19601f82011682018060405250810190612e3c919061573d565b805190915060a81c60ff168a60ff161415612f4b57805161ffff168961ffff16116040518060400160405280600281526020017f323100000000000000000000000000000000000000000000000000000000000081525090612ecb576040517f08c379a000000000000000000000000000000000000000000000000000000000815260040161087f9190615928565b50805160101c61ffff168861ffff16116040518060400160405280600281526020017f323100000000000000000000000000000000000000000000000000000000000081525090612f49576040517f08c379a000000000000000000000000000000000000000000000000000000000815260040161087f9190615928565b505b5080612f56816155d0565b915050612d6c565b50603560009054906101000a900473ffffffffffffffffffffffffffffffffffffffff1673ffffffffffffffffffffffffffffffffffffffff1663d579ea7d896040518060a001604052808b61ffff1681526020018a61ffff1681526020018961ffff1681526020018873ffffffffffffffffffffffffffffffffffffffff16815260200187878080601f01602080910402602001604051908101604052809392919081815260200183838082843760009201919091525050509152506040517fffffffff0000000000000000000000000000000000000000000000000000000060e085901b168152613055929190600401615b28565b600060405180830381600087803b15801561306f57600080fd5b505af1158015613083573d6000803e3d6000fd5b505050508760ff167f0acf8b4a3cace10779798a89a206a0ae73a71b63acdd3be2801d39c2ef7ab3cb8888888888886040516130c496959493929190615b9e565b60405180910390a25050505050505050565b6001805460ff16806130e75750303b155b806130f3575060005481115b61317f576040517f08c379a000000000000000000000000000000000000000000000000000000000815260206004820152602e60248201527f436f6e747261637420696e7374616e63652068617320616c726561647920626560448201527f656e20696e697469616c697a6564000000000000000000000000000000000000606482015260840161087f565b60015460ff161580156131bc57600180547fffffffffffffffffffffffffffffffffffffffffffffffffffffffffffffff00168117905560008290555b603480547fffffffffffffffffffffffff00000000000000000000000000000000000000001673ffffffffffffffffffffffffffffffffffffffff8516908117909155604080517f026b1d5f000000000000000000000000000000000000000000000000000000008152905163026b1d5f91600480820192602092909190829003018186803b15801561324e57600080fd5b505afa158015613262573d6000803e3d6000fd5b505050506040513d601f19601f820116820180604052508101906132869190615bea565b603580547fffffffffffffffffffffffff00000000000000000000000000000000000000001673ffffffffffffffffffffffffffffffffffffffff929092169190911790558015611a5757600180547fffffffffffffffffffffffffffffffffffffffffffffffffffffffffffffff00169055505050565b613306613d5c565b6035546040517fd8aba51200000000000000000000000000000000000000000000000000000000815273__$b954922fce4c3673b573b0299e0ca67510$__9163d8aba512916118c89173ffffffffffffffffffffffffffffffffffffffff16908590600401615c07565b613378613a64565b6035546040517fe48a5f7b00000000000000000000000000000000000000000000000000000000815273ffffffffffffffffffffffffffffffffffffffff8481166004830152600092169063e48a5f7b9060240160206040518083038186803b1580156133e457600080fd5b505afa1580156133f8573d6000803e3d6000fd5b505050506040513d601f19601f8201168201806040525081019061341c919061573d565b805190915060501c640fffffffff166134358284614d07565b6035546040517f3109ef1100000000000000000000000000000000000000000000000000000000815273ffffffffffffffffffffffffffffffffffffffff86811660048301528451602483015290911690633109ef1190604401600060405180830381600087803b1580156134a957600080fd5b505af11580156134bd573d6000803e3d6000fd5b5050604080518481526020810187905273ffffffffffffffffffffffffffffffffffffffff881693507fc51aca575985d521c5072ad11549bad77013bb786d57f30f94b40ed8f8dc9bc4925001610652565b613517613a64565b6035546040517fe48a5f7b00000000000000000000000000000000000000000000000000000000815273ffffffffffffffffffffffffffffffffffffffff8481166004830152600092169063e48a5f7b9060240160206040518083038186803b15801561358357600080fd5b505afa158015613597573d6000803e3d6000fd5b505050506040513d601f19601f820116820180604052508101906135bb919061573d565b905060ff821615613714576035546040517f6c6f6ae100000000000000000000000000000000000000000000000000000000815260ff8416600482015260009173ffffffffffffffffffffffffffffffffffffffff1690636c6f6ae19060240160006040518083038186803b15801561363357600080fd5b505afa158015613647573d6000803e3d6000fd5b505050506040513d6000823e601f3d9081017fffffffffffffffffffffffffffffffffffffffffffffffffffffffffffffffe016820160405261368d9190810190615d46565b825190915060101c61ffff16816020015161ffff16116040518060400160405280600281526020017f313700000000000000000000000000000000000000000000000000000000000081525090613711576040517f08c379a000000000000000000000000000000000000000000000000000000000815260040161087f9190615928565b50505b805160009060a81c60ff16905061372e8260ff8516614dab565b6035546040517f3109ef1100000000000000000000000000000000000000000000000000000000815273ffffffffffffffffffffffffffffffffffffffff86811660048301528451602483015290911690633109ef1190604401600060405180830381600087803b1580156137a257600080fd5b505af11580156137b6573d6000803e3d6000fd5b50506040805160ff80861682528716602082015273ffffffffffffffffffffffffffffffffffffffff881693507f5bb69795b6a2ea222d73a5f8939c23471a1f85a99c7ca43c207f1b71f10c6264925001610652565b603454604080517f707cd716000000000000000000000000000000000000000000000000000000008152905160009273ffffffffffffffffffffffffffffffffffffffff169163707cd716916004808301926020929190829003018186803b15801561387757600080fd5b505afa15801561388b573d6000803e3d6000fd5b505050506040513d601f19601f820116820180604052508101906138af9190615bea565b6040517f13ee32e000000000000000000000000000000000000000000000000000000000815233600482015290915073ffffffffffffffffffffffffffffffffffffffff8216906313ee32e09060240160206040518083038186803b15801561391757600080fd5b505afa15801561392b573d6000803e3d6000fd5b505050506040513d601f19601f8201168201806040525081019061394f9190615e71565b806139f257506040517f7be53ca100000000000000000000000000000000000000000000000000000000815233600482015273ffffffffffffffffffffffffffffffffffffffff821690637be53ca19060240160206040518083038186803b1580156139ba57600080fd5b505afa1580156139ce573d6000803e3d6000fd5b505050506040513d601f19601f820116820180604052508101906139f29190615e71565b6040518060400160405280600181526020017f350000000000000000000000000000000000000000000000000000000000000081525090613a60576040517f08c379a000000000000000000000000000000000000000000000000000000000815260040161087f9190615928565b5050565b603454604080517f707cd716000000000000000000000000000000000000000000000000000000008152905160009273ffffffffffffffffffffffffffffffffffffffff169163707cd716916004808301926020929190829003018186803b158015613acf57600080fd5b505afa158015613ae3573d6000803e3d6000fd5b505050506040513d601f19601f82011682018060405250810190613b079190615bea565b6040517f674b5e4d00000000000000000000000000000000000000000000000000000000815233600482015290915073ffffffffffffffffffffffffffffffffffffffff82169063674b5e4d9060240160206040518083038186803b158015613b6f57600080fd5b505afa158015613b83573d6000803e3d6000fd5b505050506040513d601f19601f82011682018060405250810190613ba79190615e71565b80613c4a57506040517f7be53ca100000000000000000000000000000000000000000000000000000000815233600482015273ffffffffffffffffffffffffffffffffffffffff821690637be53ca19060240160206040518083038186803b158015613c1257600080fd5b505afa158015613c26573d6000803e3d6000fd5b505050506040513d601f19601f82011682018060405250810190613c4a9190615e71565b6040518060400160405280600181526020017f340000000000000000000000000000000000000000000000000000000000000081525090613a60576040517f08c379a000000000000000000000000000000000000000000000000000000000815260040161087f9190615928565b60408051808201909152600281527f37320000000000000000000000000000000000000000000000000000000000006020820152640fffffffff821115613d2c576040517f08c379a000000000000000000000000000000000000000000000000000000000815260040161087f9190615928565b5081517ffffffffffff000000000ffffffffffffffffffffffffffffffffffffffffffff1660b09190911b179052565b603454604080517f707cd716000000000000000000000000000000000000000000000000000000008152905160009273ffffffffffffffffffffffffffffffffffffffff169163707cd716916004808301926020929190829003018186803b158015613dc757600080fd5b505afa158015613ddb573d6000803e3d6000fd5b505050506040513d601f19601f82011682018060405250810190613dff9190615bea565b6040517f7be53ca100000000000000000000000000000000000000000000000000000000815233600482015290915073ffffffffffffffffffffffffffffffffffffffff821690637be53ca19060240160206040518083038186803b158015613e6757600080fd5b505afa158015613e7b573d6000803e3d6000fd5b505050506040513d601f19601f82011682018060405250810190613e9f9190615e71565b6040518060400160405280600181526020017f310000000000000000000000000000000000000000000000000000000000000081525090613a60576040517f08c379a000000000000000000000000000000000000000000000000000000000815260040161087f9190615928565b60408051808201909152600281527f3730000000000000000000000000000000000000000000000000000000000000602082015261ffff821115613f7e576040517f08c379a000000000000000000000000000000000000000000000000000000000815260040161087f9190615928565b5081517fffffffffffffffffffffff0000ffffffffffffffffffffffffffffffffffffff1660989190911b179052565b603d81613fbc576000613fbf565b60015b83517fffffffffffffffffffffffffffffffffffffffffffffffffdfffffffffffffff1660ff9190911690911b1790915250565b603454604080517f707cd716000000000000000000000000000000000000000000000000000000008152905160009273ffffffffffffffffffffffffffffffffffffffff169163707cd716916004808301926020929190829003018186803b15801561405e57600080fd5b505afa158015614072573d6000803e3d6000fd5b505050506040513d601f19601f820116820180604052508101906140969190615bea565b6040517f7be53ca100000000000000000000000000000000000000000000000000000000815233600482015290915073ffffffffffffffffffffffffffffffffffffffff821690637be53ca19060240160206040518083038186803b1580156140fe57600080fd5b505afa158015614112573d6000803e3d6000fd5b505050506040513d601f19601f820116820180604052508101906141369190615e71565b806141d957506040517f2500f2b600000000000000000000000000000000000000000000000000000000815233600482015273ffffffffffffffffffffffffffffffffffffffff821690632500f2b69060240160206040518083038186803b1580156141a157600080fd5b505afa1580156141b5573d6000803e3d6000fd5b505050506040513d601f19601f820116820180604052508101906141d99190615e71565b6040518060400160405280600181526020017f330000000000000000000000000000000000000000000000000000000000000081525090613a60576040517f08c379a000000000000000000000000000000000000000000000000000000000815260040161087f9190615928565b603c81614255576000614258565b60015b83517fffffffffffffffffffffffffffffffffffffffffffffffffefffffffffffffff1660ff9190911690911b1790915250565b60408051808201909152600281527f3637000000000000000000000000000000000000000000000000000000000000602082015261ffff8211156142fd576040517f08c379a000000000000000000000000000000000000000000000000000000000815260040161087f9190615928565b5081517fffffffffffffffffffffffffffffffffffffffffffff0000ffffffffffffffff1660409190911b179052565b60408051808201909152600281527f36390000000000000000000000000000000000000000000000000000000000006020820152640fffffffff8211156143a1576040517f08c379a000000000000000000000000000000000000000000000000000000000815260040161087f9190615928565b5081517fffffffffffffffffffffffffff000000000fffffffffffffffffffffffffffff1660749190911b179052565b603a816143df5760006143e2565b60015b83517ffffffffffffffffffffffffffffffffffffffffffffffffffbffffffffffffff1660ff9190911690911b1790915250565b603454604080517f707cd716000000000000000000000000000000000000000000000000000000008152905160009273ffffffffffffffffffffffffffffffffffffffff169163707cd716916004808301926020929190829003018186803b15801561448157600080fd5b505afa158015614495573d6000803e3d6000fd5b505050506040513d601f19601f820116820180604052508101906144b99190615bea565b6040517f2500f2b600000000000000000000000000000000000000000000000000000000815233600482015290915073ffffffffffffffffffffffffffffffffffffffff821690632500f2b69060240160206040518083038186803b15801561452157600080fd5b505afa158015614535573d6000803e3d6000fd5b505050506040513d601f19601f820116820180604052508101906145599190615e71565b6040518060400160405280600181526020017f320000000000000000000000000000000000000000000000000000000000000081525090613a60576040517f08c379a000000000000000000000000000000000000000000000000000000000815260040161087f9190615928565b600081157fffffffffffffffffffffffffffffffffffffffffffffffffffffffffffffec77839004841115176145fc57600080fd5b506127109102611388010490565b603454604080517fe860accb000000000000000000000000000000000000000000000000000000008152905160009273ffffffffffffffffffffffffffffffffffffffff169163e860accb916004808301926020929190829003018186803b15801561467557600080fd5b505afa158015614689573d6000803e3d6000fd5b505050506040513d601f19601f820116820180604052508101906146ad9190615bea565b6040517fa42b056200000000000000000000000000000000000000000000000000000000815273ffffffffffffffffffffffffffffffffffffffff8481166004830152919091169063a42b05629060240160206040518083038186803b15801561471657600080fd5b505afa15801561472a573d6000803e3d6000fd5b505050506040513d601f19601f8201168201806040525081019061474e9190615958565b60408051808201909152600281527f313800000000000000000000000000000000000000000000000000000000000060208201529091508115611a57576040517f08c379a000000000000000000000000000000000000000000000000000000000815260040161087f9190615928565b60408051808201909152600281527f3633000000000000000000000000000000000000000000000000000000000000602082015261ffff82111561482f576040517f08c379a000000000000000000000000000000000000000000000000000000000815260040161087f9190615928565b5081517fffffffffffffffffffffffffffffffffffffffffffffffffffffffffffff000016179052565b60408051808201909152600281527f3634000000000000000000000000000000000000000000000000000000000000602082015261ffff8211156148ca576040517f08c379a000000000000000000000000000000000000000000000000000000000815260040161087f9190615928565b5081517fffffffffffffffffffffffffffffffffffffffffffffffffffffffff0000ffff1660109190911b179052565b60408051808201909152600281527f3635000000000000000000000000000000000000000000000000000000000000602082015261ffff82111561496b576040517f08c379a000000000000000000000000000000000000000000000000000000000815260040161087f9190615928565b5081517fffffffffffffffffffffffffffffffffffffffffffffffffffff0000ffffffff1660209190911b179052565b603b816149a95760006149ac565b60015b83517ffffffffffffffffffffffffffffffffffffffffffffffffff7ffffffffffffff1660ff9190911690911b1790915250565b6039816149ee5760006149f1565b60015b83517ffffffffffffffffffffffffffffffffffffffffffffffffffdffffffffffffff1660ff9190911690911b1790915250565b603454604080517fe860accb000000000000000000000000000000000000000000000000000000008152905160009273ffffffffffffffffffffffffffffffffffffffff169163e860accb916004808301926020929190829003018186803b158015614a9057600080fd5b505afa158015614aa4573d6000803e3d6000fd5b505050506040513d601f19601f82011682018060405250810190614ac89190615bea565b6040517f4d44ac4f00000000000000000000000000000000000000000000000000000000815273ffffffffffffffffffffffffffffffffffffffff84811660048301529190911690634d44ac4f9060240160206040518083038186803b158015614b3157600080fd5b505afa158015614b45573d6000803e3d6000fd5b505050506040513d601f19601f82011682018060405250810190614b699190615958565b60408051808201909152600281527f393000000000000000000000000000000000000000000000000000000000000060208201529091508115611a57576040517f08c379a000000000000000000000000000000000000000000000000000000000815260040161087f9190615928565b603e81614be7576000614bea565b60015b83517fffffffffffffffffffffffffffffffffffffffffffffffffbfffffffffffffff1660ff9190911690911b1790915250565b60408051808201909152600281527f3733000000000000000000000000000000000000000000000000000000000000602082015264ffffffffff821115614c92576040517f08c379a000000000000000000000000000000000000000000000000000000000815260040161087f9190615928565b5081517ff0000000000fffffffffffffffffffffffffffffffffffffffffffffffffffff1660d49190911b179052565b603881614cd0576000614cd3565b60015b83517ffffffffffffffffffffffffffffffffffffffffffffffffffeffffffffffffff1660ff9190911690911b1790915250565b60408051808201909152600281527f36380000000000000000000000000000000000000000000000000000000000006020820152640fffffffff821115614d7b576040517f08c379a000000000000000000000000000000000000000000000000000000000815260040161087f9190615928565b5081517ffffffffffffffffffffffffffffffffffff000000000ffffffffffffffffffff1660509190911b179052565b60408051808201909152600281527f3731000000000000000000000000000000000000000000000000000000000000602082015260ff821115614e1b576040517f08c379a000000000000000000000000000000000000000000000000000000000815260040161087f9190615928565b5081517fffffffffffffffffffff00ffffffffffffffffffffffffffffffffffffffffff1660a89190911b179052565b60008060208385031215614e5e57600080fd5b823567ffffffffffffffff80821115614e7657600080fd5b818501915085601f830112614e8a57600080fd5b813581811115614e9957600080fd5b8660208260051b8501011115614eae57600080fd5b60209290920196919550909350505050565b73ffffffffffffffffffffffffffffffffffffffff81168114614ee257600080fd5b50565b8035614ef081614ec0565b919050565b60008060408385031215614f0857600080fd5b8235614f1381614ec0565b946020939093013593505050565b60008060408385031215614f3457600080fd5b8235614f3f81614ec0565b91506020830135614f4f81614ec0565b809150509250929050565b6fffffffffffffffffffffffffffffffff81168114614ee257600080fd5b600060208284031215614f8a57600080fd5b8135614f9581614f5a565b9392505050565b600060208284031215614fae57600080fd5b5035919050565b8015158114614ee257600080fd5b60008060408385031215614fd657600080fd5b8235614fe181614ec0565b91506020830135614f4f81614fb5565b60006020828403121561500357600080fd5b8135614f9581614ec0565b60006020828403121561502057600080fd5b813567ffffffffffffffff81111561503757600080fd5b820160c08185031215614f9557600080fd5b60006020828403121561505b57600080fd5b8135614f9581614fb5565b6000806000806080858703121561507c57600080fd5b843561508781614ec0565b966020860135965060408601359560600135945092505050565b803560ff81168114614ef057600080fd5b61ffff81168114614ee257600080fd5b600080600080600080600060c0888a0312156150dd57600080fd5b6150e6886150a1565b965060208801356150f6816150b2565b95506040880135615106816150b2565b94506060880135615116816150b2565b9350608088013561512681614ec0565b925060a088013567ffffffffffffffff8082111561514357600080fd5b818a0191508a601f83011261515757600080fd5b81358181111561516657600080fd5b8b602082850101111561517857600080fd5b60208301945080935050505092959891949750929550565b6000602082840312156151a257600080fd5b813567ffffffffffffffff8111156151b957600080fd5b820160e08185031215614f9557600080fd5b600080604083850312156151de57600080fd5b82356151e981614ec0565b91506151f7602084016150a1565b90509250929050565b7f4e487b7100000000000000000000000000000000000000000000000000000000600052603260045260246000fd5b600082357ffffffffffffffffffffffffffffffffffffffffffffffffffffffffffffffe2183360301811261526357600080fd5b9190910192915050565b60008083357fffffffffffffffffffffffffffffffffffffffffffffffffffffffffffffffe18436030181126152a257600080fd5b830160208101925035905067ffffffffffffffff8111156152c257600080fd5b8036038313156152d157600080fd5b9250929050565b8183528181602085013750600060208284010152600060207fffffffffffffffffffffffffffffffffffffffffffffffffffffffffffffffe0601f840116840101905092915050565b73ffffffffffffffffffffffffffffffffffffffff831681526040602082015261536b6040820161535184614ee5565b73ffffffffffffffffffffffffffffffffffffffff169052565b600061537960208401614ee5565b73ffffffffffffffffffffffffffffffffffffffff1660608301526153a060408401614ee5565b73ffffffffffffffffffffffffffffffffffffffff1660808301526153c7606084016150a1565b60ff1660a08301526153db60808401614ee5565b73ffffffffffffffffffffffffffffffffffffffff1660c083015261540260a08401614ee5565b73ffffffffffffffffffffffffffffffffffffffff1660e083015261542960c08401614ee5565b61010061544d8185018373ffffffffffffffffffffffffffffffffffffffff169052565b61545960e08601614ee5565b915061012061547f8186018473ffffffffffffffffffffffffffffffffffffffff169052565b61548b8287018761526d565b935091506101e061014081818801526154a9610220880186866152d8565b94506154b78389018961526d565b945092507fffffffffffffffffffffffffffffffffffffffffffffffffffffffffffffffc06101608189880301818a01526154f38787876152d8565b9650615501838b018b61526d565b9650945061018092508189880301838a015261551e8787876152d8565b965061552c818b018b61526d565b96509450506101a08189880301818a01526155488787876152d8565b9650615556838b018b61526d565b965094506101c092508189880301838a01526155738787876152d8565b9650615581818b018b61526d565b965094505080888703018389015261559a8686866152d8565b95506155a8828a018a61526d565b9550935080888703016102008901525050506155c58383836152d8565b979650505050505050565b60007fffffffffffffffffffffffffffffffffffffffffffffffffffffffffffffffff821415615629577f4e487b7100000000000000000000000000000000000000000000000000000000600052601160045260246000fd5b5060010190565b7f4e487b7100000000000000000000000000000000000000000000000000000000600052604160045260246000fd5b6040516101e0810167ffffffffffffffff8111828210171561568357615683615630565b60405290565b60405160a0810167ffffffffffffffff8111828210171561568357615683615630565b604051601f82017fffffffffffffffffffffffffffffffffffffffffffffffffffffffffffffffe016810167ffffffffffffffff811182821017156156f3576156f3615630565b604052919050565b60006020828403121561570d57600080fd5b6040516020810181811067ffffffffffffffff8211171561573057615730615630565b6040529151825250919050565b60006020828403121561574f57600080fd5b614f9583836156fb565b8051614ef081614f5a565b805164ffffffffff81168114614ef057600080fd5b8051614ef0816150b2565b8051614ef081614ec0565b60006101e082840312156157a257600080fd5b6157aa61565f565b6157b484846156fb565b81526157c260208401615759565b60208201526157d360408401615759565b60408201526157e460608401615759565b60608201526157f560808401615759565b608082015261580660a08401615759565b60a082015261581760c08401615764565b60c082015261582860e08401615779565b60e082015261010061583b818501615784565b9082015261012061584d848201615784565b9082015261014061585f848201615784565b90820152610160615871848201615784565b90820152610180615883848201615759565b908201526101a0615895848201615759565b908201526101c06158a7848201615759565b908201529392505050565b60005b838110156158cd5781810151838201526020016158b5565b838111156104b15750506000910152565b600081518084526158f68160208601602086016158b2565b601f017fffffffffffffffffffffffffffffffffffffffffffffffffffffffffffffffe0169290920160200192915050565b602081526000614f9560208301846158de565b60006020828403121561594d57600080fd5b8151614f9581614f5a565b60006020828403121561596a57600080fd5b5051919050565b600073ffffffffffffffffffffffffffffffffffffffff808516835260406020840152833561599f81614ec0565b8116604084015260208401356159b481614ec0565b1660608301526159c7604084018461526d565b60c060808501526159dd610100850182846152d8565b9150506159ed606085018561526d565b7fffffffffffffffffffffffffffffffffffffffffffffffffffffffffffffffc0808685030160a0870152615a238483856152d8565b9350615a3160808801614ee5565b73ffffffffffffffffffffffffffffffffffffffff811660c08801529250615a5c60a088018861526d565b93509150808685030160e0870152506155c58383836152d8565b60006020808385031215615a8957600080fd5b825167ffffffffffffffff80821115615aa157600080fd5b818501915085601f830112615ab557600080fd5b815181811115615ac757615ac7615630565b8060051b9150615ad88483016156ac565b8181529183018401918481019088841115615af257600080fd5b938501935b83851015615b1c5784519250615b0c83614ec0565b8282529385019390850190615af7565b98975050505050505050565b60ff8316815260406020820152600061ffff8084511660408401528060208501511660608401528060408501511660808401525073ffffffffffffffffffffffffffffffffffffffff60608401511660a0830152608083015160a060c0840152615b9560e08401826158de565b95945050505050565b600061ffff8089168352808816602084015280871660408401525073ffffffffffffffffffffffffffffffffffffffff8516606083015260a06080830152615b1c60a0830184866152d8565b600060208284031215615bfc57600080fd5b8151614f9581614ec0565b600073ffffffffffffffffffffffffffffffffffffffff8085168352604060208401528335615c3581614ec0565b166040830152615c4760208401614ee5565b73ffffffffffffffffffffffffffffffffffffffff166060830152615c6e60408401614ee5565b73ffffffffffffffffffffffffffffffffffffffff166080830152615c96606084018461526d565b60e060a0850152615cac610120850182846152d8565b915050615cbc608085018561526d565b7fffffffffffffffffffffffffffffffffffffffffffffffffffffffffffffffc0808685030160c0870152615cf28483856152d8565b9350615d0060a08801614ee5565b73ffffffffffffffffffffffffffffffffffffffff811660e08801529250615d2b60c088018861526d565b935091508086850301610100870152506155c58383836152d8565b60006020808385031215615d5957600080fd5b825167ffffffffffffffff80821115615d7157600080fd5b9084019060a08287031215615d8557600080fd5b615d8d615689565b8251615d98816150b2565b815282840151615da7816150b2565b818501526040830151615db9816150b2565b60408201526060830151615dcc81614ec0565b6060820152608083015182811115615de357600080fd5b80840193505086601f840112615df857600080fd5b825182811115615e0a57615e0a615630565b615e3a857fffffffffffffffffffffffffffffffffffffffffffffffffffffffffffffffe0601f840116016156ac565b92508083528785828601011115615e5057600080fd5b615e5f818685018787016158b2565b50608081019190915295945050505050565b600060208284031215615e8357600080fd5b8151614f9581614fb556fea2646970667358221220e2817c5105558f4668e2c777d6cacf67b8e2f7cf32171ce9e0199f3424378e6864736f6c63430008090033",
  "linkReferences": {
    "contracts/protocol/libs/logic/ConfiguratorLogic.sol": {
      "ConfiguratorLogic": [
        {
          "length": 20,
          "start": 1081
        },
        {
          "length": 20,
          "start": 6318
        },
        {
          "length": 20,
          "start": 9810
        },
        {
          "length": 20,
          "start": 13142
        }
      ]
    }
  },
  "deployedLinkReferences": {
    "contracts/protocol/libs/logic/ConfiguratorLogic.sol": {
      "ConfiguratorLogic": [
        {
          "length": 20,
          "start": 1044
        },
        {
          "length": 20,
          "start": 6281
        },
        {
          "length": 20,
          "start": 9773
        },
        {
          "length": 20,
          "start": 13105
        }
      ]
    }
  }
}