{
  "_format": "hh-sol-artifact-1",
  "contractName": "VariableDebtToken",
  "sourceName": "contracts/protocol/token/VariableDebtToken.sol",
  "abi": [
    {
      "inputs": [
        {
          "internalType": "contract IPool",
          "name": "pool",
          "type": "address"
        }
      ],
      "stateMutability": "nonpayable",
      "type": "constructor"
    },
    {
      "anonymous": false,
      "inputs": [
        {
          "indexed": true,
          "internalType": "address",
          "name": "owner",
          "type": "address"
        },
        {
          "indexed": true,
          "internalType": "address",
          "name": "spender",
          "type": "address"
        },
        {
          "indexed": false,
          "internalType": "uint256",
          "name": "value",
          "type": "uint256"
        }
      ],
      "name": "Approval",
      "type": "event"
    },
    {
      "anonymous": false,
      "inputs": [
        {
          "indexed": true,
          "internalType": "address",
          "name": "fromUser",
          "type": "address"
        },
        {
          "indexed": true,
          "internalType": "address",
          "name": "toUser",
          "type": "address"
        },
        {
          "indexed": true,
          "internalType": "address",
          "name": "asset",
          "type": "address"
        },
        {
          "indexed": false,
          "internalType": "uint256",
          "name": "amount",
          "type": "uint256"
        }
      ],
      "name": "BorrowAllowanceDelegated",
      "type": "event"
    },
    {
      "anonymous": false,
      "inputs": [
        {
          "indexed": true,
          "internalType": "address",
          "name": "from",
          "type": "address"
        },
        {
          "indexed": true,
          "internalType": "address",
          "name": "target",
          "type": "address"
        },
        {
          "indexed": false,
          "internalType": "uint256",
          "name": "value",
          "type": "uint256"
        },
        {
          "indexed": false,
          "internalType": "uint256",
          "name": "balanceIncrease",
          "type": "uint256"
        },
        {
          "indexed": false,
          "internalType": "uint256",
          "name": "index",
          "type": "uint256"
        }
      ],
      "name": "Burn",
      "type": "event"
    },
    {
      "anonymous": false,
      "inputs": [
        {
          "indexed": true,
          "internalType": "address",
          "name": "underlyingAsset",
          "type": "address"
        },
        {
          "indexed": true,
          "internalType": "address",
          "name": "pool",
          "type": "address"
        },
        {
          "indexed": false,
          "internalType": "address",
          "name": "incentivesController",
          "type": "address"
        },
        {
          "indexed": false,
          "internalType": "uint8",
          "name": "debtTokenDecimals",
          "type": "uint8"
        },
        {
          "indexed": false,
          "internalType": "string",
          "name": "debtTokenName",
          "type": "string"
        },
        {
          "indexed": false,
          "internalType": "string",
          "name": "debtTokenSymbol",
          "type": "string"
        },
        {
          "indexed": false,
          "internalType": "bytes",
          "name": "params",
          "type": "bytes"
        }
      ],
      "name": "Initialized",
      "type": "event"
    },
    {
      "anonymous": false,
      "inputs": [
        {
          "indexed": true,
          "internalType": "address",
          "name": "caller",
          "type": "address"
        },
        {
          "indexed": true,
          "internalType": "address",
          "name": "onBehalfOf",
          "type": "address"
        },
        {
          "indexed": false,
          "internalType": "uint256",
          "name": "value",
          "type": "uint256"
        },
        {
          "indexed": false,
          "internalType": "uint256",
          "name": "balanceIncrease",
          "type": "uint256"
        },
        {
          "indexed": false,
          "internalType": "uint256",
          "name": "index",
          "type": "uint256"
        }
      ],
      "name": "Mint",
      "type": "event"
    },
    {
      "anonymous": false,
      "inputs": [
        {
          "indexed": true,
          "internalType": "address",
          "name": "from",
          "type": "address"
        },
        {
          "indexed": true,
          "internalType": "address",
          "name": "to",
          "type": "address"
        },
        {
          "indexed": false,
          "internalType": "uint256",
          "name": "value",
          "type": "uint256"
        }
      ],
      "name": "Transfer",
      "type": "event"
    },
    {
      "inputs": [],
      "name": "DEBT_TOKEN_REVISION",
      "outputs": [
        {
          "internalType": "uint256",
          "name": "",
          "type": "uint256"
        }
      ],
      "stateMutability": "view",
      "type": "function"
    },
    {
      "inputs": [],
      "name": "DELEGATION_WITH_SIG_TYPEHASH",
      "outputs": [
        {
          "internalType": "bytes32",
          "name": "",
          "type": "bytes32"
        }
      ],
      "stateMutability": "view",
      "type": "function"
    },
    {
      "inputs": [],
      "name": "DOMAIN_SEPARATOR",
      "outputs": [
        {
          "internalType": "bytes32",
          "name": "",
          "type": "bytes32"
        }
      ],
      "stateMutability": "view",
      "type": "function"
    },
    {
      "inputs": [],
      "name": "EIP712_REVISION",
      "outputs": [
        {
          "internalType": "bytes",
          "name": "",
          "type": "bytes"
        }
      ],
      "stateMutability": "view",
      "type": "function"
    },
    {
      "inputs": [],
      "name": "POOL",
      "outputs": [
        {
          "internalType": "contract IPool",
          "name": "",
          "type": "address"
        }
      ],
      "stateMutability": "view",
      "type": "function"
    },
    {
      "inputs": [],
      "name": "UNDERLYING_ASSET_ADDRESS",
      "outputs": [
        {
          "internalType": "address",
          "name": "",
          "type": "address"
        }
      ],
      "stateMutability": "view",
      "type": "function"
    },
    {
      "inputs": [
        {
          "internalType": "address",
          "name": "",
          "type": "address"
        },
        {
          "internalType": "address",
          "name": "",
          "type": "address"
        }
      ],
      "name": "allowance",
      "outputs": [
        {
          "internalType": "uint256",
          "name": "",
          "type": "uint256"
        }
      ],
      "stateMutability": "view",
      "type": "function"
    },
    {
      "inputs": [
        {
          "internalType": "address",
          "name": "",
          "type": "address"
        },
        {
          "internalType": "uint256",
          "name": "",
          "type": "uint256"
        }
      ],
      "name": "approve",
      "outputs": [
        {
          "internalType": "bool",
          "name": "",
          "type": "bool"
        }
      ],
      "stateMutability": "nonpayable",
      "type": "function"
    },
    {
      "inputs": [
        {
          "internalType": "address",
          "name": "delegatee",
          "type": "address"
        },
        {
          "internalType": "uint256",
          "name": "amount",
          "type": "uint256"
        }
      ],
      "name": "approveDelegation",
      "outputs": [],
      "stateMutability": "nonpayable",
      "type": "function"
    },
    {
      "inputs": [
        {
          "internalType": "address",
          "name": "user",
          "type": "address"
        }
      ],
      "name": "balanceOf",
      "outputs": [
        {
          "internalType": "uint256",
          "name": "",
          "type": "uint256"
        }
      ],
      "stateMutability": "view",
      "type": "function"
    },
    {
      "inputs": [
        {
          "internalType": "address",
          "name": "fromUser",
          "type": "address"
        },
        {
          "internalType": "address",
          "name": "toUser",
          "type": "address"
        }
      ],
      "name": "borrowAllowance",
      "outputs": [
        {
          "internalType": "uint256",
          "name": "",
          "type": "uint256"
        }
      ],
      "stateMutability": "view",
      "type": "function"
    },
    {
      "inputs": [
        {
          "internalType": "address",
          "name": "from",
          "type": "address"
        },
        {
          "internalType": "uint256",
          "name": "amount",
          "type": "uint256"
        },
        {
          "internalType": "uint256",
          "name": "index",
          "type": "uint256"
        }
      ],
      "name": "burn",
      "outputs": [
        {
          "internalType": "uint256",
          "name": "",
          "type": "uint256"
        }
      ],
      "stateMutability": "nonpayable",
      "type": "function"
    },
    {
      "inputs": [],
      "name": "decimals",
      "outputs": [
        {
          "internalType": "uint8",
          "name": "",
          "type": "uint8"
        }
      ],
      "stateMutability": "view",
      "type": "function"
    },
    {
      "inputs": [
        {
          "internalType": "address",
          "name": "",
          "type": "address"
        },
        {
          "internalType": "uint256",
          "name": "",
          "type": "uint256"
        }
      ],
      "name": "decreaseAllowance",
      "outputs": [
        {
          "internalType": "bool",
          "name": "",
          "type": "bool"
        }
      ],
      "stateMutability": "nonpayable",
      "type": "function"
    },
    {
      "inputs": [
        {
          "internalType": "address",
          "name": "delegator",
          "type": "address"
        },
        {
          "internalType": "address",
          "name": "delegatee",
          "type": "address"
        },
        {
          "internalType": "uint256",
          "name": "value",
          "type": "uint256"
        },
        {
          "internalType": "uint256",
          "name": "deadline",
          "type": "uint256"
        },
        {
          "internalType": "uint8",
          "name": "v",
          "type": "uint8"
        },
        {
          "internalType": "bytes32",
          "name": "r",
          "type": "bytes32"
        },
        {
          "internalType": "bytes32",
          "name": "s",
          "type": "bytes32"
        }
      ],
      "name": "delegationWithSig",
      "outputs": [],
      "stateMutability": "nonpayable",
      "type": "function"
    },
    {
      "inputs": [],
      "name": "getIncentivesController",
      "outputs": [
        {
          "internalType": "contract IMonetariaIncentivesController",
          "name": "",
          "type": "address"
        }
      ],
      "stateMutability": "view",
      "type": "function"
    },
    {
      "inputs": [
        {
          "internalType": "address",
          "name": "user",
          "type": "address"
        }
      ],
      "name": "getPreviousIndex",
      "outputs": [
        {
          "internalType": "uint256",
          "name": "",
          "type": "uint256"
        }
      ],
      "stateMutability": "view",
      "type": "function"
    },
    {
      "inputs": [
        {
          "internalType": "address",
          "name": "user",
          "type": "address"
        }
      ],
      "name": "getScaledUserBalanceAndSupply",
      "outputs": [
        {
          "internalType": "uint256",
          "name": "",
          "type": "uint256"
        },
        {
          "internalType": "uint256",
          "name": "",
          "type": "uint256"
        }
      ],
      "stateMutability": "view",
      "type": "function"
    },
    {
      "inputs": [
        {
          "internalType": "address",
          "name": "",
          "type": "address"
        },
        {
          "internalType": "uint256",
          "name": "",
          "type": "uint256"
        }
      ],
      "name": "increaseAllowance",
      "outputs": [
        {
          "internalType": "bool",
          "name": "",
          "type": "bool"
        }
      ],
      "stateMutability": "nonpayable",
      "type": "function"
    },
    {
      "inputs": [
        {
          "internalType": "contract IPool",
          "name": "initializingPool",
          "type": "address"
        },
        {
          "internalType": "address",
          "name": "underlyingAsset",
          "type": "address"
        },
        {
          "internalType": "contract IMonetariaIncentivesController",
          "name": "incentivesController",
          "type": "address"
        },
        {
          "internalType": "uint8",
          "name": "debtTokenDecimals",
          "type": "uint8"
        },
        {
          "internalType": "string",
          "name": "debtTokenName",
          "type": "string"
        },
        {
          "internalType": "string",
          "name": "debtTokenSymbol",
          "type": "string"
        },
        {
          "internalType": "bytes",
          "name": "params",
          "type": "bytes"
        }
      ],
      "name": "initialize",
      "outputs": [],
      "stateMutability": "nonpayable",
      "type": "function"
    },
    {
      "inputs": [
        {
          "internalType": "address",
          "name": "user",
          "type": "address"
        },
        {
          "internalType": "address",
          "name": "onBehalfOf",
          "type": "address"
        },
        {
          "internalType": "uint256",
          "name": "amount",
          "type": "uint256"
        },
        {
          "internalType": "uint256",
          "name": "index",
          "type": "uint256"
        }
      ],
      "name": "mint",
      "outputs": [
        {
          "internalType": "bool",
          "name": "",
          "type": "bool"
        },
        {
          "internalType": "uint256",
          "name": "",
          "type": "uint256"
        }
      ],
      "stateMutability": "nonpayable",
      "type": "function"
    },
    {
      "inputs": [],
      "name": "name",
      "outputs": [
        {
          "internalType": "string",
          "name": "",
          "type": "string"
        }
      ],
      "stateMutability": "view",
      "type": "function"
    },
    {
      "inputs": [
        {
          "internalType": "address",
          "name": "owner",
          "type": "address"
        }
      ],
      "name": "nonces",
      "outputs": [
        {
          "internalType": "uint256",
          "name": "",
          "type": "uint256"
        }
      ],
      "stateMutability": "view",
      "type": "function"
    },
    {
      "inputs": [
        {
          "internalType": "address",
          "name": "user",
          "type": "address"
        }
      ],
      "name": "scaledBalanceOf",
      "outputs": [
        {
          "internalType": "uint256",
          "name": "",
          "type": "uint256"
        }
      ],
      "stateMutability": "view",
      "type": "function"
    },
    {
      "inputs": [],
      "name": "scaledTotalSupply",
      "outputs": [
        {
          "internalType": "uint256",
          "name": "",
          "type": "uint256"
        }
      ],
      "stateMutability": "view",
      "type": "function"
    },
    {
      "inputs": [
        {
          "internalType": "contract IMonetariaIncentivesController",
          "name": "controller",
          "type": "address"
        }
      ],
      "name": "setIncentivesController",
      "outputs": [],
      "stateMutability": "nonpayable",
      "type": "function"
    },
    {
      "inputs": [],
      "name": "symbol",
      "outputs": [
        {
          "internalType": "string",
          "name": "",
          "type": "string"
        }
      ],
      "stateMutability": "view",
      "type": "function"
    },
    {
      "inputs": [],
      "name": "totalSupply",
      "outputs": [
        {
          "internalType": "uint256",
          "name": "",
          "type": "uint256"
        }
      ],
      "stateMutability": "view",
      "type": "function"
    },
    {
      "inputs": [
        {
          "internalType": "address",
          "name": "",
          "type": "address"
        },
        {
          "internalType": "uint256",
          "name": "",
          "type": "uint256"
        }
      ],
      "name": "transfer",
      "outputs": [
        {
          "internalType": "bool",
          "name": "",
          "type": "bool"
        }
      ],
      "stateMutability": "nonpayable",
      "type": "function"
    },
    {
      "inputs": [
        {
          "internalType": "address",
          "name": "",
          "type": "address"
        },
        {
          "internalType": "address",
          "name": "",
          "type": "address"
        },
        {
          "internalType": "uint256",
          "name": "",
          "type": "uint256"
        }
      ],
      "name": "transferFrom",
      "outputs": [
        {
          "internalType": "bool",
          "name": "",
          "type": "bool"
        }
      ],
      "stateMutability": "nonpayable",
      "type": "function"
    }
  ],
  "bytecode": "0x60e0604052600080553480156200001557600080fd5b506040516200280a3803806200280a833981016040819052620000389162000255565b806040518060400160405280601881526020017f5641524941424c455f444542545f544f4b454e5f494d504c00000000000000008152506040518060400160405280601881526020017f5641524941424c455f444542545f544f4b454e5f494d504c0000000000000000815250600083838383838383834660808181525050836001600160a01b0316630542975c6040518163ffffffff1660e01b815260040160206040518083038186803b158015620000f157600080fd5b505afa15801562000106573d6000803e3d6000fd5b505050506040513d601f19601f820116820180604052508101906200012c919062000255565b6001600160a01b031660a05282516200014d90603b90602086019062000196565b5081516200016390603c90602085019062000196565b50603d805460ff191660ff9290921691909117905550506001600160a01b031660c05250620002b9975050505050505050565b828054620001a4906200027c565b90600052602060002090601f016020900481019282620001c8576000855562000213565b82601f10620001e357805160ff191683800117855562000213565b8280016001018555821562000213579182015b8281111562000213578251825591602001919060010190620001f6565b506200022192915062000225565b5090565b5b8082111562000221576000815560010162000226565b6001600160a01b03811681146200025257600080fd5b50565b6000602082840312156200026857600080fd5b815162000275816200023c565b9392505050565b600181811c908216806200029157607f821691505b60208210811415620002b357634e487b7160e01b600052602260045260246000fd5b50919050565b60805160a05160c0516124f7620003136000396000818161037e01528181610a3901528181610b8e01528181610c6c01528181610e3001528181610f8b01526112890152600061105701526000610ac701526124f76000f3fe608060405234801561001057600080fd5b50600436106101da5760003560e01c80637ecebe0011610104578063b9a7b622116100a2578063e075398611610071578063e0753986146104ee578063e655dbd81461054a578063f3bfc7381461055d578063f5298aca1461058457600080fd5b8063b9a7b622146104b2578063c04a8a10146104ba578063c222ec8a146104cd578063dd62ed3e146104e057600080fd5b8063a9059cbb116100de578063a9059cbb146101fd578063b16a19de14610462578063b1bf962d14610480578063b3f1c93d1461048857600080fd5b80637ecebe001461042457806395d89b411461045a578063a457c2d7146101fd57600080fd5b8063313ce5671161017c57806370a082311161014b57806370a08231146103665780637535d2461461037957806375d26413146103c557806378160376146103e857600080fd5b8063313ce567146103035780633644e5151461031857806339509351146101fd5780636bd76d241461032057600080fd5b80630b52d558116101b85780630b52d5581461028257806318160ddd146102975780631da24f3e146102ad57806323b872dd146102f557600080fd5b806306fdde03146101df578063095ea7b3146101fd5780630afbcdc914610220575b600080fd5b6101e7610597565b6040516101f49190611eb5565b60405180910390f35b61021061020b366004611efd565b610629565b60405190151581526020016101f4565b61026d61022e366004611f29565b73ffffffffffffffffffffffffffffffffffffffff16600090815260386020526040902054603a546fffffffffffffffffffffffffffffffff90911691565b604080519283526020830191909152016101f4565b610295610290366004611f57565b610699565b005b61029f6109ea565b6040519081526020016101f4565b61029f6102bb366004611f29565b73ffffffffffffffffffffffffffffffffffffffff166000908152603860205260409020546fffffffffffffffffffffffffffffffff1690565b61021061020b366004611fc5565b603d5460405160ff90911681526020016101f4565b61029f610ac3565b61029f61032e366004612006565b73ffffffffffffffffffffffffffffffffffffffff918216600090815260366020908152604080832093909416825291909152205490565b61029f610374366004611f29565b610afc565b6103a07f000000000000000000000000000000000000000000000000000000000000000081565b60405173ffffffffffffffffffffffffffffffffffffffff90911681526020016101f4565b603d54610100900473ffffffffffffffffffffffffffffffffffffffff166103a0565b6101e76040518060400160405280600181526020017f310000000000000000000000000000000000000000000000000000000000000081525081565b61029f610432366004611f29565b73ffffffffffffffffffffffffffffffffffffffff1660009081526034602052604090205490565b6101e7610c16565b60375473ffffffffffffffffffffffffffffffffffffffff166103a0565b61029f610c25565b61049b61049636600461203f565b610c30565b6040805192151583526020830191909152016101f4565b61029f600181565b6102956104c8366004611efd565b610d39565b6102956104db3660046121a8565b610d48565b61029f61020b366004612006565b61029f6104fc366004611f29565b73ffffffffffffffffffffffffffffffffffffffff1660009081526038602052604090205470010000000000000000000000000000000090046fffffffffffffffffffffffffffffffff1690565b610295610558366004611f29565b611053565b61029f7f323db0410fecc107e39e2af5908671f4c8d106123b35a51501bb805c5fa36aa081565b61029f61059236600461227d565b61124f565b6060603b80546105a6906122b2565b80601f01602080910402602001604051908101604052809291908181526020018280546105d2906122b2565b801561061f5780601f106105f45761010080835404028352916020019161061f565b820191906000526020600020905b81548152906001019060200180831161060257829003601f168201915b5050505050905090565b604080518082018252600281527f3830000000000000000000000000000000000000000000000000000000000000602082015290517f08c379a000000000000000000000000000000000000000000000000000000000815260009161069091600401611eb5565b60405180910390fd5b60408051808201909152600281527f3737000000000000000000000000000000000000000000000000000000000000602082015273ffffffffffffffffffffffffffffffffffffffff881661071b576040517f08c379a00000000000000000000000000000000000000000000000000000000081526004016106909190611eb5565b50834211156040518060400160405280600281526020017f37380000000000000000000000000000000000000000000000000000000000008152509061078e576040517f08c379a00000000000000000000000000000000000000000000000000000000081526004016106909190611eb5565b5073ffffffffffffffffffffffffffffffffffffffff8716600090815260346020526040812054906107be610ac3565b604080517f323db0410fecc107e39e2af5908671f4c8d106123b35a51501bb805c5fa36aa0602082015273ffffffffffffffffffffffffffffffffffffffff8b1691810191909152606081018990526080810184905260a0810188905260c001604051602081830303815290604052805190602001206040516020016108769291907f190100000000000000000000000000000000000000000000000000000000000081526002810192909252602282015260420190565b604080517fffffffffffffffffffffffffffffffffffffffffffffffffffffffffffffffe081840301815282825280516020918201206000845290830180835281905260ff8816918301919091526060820186905260808201859052915060019060a0016020604051602081039080840390855afa1580156108fc573d6000803e3d6000fd5b5050506020604051035173ffffffffffffffffffffffffffffffffffffffff168973ffffffffffffffffffffffffffffffffffffffff16146040518060400160405280600281526020017f3739000000000000000000000000000000000000000000000000000000000000815250906109a2576040517f08c379a00000000000000000000000000000000000000000000000000000000081526004016106909190611eb5565b506109ae826001612335565b73ffffffffffffffffffffffffffffffffffffffff8a166000908152603460205260409020556109df898989611314565b505050505050505050565b6037546040517f386497fd00000000000000000000000000000000000000000000000000000000815273ffffffffffffffffffffffffffffffffffffffff9182166004820152600091610abe917f00000000000000000000000000000000000000000000000000000000000000009091169063386497fd9060240160206040518083038186803b158015610a7d57600080fd5b505afa158015610a91573d6000803e3d6000fd5b505050506040513d601f19601f82011682018060405250810190610ab5919061234d565b603a549061138b565b905090565b60007f0000000000000000000000000000000000000000000000000000000000000000461415610af4575060355490565b610abe6113e2565b73ffffffffffffffffffffffffffffffffffffffff81166000908152603860205260408120546fffffffffffffffffffffffffffffffff1680610b425750600092915050565b6037546040517f386497fd00000000000000000000000000000000000000000000000000000000815273ffffffffffffffffffffffffffffffffffffffff9182166004820152610c0f917f0000000000000000000000000000000000000000000000000000000000000000169063386497fd9060240160206040518083038186803b158015610bd057600080fd5b505afa158015610be4573d6000803e3d6000fd5b505050506040513d601f19601f82011682018060405250810190610c08919061234d565b829061138b565b9392505050565b6060603c80546105a6906122b2565b6000610abe603a5490565b60408051808201909152600281527f323300000000000000000000000000000000000000000000000000000000000060208201526000908190337f000000000000000000000000000000000000000000000000000000000000000073ffffffffffffffffffffffffffffffffffffffff1614610cd9576040517f08c379a00000000000000000000000000000000000000000000000000000000081526004016106909190611eb5565b508473ffffffffffffffffffffffffffffffffffffffff168673ffffffffffffffffffffffffffffffffffffffff1614610d1857610d188587866114a7565b610d2486868686611567565b610d2c610c25565b9150915094509492505050565b610d44338383611314565b5050565b6001805460ff1680610d595750303b155b80610d65575060005481115b610df1576040517f08c379a000000000000000000000000000000000000000000000000000000000815260206004820152602e60248201527f436f6e747261637420696e7374616e63652068617320616c726561647920626560448201527f656e20696e697469616c697a65640000000000000000000000000000000000006064820152608401610690565b60015460ff16158015610e2e57600180547fffffffffffffffffffffffffffffffffffffffffffffffffffffffffffffff00168117905560008290555b7f000000000000000000000000000000000000000000000000000000000000000073ffffffffffffffffffffffffffffffffffffffff168a73ffffffffffffffffffffffffffffffffffffffff16146040518060400160405280600281526020017f383700000000000000000000000000000000000000000000000000000000000081525090610eeb576040517f08c379a00000000000000000000000000000000000000000000000000000000081526004016106909190611eb5565b50610ef5866117a8565b610efe856117bb565b603d80546037805473ffffffffffffffffffffffffffffffffffffffff8d81167fffffffffffffffffffffffff0000000000000000000000000000000000000000909216919091179091558a16610100027fffffffffffffffffffffff00000000000000000000000000000000000000000090911660ff8a1617179055610f836113e2565b6035819055507f000000000000000000000000000000000000000000000000000000000000000073ffffffffffffffffffffffffffffffffffffffff168973ffffffffffffffffffffffffffffffffffffffff167f40251fbfb6656cfa65a00d7879029fec1fad21d28fdcff2f4f68f52795b74f2c8a8a8a8a8a8a60405161101096959493929190612366565b60405180910390a3801561104757600180547fffffffffffffffffffffffffffffffffffffffffffffffffffffffffffffff001690555b50505050505050505050565b60007f000000000000000000000000000000000000000000000000000000000000000073ffffffffffffffffffffffffffffffffffffffff1663707cd7166040518163ffffffff1660e01b815260040160206040518083038186803b1580156110bb57600080fd5b505afa1580156110cf573d6000803e3d6000fd5b505050506040513d601f19601f820116820180604052508101906110f39190612406565b6040517f7be53ca100000000000000000000000000000000000000000000000000000000815233600482015290915073ffffffffffffffffffffffffffffffffffffffff821690637be53ca19060240160206040518083038186803b15801561115b57600080fd5b505afa15801561116f573d6000803e3d6000fd5b505050506040513d601f19601f820116820180604052508101906111939190612423565b6040518060400160405280600181526020017f310000000000000000000000000000000000000000000000000000000000000081525090611201576040517f08c379a00000000000000000000000000000000000000000000000000000000081526004016106909190611eb5565b5050603d805473ffffffffffffffffffffffffffffffffffffffff909216610100027fffffffffffffffffffffff0000000000000000000000000000000000000000ff909216919091179055565b60408051808201909152600281527f32330000000000000000000000000000000000000000000000000000000000006020820152600090337f000000000000000000000000000000000000000000000000000000000000000073ffffffffffffffffffffffffffffffffffffffff16146112f6576040517f08c379a00000000000000000000000000000000000000000000000000000000081526004016106909190611eb5565b5061130484600085856117ce565b61130c610c25565b949350505050565b73ffffffffffffffffffffffffffffffffffffffff83811660008181526036602090815260408083208786168085529083529281902086905560375490518681529416939192917fda919360433220e13b51e8c211e490d148e61a3bd53de8c097194e458b97f3e1910160405180910390a4505050565b600081157ffffffffffffffffffffffffffffffffffffffffffe6268e1b017bfe18bffffff839004841115176113c057600080fd5b506b033b2e3c9fd0803ce800000091026b019d971e4fe8401e74000000010490565b60007f8b73c3c69bb8fe3d512ecc4cf759cc79239f7b179b0ffacaa9a75d522b39400f61140d611aeb565b8051602091820120604080518082018252600181527f310000000000000000000000000000000000000000000000000000000000000090840152805192830193909352918101919091527fc89efdaa54c0f20c7adf612882df0950f5a951637e0307cdcb4c672f298b8bc660608201524660808201523060a082015260c00160405160208183030381529060405280519060200120905090565b73ffffffffffffffffffffffffffffffffffffffff80841660009081526036602090815260408083209386168352929052908120546114e7908390612445565b73ffffffffffffffffffffffffffffffffffffffff808616600081815260366020908152604080832089861680855292529182902085905560375491519495509216927fda919360433220e13b51e8c211e490d148e61a3bd53de8c097194e458b97f3e1906115599086815260200190565b60405180910390a450505050565b6000806115748484611af5565b60408051808201909152600281527f32340000000000000000000000000000000000000000000000000000000000006020820152909150816115e3576040517f08c379a00000000000000000000000000000000000000000000000000000000081526004016106909190611eb5565b5073ffffffffffffffffffffffffffffffffffffffff85166000908152603860205260408120546fffffffffffffffffffffffffffffffff808216929161164091849170010000000000000000000000000000000090041661138b565b61164a838761138b565b6116549190612445565b905061165f85611b34565b73ffffffffffffffffffffffffffffffffffffffff8816600090815260386020526040902080546fffffffffffffffffffffffffffffffff9283167001000000000000000000000000000000000292169190911790556116c7876116c285611b34565b611bda565b60006116d38288612335565b90508773ffffffffffffffffffffffffffffffffffffffff16600073ffffffffffffffffffffffffffffffffffffffff167fddf252ad1be2c89b69c2b068fc378daa952ba7f163c4a11628f55a4df523b3ef8360405161173591815260200190565b60405180910390a3604080518281526020810184905290810187905273ffffffffffffffffffffffffffffffffffffffff808a1691908b16907f458f5fa412d0f69b08dd84872b0215675cc67bc1d5b6fd93300a1c3878b861969060600160405180910390a35050159695505050505050565b8051610d4490603b906020840190611dba565b8051610d4490603c906020840190611dba565b60006117da8383611af5565b60408051808201909152600281527f3235000000000000000000000000000000000000000000000000000000000000602082015290915081611849576040517f08c379a00000000000000000000000000000000000000000000000000000000081526004016106909190611eb5565b5073ffffffffffffffffffffffffffffffffffffffff85166000908152603860205260408120546fffffffffffffffffffffffffffffffff80821692916118a691849170010000000000000000000000000000000090041661138b565b6118b0838661138b565b6118ba9190612445565b90506118c584611b34565b73ffffffffffffffffffffffffffffffffffffffff8816600090815260386020526040902080546fffffffffffffffffffffffffffffffff92831670010000000000000000000000000000000002921691909117905561192d8761192885611b34565b611d56565b84811115611a0c5760006119418683612445565b90508773ffffffffffffffffffffffffffffffffffffffff16600073ffffffffffffffffffffffffffffffffffffffff167fddf252ad1be2c89b69c2b068fc378daa952ba7f163c4a11628f55a4df523b3ef836040516119a391815260200190565b60405180910390a3604080518281526020810184905290810186905273ffffffffffffffffffffffffffffffffffffffff89169081907f458f5fa412d0f69b08dd84872b0215675cc67bc1d5b6fd93300a1c3878b861969060600160405180910390a350611ae2565b6000611a188287612445565b9050600073ffffffffffffffffffffffffffffffffffffffff168873ffffffffffffffffffffffffffffffffffffffff167fddf252ad1be2c89b69c2b068fc378daa952ba7f163c4a11628f55a4df523b3ef83604051611a7a91815260200190565b60405180910390a3604080518281526020810184905290810186905273ffffffffffffffffffffffffffffffffffffffff80891691908a16907f4cf25bc1d991c17529c25213d3cc0cda295eeaad5f13f361969b12ea48015f909060600160405180910390a3505b50505050505050565b6060610abe610597565b600081156b033b2e3c9fd0803ce800000060028404190484111715611b1957600080fd5b506b033b2e3c9fd0803ce80000009190910260028204010490565b60006fffffffffffffffffffffffffffffffff821115611bd6576040517f08c379a000000000000000000000000000000000000000000000000000000000815260206004820152602760248201527f53616665436173743a2076616c756520646f65736e27742066697420696e203160448201527f32382062697473000000000000000000000000000000000000000000000000006064820152608401610690565b5090565b603a54611bf96fffffffffffffffffffffffffffffffff831682612335565b603a5573ffffffffffffffffffffffffffffffffffffffff83166000908152603860205260409020546fffffffffffffffffffffffffffffffff16611c3e838261245c565b73ffffffffffffffffffffffffffffffffffffffff858116600090815260386020526040902080547fffffffffffffffffffffffffffffffff00000000000000000000000000000000166fffffffffffffffffffffffffffffffff9390931692909217909155603d546101009004168015611d4f576040517f31873e2e00000000000000000000000000000000000000000000000000000000815273ffffffffffffffffffffffffffffffffffffffff8681166004830152602482018590526fffffffffffffffffffffffffffffffff841660448301528216906331873e2e90606401600060405180830381600087803b158015611d3b57600080fd5b505af11580156109df573d6000803e3d6000fd5b5050505050565b603a54611d756fffffffffffffffffffffffffffffffff831682612445565b603a5573ffffffffffffffffffffffffffffffffffffffff83166000908152603860205260409020546fffffffffffffffffffffffffffffffff16611c3e8382612490565b828054611dc6906122b2565b90600052602060002090601f016020900481019282611de85760008555611e2e565b82601f10611e0157805160ff1916838001178555611e2e565b82800160010185558215611e2e579182015b82811115611e2e578251825591602001919060010190611e13565b50611bd69291505b80821115611bd65760008155600101611e36565b6000815180845260005b81811015611e7057602081850181015186830182015201611e54565b81811115611e82576000602083870101525b50601f017fffffffffffffffffffffffffffffffffffffffffffffffffffffffffffffffe0169290920160200192915050565b602081526000610c0f6020830184611e4a565b73ffffffffffffffffffffffffffffffffffffffff81168114611eea57600080fd5b50565b8035611ef881611ec8565b919050565b60008060408385031215611f1057600080fd5b8235611f1b81611ec8565b946020939093013593505050565b600060208284031215611f3b57600080fd5b8135610c0f81611ec8565b803560ff81168114611ef857600080fd5b600080600080600080600060e0888a031215611f7257600080fd5b8735611f7d81611ec8565b96506020880135611f8d81611ec8565b95506040880135945060608801359350611fa960808901611f46565b925060a0880135915060c0880135905092959891949750929550565b600080600060608486031215611fda57600080fd5b8335611fe581611ec8565b92506020840135611ff581611ec8565b929592945050506040919091013590565b6000806040838503121561201957600080fd5b823561202481611ec8565b9150602083013561203481611ec8565b809150509250929050565b6000806000806080858703121561205557600080fd5b843561206081611ec8565b9350602085013561207081611ec8565b93969395505050506040820135916060013590565b7f4e487b7100000000000000000000000000000000000000000000000000000000600052604160045260246000fd5b600082601f8301126120c557600080fd5b813567ffffffffffffffff808211156120e0576120e0612085565b604051601f83017fffffffffffffffffffffffffffffffffffffffffffffffffffffffffffffffe0908116603f0116810190828211818310171561212657612126612085565b8160405283815286602085880101111561213f57600080fd5b836020870160208301376000602085830101528094505050505092915050565b60008083601f84011261217157600080fd5b50813567ffffffffffffffff81111561218957600080fd5b6020830191508360208285010111156121a157600080fd5b9250929050565b60008060008060008060008060e0898b0312156121c457600080fd5b88356121cf81611ec8565b975060208901356121df81611ec8565b96506121ed60408a01611eed565b95506121fb60608a01611f46565b9450608089013567ffffffffffffffff8082111561221857600080fd5b6122248c838d016120b4565b955060a08b013591508082111561223a57600080fd5b6122468c838d016120b4565b945060c08b013591508082111561225c57600080fd5b506122698b828c0161215f565b999c989b5096995094979396929594505050565b60008060006060848603121561229257600080fd5b833561229d81611ec8565b95602085013595506040909401359392505050565b600181811c908216806122c657607f821691505b60208210811415612300577f4e487b7100000000000000000000000000000000000000000000000000000000600052602260045260246000fd5b50919050565b7f4e487b7100000000000000000000000000000000000000000000000000000000600052601160045260246000fd5b6000821982111561234857612348612306565b500190565b60006020828403121561235f57600080fd5b5051919050565b73ffffffffffffffffffffffffffffffffffffffff8716815260ff8616602082015260a06040820152600061239e60a0830187611e4a565b82810360608401526123b08187611e4a565b905082810360808401528381528385602083013760006020858301015260207fffffffffffffffffffffffffffffffffffffffffffffffffffffffffffffffe0601f860116820101915050979650505050505050565b60006020828403121561241857600080fd5b8151610c0f81611ec8565b60006020828403121561243557600080fd5b81518015158114610c0f57600080fd5b60008282101561245757612457612306565b500390565b60006fffffffffffffffffffffffffffffffff80831681851680830382111561248757612487612306565b01949350505050565b60006fffffffffffffffffffffffffffffffff838116908316818110156124b9576124b9612306565b03939250505056fea2646970667358221220d71a8d2d455d54c01f77c062b82f2b8df099d292d64ea26881c363b7a041c6f364736f6c63430008090033",
  "linkReferences": {},
  "deployedLinkReferences": {}
}